:020000040800F2
:10000000E006002055020008D11900080914000874
:10001000CD190008F9040008A11A0008000000002A
:10002000000000000000000000000000D9190008D6
:10003000FD04000800000000D5190008DD190008C3
:100040006F0200086F0200086F0200086F020008CC
:100050006F0200086F0200086F0200086F020008BC
:100060006F0200086F0200086F0200086F020008AC
:100070006F0200086F0200086F0200086F0200089C
:100080006F0200086F0200086F0200086F0200088C
:100090006F0200086F0200086F0200086F0200087C
:1000A0006F0200086F0200086F0200086F0200086C
:1000B0006F0200086F0200086F0200086F0200085C
:1000C0006F0200086F0200086F0200086F0200084C
:1000D0006F0200086F0200086F0200086F0200083C
:1000E0006F0200086F0200086F0200086F0200082C
:1000F0006F0200086F0200086F0200086F0200081C
:100100006F0200086F0200086F0200086F0200080B
:100110006F0200086F0200086F0200086F020008FB
:100120006F0200086F0200086F0200086F020008EB
:100130006F0200086F0200086F0200086F020008DB
:100140006F0200086F0200086F0200086F020008CB
:100150006F0200086F0200086F0200086F020008BB
:100160006F0200086F0200086F0200086F020008AB
:100170006F0200086F0200086F0200080000000014
:100180006F0200086F02000800F002F800F052F859
:1001900014A696E8000CB244B344DA4501D100F04D
:1001A00049F8BAE80F000FA696E83000A5EB040561
:1001B00004EB0607AAEB0704A7F101074FEA1515A0
:1001C0004FEA3414A4F10104AC4201D300F032F838
:1001D00013F0010F18BFFB1A43F0010300F001F800
:1001E000DBE71847381A0000581A0000103A24BFFD
:1001F00078C878C1FAD8520724BF30C830C144BF8C
:1002000004680C6070470000704700000023002461
:1002100000250026103A28BF78C1FBD8520728BF16
:1002200030C148BF0B6070471FB501F0DDFC1FBD3A
:1002300010B510BD00F0A9F81146FFF7F5FF01F069
:1002400031FC00F0C7F803B4FFF7F2FF03BC00F085
:10025000CFF800000948804709480047FEE7FEE75D
:10026000FEE7FEE7FEE7FEE7FEE7FEE7FEE7FEE766
:1002700004480549054A064B704700008D1A0008DE
:1002800089010008E0000020E0060020E0020020D4
:10029000E002002053EA020C00F069802DE9F04BE7
:1002A0004FF00006002B1FBFB3FA83F503FA05F4E5
:1002B00024FA05F65E4012BF1643B2FA82F502FA3E
:1002C00005F4C5F120051EBF22FA05FC44EA0C0422
:1002D000203556EA044C4FEA144418BF641C4FF012
:1002E00000084FF00009904271EB030C39D300294C
:1002F00019BFB1FA81F701FA07F6B0FA80F700FAF0
:1003000007F6C7F120071EBF20FA07FC46EA0C06D5
:100310002037B6FBF4FCA7EB0507103F07F01F0BD7
:10032000CBF120062CFA06F60CFA0BFB44BFB346C1
:100330000026202FA4BF5E464FF0000B5BEA060CA0
:1003400008BF4FF0010B19EB0B0948EB0608ABFB9C
:10035000027C06FB02CC0BFB03CCC01B71EB0C0137
:10036000C1E70B46024641464846BDE8F08B13B54F
:10037000084318BF4FF0FF300146AFF30080BDE8DF
:100380001C407047704770477047754600F02CF866
:10039000AE4605006946534620F00700854618B072
:1003A00020B5FFF765FFBDE820404FF000064FF095
:1003B00000074FF000084FF0000BAC46ACE8C00956
:1003C000ACE8C009ACE8C009ACE8C00921F00701FD
:1003D0008D46704710B50446AFF300802046BDE857
:1003E0001040FFF730BF00000048704710000020A9
:1003F00001491820ABBEFEE726000200704700004E
:1004000070B586B0044601200DF1110100254FF4AE
:100410007A76CDE900102046A621002201238DF82E
:100420001150029600F0FCFA9DF81100E52823D146
:1004300040F62D00ADF812000DF112022046A62163
:100440000223009600F0FEF940F23110ADF81400DE
:1004500005AA2046A6210223009600F0F3F940F6F3
:100460002C60ADF816000DF116022046A6210223DD
:10047000009600F0E7F90125284606B070BD00009F
:1004800080B584B00A460021ADF80E1002210DF1AE
:100490000E034FF47A7CCDE90031A6210123CDF87B
:1004A00008C000F0BDFABDF90E0004B080BD000028
:1004B00080B52DED028B84B00A460021ADF80E10F8
:1004C00002210DF10E034FF47A7CCDE90031A62113
:1004D0000123B0EE408ACDF808C000F0A1FABDF9C2
:1004E0000E0000EE100AB8EEC00A20EE080A04B0B2
:1004F000BDEC028B80BD0000FEE7000070470000ED
:10050000B0B5044600F0E6F8054640F20000C2F23D
:1005100000000078611C18BF044400BF00F0DAF846
:10052000401BA042FAD3B0BD2DE9F04F82B000F1DC
:100530003E4707F1FF77860546EA972741F60046D2
:10054000C4F20206082243F6004EB04208BF07225A
:10055000C4F2010E072F38BF3A46002600274FF09D
:100560000008009209E000BF08F101080237B8F165
:10057000100F06F1040600F0A3800D68012202FAB4
:1005800008F415EA0409EFD0D1F804B003220BF007
:10059000030CACF10105BA40012D6FEA020A0FD835
:1005A0008268CD6802EA0A02BD402A43826042683E
:1005B000A243CBF3001404FA08F42243426005E09E
:1005C000BCF1030F02D14FF0030C1EE0C2688C682F
:1005D00002EA0A02BC402243BCF1020FC26014D1FD
:1005E0006FF0030202EA58020244D2F820C006F07B
:1005F0001C040F230D69A3402CEA0303A5402B43E1
:100600001362D1F804B00BF0030C02680CFA07F384
:1006100002EA0A021A431BF4403F0260A4D00022FF
:1006200043F644030192C4F202031A684FF6084CE1
:1006300042F480421A601A68CFF6FF7C02F48042CE
:100640000192019A28F00302724452F80C3006F02D
:100650000C050F24AC40A343009C04FA05F52B4382
:1006600042F80C30DEF808204B6842EA090543F6F0
:100670000C4CDC0258BF22EA0905CEF80850C4F23F
:10068000010CDCF800209C0242EA090558BF22EA6E
:100690000905CCF80050DEF804209C0342EA090565
:1006A00058BF22EA0905CEF80450DEF80020DB032B
:1006B00042EA090558BF22EA0905CEF8005053E77F
:1006C00002B0BDE8F08F0000002A08BF0904816174
:1006D0007047000040F2D800C2F200000068704786
:1006E000002804BF01207047F0B581B0044690F89F
:1006F0003D0028B9002084F83C00204600F0BCFAF8
:10070000242084F83D002068016821F00101016087
:10071000016841F400410160016821F40041016079
:1007200000F03AFC636848F2A16CC0F2010C40F69C
:100730000011C0F23D0163453CBF48F28041C0F268
:100740001E01884202D2012001B0F0BD4DF6836146
:10075000C4F21B31A0FB01122168970CD1F804E010
:100760004FF496762EF03F0545EA92454D6077436B
:1007700048F638160D6AC0F24106A7FB067625F04A
:100780003F07634538BF960C721C3A430A62CA6938
:1007900048F2A0664CF6FF77C0F20106B34222EAA7
:1007A00007020BD801385B00B0FBF3F001306FF3A8
:1007B0001F30042898BF04201BE000BFA768013841
:1007C00057B119277B43B0FBF3F001306FF31F30B3
:1007D00070B100F5804007E003EB4303B0FBF3F09A
:1007E00001306FF31F3018B100F5004001E000BF89
:1007F00001201043C8610868D4E9072320F0C00035
:10080000104318430860886848F2FF3204F10C076F
:1008100090438CCF18431043A6698860C86820F0C5
:10082000FF0038433043C860086840F001000860AA
:1008300000202021206484F83D10206384F83E00CD
:1008400001B0F0BD2DE9F04383B01E46174689463E
:100850000446FFF73FFF94F83D10202924D10546B8
:10086000206800BF816989071AD5FFF733FF411B54
:1008700020681A29F6D381698907F3D50020202141
:10088000206384F83D1084F83E00216C41F0200183
:10089000216484F83C00022003B0BDE8F08300BF6F
:1008A00094F83C10012903D1022003B0BDE8F08385
:1008B000012184F83C100168C90703D1016841F0A7
:1008C00001010160016840F2020821F40061016049
:1008D000212184F83D10102184F83E10002121646C
:1008E00067626685618DC0F201082185A8F1021159
:1008F000E162E16A0A9E11F5803F18BF01291DD10E
:10090000016841F48071016020464FF0011100221E
:100910003346009500F062FE50B120680068C005C3
:1009200044BF4FF400702064012003B0BDE8F083A1
:100930002069B0F5804F07D1FE2015E00829DFD0EF
:10094000216B1229DCD0DFE7062000EAD9102168EC
:10095000F030086108F10601204632462B4600F0CF
:1009600023FF0028E0D1FF20216800EA0900086188
:100970002046414632462B4600F016FF0028D3D1D0
:1009800000200290206841690291806902900298DB
:1009900006E000BF204631462A4600F0C1FD18BBE4
:1009A000208D68B3204631462A4600F0B1FFD8B901
:1009B000606A2168024612F8013B0B616262628D37
:1009C000013A6285228D531E23854F697F07E1D549
:1009D0001B04DFD0437802300B616062608D013808
:1009E0006085901E2085D5E7206C04289CD1206866
:1009F000016841F400710160012003B0BDE8F0839B
:100A00002068016841F400710160202084F83D00F5
:100A1000002084F83E0084F83C0003B0BDE8F08379
:100A20002DE9F04784B0994616460F460446FFF775
:100A300051FE94F83D10202927D10546206800BFBB
:100A4000816989071CD5FFF745FE411B20681A29DB
:100A5000F6D381698907F3D500202021206384F82B
:100A60003D1084F83E00206C04F13C0A40F0200068
:100A70002064022000218AF8001004B0BDE8F0874D
:100A8000A2461AF83C1F012904D1022004B0BDE897
:100A9000F08700BF01228AF800200368DDE90D1805
:100AA0000C9ADB0703D1036843F00103036003687A
:100AB00023F400630360222084F83D00402084F882
:100AC0003E000020206462626185608D3946208589
:100AD0000020CFF6FF70E062204632464B46CDE95B
:100AE000008500F093FC18B1012004B0BDE8F08748
:100AF000208DA8B102282BD0012835D121680A68A1
:100B000022F480620A60002203924A6903928A6991
:100B10000392039A0A6842F400720A602CE000BF54
:100B20000020039020684169039181690391039932
:100B3000016841F400710160202084F83D0000202C
:100B400084F83E0000218AF8001004B0BDE8F08768
:100B500021680A6822F480620A600A6842F400622E
:100B60000A600022039202E00021039121684A6991
:100B700003928969039103990427C0F201070CE0ED
:100B800010690870606A218D01306062481E2085FE
:100B9000618D013961850104CED080B203280FD860
:100BA00002284AD001282DD1204641462A4600F08D
:100BB00067FE002898D12068616A0069E1E700BFFC
:100BC000204641462A4600F05BFE00287FF48CAFA9
:100BD0002068616A00690870606A2268411C208D83
:100BE000616201382085638D013B638553695B0732
:100BF000D1D580B20328C3D1106820F48060106082
:100C0000BEE700BF2046394600224346009500F06B
:100C1000E5FC00287FF468AF2068616A026822F46E
:100C20008062026000690870606A218D0130606234
:100C3000481E2085608D0138608520463946002297
:100C40004346009500F0CAFC00287FF44DAF2068B1
:100C5000616A026842F40072026000690870606AAA
:100C60002268411C6162218D01392185618D013924
:100C700061851169417085E7016845F20040C4F261
:100C80000000814218BF7047B0B586B0002443F61B
:100C900030050194C4F20205296800F5D83041F00E
:100CA00002012960296801F0020101910199C02126
:100CB00001911221CDE9021403210491042105912F
:100CC00001A9FFF731FC0094286940F40010286165
:100CD000286900F400100090009806B0BDE8B0400C
:100CE0007047000040F2000040F2D801C2F200005C
:100CF000C2F2000100780A681044086070470000E2
:100D000080B543F60040C4F20200016841F400716E
:100D10000160016841F480610160016841F4807103
:100D20000160032000F076F8002000F005F800F0E4
:100D300027F8002080BD000070B540F20006C2F226
:100D4000000640F208013278C2F200014FF47A73D3
:100D50000968B3FBF2F20446B1FBF2F1084600F079
:100D60003DFB0F2C4FF0010508D838B94FF0FF308C
:100D700021460022002500F021F87460284670BD4D
:100D800082B0002043F640010190C4F202014A689B
:100D900042F480424A604A6802F480420192019A19
:100DA0000090086840F080500860086800F08050AB
:100DB00000900098072002B000F02CB810B54EF655
:100DC0000C5CCEF2000CDCF80030C3F3022E8EF087
:100DD0000704042C28BF0424BEF103034FF0FF3E98
:100DE0000EFA04F438BF0023A14399400EFA03F32E
:100DF0009A43114300F00F0200F160430901043AE5
:100E000003F564436244002848BF02F10C031970E3
:100E100010BD00004EF60C51CEF200010A684FF6EC
:100E2000FF031A4060F30A2242F0806040F0FD7038
:100E300008607047002804BF012070472DE9F04189
:100E400043F60808C4F202080446D8F8F8030D4631
:100E500000F00700884207D288F8F853D8F8F80362
:100E600000F00700A84277D12068810717D5410715
:100E700005D5D8F8001041F4E051C8F8001001077A
:100E800005D5D8F8001041F46041C8F80010D8F832
:100E90000010A26821F0F0011143C8F80010C0074B
:100EA00040D1D8F8F80300F00700A84207D988F825
:100EB000F853D8F8F80300F00700A8424CD1206896
:100EC000410707D5D8F80010E26821F4E05111433A
:100ED000C8F80010000708D5D8F80000216920F4F0
:100EE000604040EAC100C8F8000000F069F8D8F896
:100EF000001041F60242C1F30311C0F60002515C3A
:100F000040F2080220FA01F140F20400C2F20000AF
:100F10000068C2F200021160FFF70EFF0020BDE87A
:100F2000F08100BF6068811E022907D258F8081CB2
:100F300089015CBF0120BDE8F08111E0012807D1E3
:100F400058F8081C89035CBF0120BDE8F08107E068
:100F500058F8081C890703D40120BDE8F08100BFC0
:100F6000D8F8001021F003010843C8F80000FFF78B
:100F7000B1FB064641F28837D8F80000616800F0FE
:100F80000C00B0EB810F8CD0FFF7A4FB801BB842A4
:100F9000F2D90320BDE8F08140F2080043F60801D1
:100FA000C2F20000C4F202010068096841F6124270
:100FB000C1F38221C0F60002515CC84070470000B6
:100FC00010B543F60404C4F20204606800F00C019A
:100FD00042F200400829C0F2F40007D0042918BFEB
:100FE00010BD41F20020C0F27A0010BD216801F06E
:100FF0003F02216823684902C3F3881106D4A1FB8C
:1010000000010023FFF746F907E000BF41F200208E
:10101000C0F27A004843B0FBF2F021680222C1F32B
:10102000014102EB4101B0FBF1F010BD002804BF0B
:10103000012070472DE9F04182B00446007843F664
:101040000006C007C4F202060CD0B06800F00C0025
:10105000042840F081803068800303D56068002850
:1010600000F06A81207880071BD5B06810F00C0F63
:1010700009D0B06800F00C00082840F08780706844
:10108000400200F183803068800703D5E0680128C2
:1010900040F052813068216920F0F80040EAC10038
:1010A00030602078000713D4207840072AD4A5693F
:1010B000002D00F03C81B06800F00C00082840F0E2
:1010C000A180012D40F01081012002B0BDE8F08127
:1010D0006069002840F20000C4F2472000F07E80E2
:1010E0000121C0F8801EFFF7F5FA0546706F8007F2
:1010F000DAD4FFF7EFFA401B0228F7D9032002B039
:10110000BDE8F081306C5FEAC0080AD4002001908D
:10111000306C40F080503064306C00F080500190B2
:10112000019847F20007C4F200073868C00547D4A9
:10113000386840F480703860FFF7CCFA054600BF8D
:101140003868C0053CD4FFF7C5FA401B0228F7D920
:10115000032002B0BDE8F081B06800F00C00082860
:1011600003D1706840023FF576AF6068B0F5803F0C
:1011700007D0B0F5A02F40F09B80306840F480206D
:101180003060306840F4803030609BE0E0680028D8
:101190005CD00020C4F2472001210160FFF79AFAD9
:1011A000054600BF306880073FF574AFFFF792FA3D
:1011B000401B0228F6D9032002B0BDE8F08100BF31
:1011C000A068012805D0052854D1306F40F00400F4
:1011D0003067306F40F00100306755E00021C0F803
:1011E000801EFFF777FA0546706F80077FF55CAFCA
:1011F000FFF770FA401B0228F6D9032002B0BDE8C1
:10120000F08100BF0027C4F2472700203866FFF7AF
:1012100061FA022D05460DD13068800140F19080C1
:10122000FFF758FA401B02284FF00300F4D902B030
:10123000BDE8F0813068800179D5FFF74BFA401B9B
:1012400002284FF00300F5D9F1E700BF0020C4F2F7
:10125000472000210160FFF73DFA0546306880070E
:101260007FF51FAFFFF736FA401B02284FF003004F
:10127000F4D9DCE7316F002821F001013167316FCB
:1012800021F0040131677DD0FFF724FA054641F2D1
:10129000883700BF306F800700F18680FFF71AFAA9
:1012A000401BB842F6D9032002B0BDE8F08100BF70
:1012B0003168002821F480313160316821F48021C7
:1012C00031607BD0FFF706FA054600BF3068800327
:1012D0003FF5C8AEFFF7FEF9401B6428F6D903209E
:1012E00002B0BDE8F08100BF7068E16900F48002DF
:1012F0008A4221D1216A00F03F028A421CD147F67E
:10130000C071626A0140B1EB821F15D1A16A4FF62C
:10131000FF73C903994300F44032A1F580318A423A
:101320000AD1E16A00F07060B0EB016F04D10020D7
:1013300002B0BDE8F08100BF012002B0BDE8F0813D
:1013400004F11C052FCD084340EA8210D9034FF663
:10135000FF729143A1F5803140EA05600843706057
:1013600001203866FFF7B6F9044600BF30688001F7
:10137000DDD4FFF7AFF9001B02284FF00300F5D9C9
:1013800055E700BFFFF7A6F9054641F2883700BFD1
:10139000306F800708D5FFF79DF9401BB8424FF02A
:1013A0000300F5D943E700BFB8F1000F3FF57FAE6A
:1013B000306C20F08050306479E600BFFFF78AF986
:1013C000054600BF306880037FF54CAEFFF782F919
:1013D000401B64284FF00300F4D928E7411E002089
:1013E000B0EB116F1CBF012070474EF21002CEF21D
:1013F000000251604EF62351CEF20001F0230B7033
:101400000721906011607047FEE700002DE9F0476A
:1014100082B0044600689A460B9D0A9E0368914676
:1014200043F48062026002680F4642F480710160FA
:1014300020464FF0011100223346009500F0CEF80F
:1014400050B120680068C00544BF4FF400702064AC
:10145000032002B0BDE8F08740F202082068C0F225
:10146000010807F0FE0707612046414632462B4639
:1014700000F09AF920B1012002B0BDE8F08700BF6A
:101480000020019020682A46416901918069314617
:1014900001900198204600F03BFAB0B92068BAF1FB
:1014A000010F09D04FEA19210161204631462A4631
:1014B00000F02EFA48B920685FFA89F101612046F0
:1014C00031462A4600F024FA60B1206C0428D2D1BB
:1014D0002068016841F400710160012002B0BDE89C
:1014E000F08700BF206800220168334641F4807114
:1014F000016020464FF00111009500F06FF80028C0
:101500009FD147F0010C27682046414632462B46C2
:10151000C7F810C002B0BDE8F04700F045B90000C0
:1015200070B50368044653F8140F400711D40E46F3
:10153000481C29D086BB00BF1868400527D4FFF798
:10154000C9F8236853F8140F400737D518684007C7
:10155000F2D5002070BD00BF18684007F9D41868A4
:10156000400514D418684007F3D4186840050ED419
:1015700018684007EDD41868400508D4186840077B
:101580004FF0000048BF70BD18684005E4D56FF407
:1015900080601860042012E0154603E053F8140F31
:1015A0004007D6D418684005F1D4FFF793F8401BE4
:1015B0002368B042F2D958694007EFD420200021B7
:1015C0002022216384F83D2084F83E10226C1043D1
:1015D0002064012084F83C1070BD00002DE9F0412A
:1015E000054600681E46144601F47F0201338FB29F
:1015F00042D0DDF81880B2F5803F40F08780406926
:101600003840C01BB0FA80F04009A04240F0C880CA
:101610004EB924E040693840C01BB0FA80F0400960
:10162000A04240F0BD80FFF755F8A0EB0801286804
:10163000B142EFD941693940C91BB1FA81F1490979
:10164000A142E7D19BE000BF40693840C01BB0FA1F
:1016500080F04009A0424FF0000040F0A280FFF768
:1016600039F8286841693940C91BB1FA81F1490943
:10167000A142E9D183E000BFB2F5803F24D100BF91
:1016800041693940C91BB1FA81F14909A14240F0D1
:10169000878041693940C91BB1FA81F14909A142EA
:1016A00040F07E8041693940C91BB1FA81F1490996
:1016B000A14275D141693940C91BB1FA81F149098B
:1016C000A142DDD06CE000BF81693940C91BB1FA8D
:1016D00081F14909A14263D181693940C91BB1FA3D
:1016E00081F14909A1425BD181693940C91BB1FA35
:1016F00081F14909A14253D181693940C91BB1FA2D
:1017000081F14909A142DFD04AE000BF8069384039
:10171000C01BB0FA80F04009A04241D146B923E095
:1017200080693840C01BB0FA80F04009A04237D130
:10173000FEF7D0FFA0EB08012868B142F0D981691B
:101740003940C91BB1FA81F14909A142E8D116E03B
:1017500080693840C01BB0FA80F04009A0424FF0C9
:10176000000018BFBDE8F081FEF7B4FF286881696A
:101770003940C91BB1FA81F14909A142E8D10020E1
:101780002021286385F83D1085F83E00296C41F042
:101790002001296485F83C000120BDE8F08100BFEC
:1017A0000020BDE8F0810000F0B581B0044600687B
:1017B0001D4643698FB203EA0701B94202D10020F6
:1017C00001B0F0BD4169164601323FD049053FD412
:1017D000CEB100BFFEF77EFF411B2068B14203D9A6
:1017E00041693940B94215D141693940B942E6D021
:1017F00041694905EED52BE041693940B942DED057
:101800004169490524D4FEF765FF206841693940E4
:10181000B942F1D0202023E041693940B942CED00D
:101820004169490514D441693940B942C7D0416979
:1018300049050DD441693940B942C0D041694905D3
:1018400006D441693940B942B9D041694905E3D567
:10185000016841F4007101606FF48061416104200E
:1018600000212022216384F83D2084F83E10226C60
:101870001043206484F83C10012001B0F0BD00004A
:1018800070B504460068154650F8143F5A063DD41A
:101890000E4629B926E000BF50F8141F490635D47A
:1018A0000168C90621D4FEF715FF411B2068B1422B
:1018B000F2D941694906EFD400202021206384F841
:1018C0003D1084F83E00206C40F0200018E000BF7E
:1018D000FEF700FF206850F8141F4906ECD5016898
:1018E000490613D40168C906F2D56FF010010160F2
:1018F00000202021206384F83D1084F83E00206CF5
:101900002064002084F83C00012070BD002070BDE0
:1019100070B50368044653F8140F000611D40E4640
:10192000481C29D086BB00BF1868400527D4FEF7A5
:10193000D1FE236853F8140F000637D51868000647
:10194000F2D5002070BD00BF18680006F9D41868F1
:10195000400514D418680006F3D4186840050ED466
:1019600018680006EDD41868400508D41868000609
:101970004FF0000048BF70BD18684005E4D56FF413
:1019800080601860042012E0154603E053F8140F3D
:101990000006D6D418684005F1D4FEF79BFE401B24
:1019A0002368B042F2D958690006EFD42020002104
:1019B0002022216384F83D2084F83E10226C1043DD
:1019C0002064012084F83C1070BD0000FEE7000098
:1019D000FEE700007047000070470000FFF782B983
:1019E000B0B592B0002443F64000CDE90A44CDE9F9
:1019F00008440594CDE90344CDE901440094C4F2C0
:101A000002000168022541F080510160006800F089
:101A100080500090009847F200000094C4F200004B
:101A2000016841F480410160006800F4804000904A
:101A30000098012006904FF4803007904FF480000A
:101A40000D9008200E904FF4A870CDE90F050720E7
:101A5000119006A80C95FFF7E9FA18B172B600BF0D
:101A6000FEE700BF0F20CDE901054FF4A050049020
:101A70004FF48050059001A805210394FFF7DAF98F
:101A800010B172B6FEE700BF12B0B0BD4EF688507E
:101A9000CEF20000016841F470010160704700005F
:101AA000FEE7000086B040F60044C4F20204FFF7EF
:101AB00027F9FFF795FF002543F6300005950095BF
:101AC000C4F202000168002241F080010160016857
:101AD0004FF4704601F08001009100990095016873
:101AE00041F008010160016801F0080100910099CE
:101AF0000095016841F001010160016801F00101F8
:101B0000009100990095016841F0020101600068B0
:101B10004FF4704100F00200009000982046FEF75C
:101B2000D3FD0120CDE90205049001A920460196CC
:101B3000FEF7FAFC40F27006C2F20006A4F5DC31B2
:101B4000304640F8141F41F68021C0F206014FF4E0
:101B50008042C0E90115C0E90352C0E90555C0E95A
:101B60000755FEF7BDFD18B172B600BFFEE700BF16
:101B700006F114052846FEF743FC9FED1A8A3070E3
:101B800028463221FEF77CFC708028463421FEF77F
:101B900077FCB08028463621FEF772FCF08028469C
:101BA0003221B0EE480AFEF783FC86ED020A284691
:101BB0003421B0EE480AFEF77BFC86ED030A284686
:101BC0003621B0EE480AFEF773FC20464FF4704110
:101BD000012286ED040AFEF777FD1420FEF790FC43
:101BE000CEE700BF0000003CF1EE100A4FF6FF7197
:101BF000C0F2C03120EA010040F04070E1EE100A6E
:101C00007047000000000000000001020304060706
:101C1000080900000000010203040000401C000845
:101C20000000002010000000EC010008501C00081B
:101C300010000020D00600000C0200080000000088
:101C400001000000100000000024F400000000006B
:040000050800018965
:00000001FF
