:020000040800F2
:1000000020070020550200088D16000885160008FC
:1000100089160008D9040008B11600080000000085
:10002000000000000000000000000000951600081D
:10003000E904000800000000911600089916000865
:100040006F0200086F0200086F0200086F020008CC
:100050006F0200086F0200086F0200086F020008BC
:100060006F0200086F0200086F0200086F020008AC
:100070006F0200086F0200086F0200086F0200089C
:100080006F0200086F0200086F0200086F0200088C
:100090006F0200086F0200086F0200086F0200087C
:1000A0006F0200086F0200086F0200086F0200086C
:1000B0006F0200086F0200086F0200086F0200085C
:1000C0006F0200086F0200086F0200086F0200084C
:1000D0006F0200086F0200086F0200086F0200083C
:1000E0006F0200086F0200086F0200086F0200082C
:1000F0006F0200086F0200086F0200086F0200081C
:100100006F0200086F0200086F0200086F0200080B
:100110006F0200086F0200086F0200086F020008FB
:10012000DD0400086F0200086F0200086F0200087B
:100130006F0200086F0200086F0200086F020008DB
:100140006F0200086F0200086F0200086F020008CB
:100150006F0200086F0200086F0200086F020008BB
:100160006F0200086F0200086F0200086F020008AB
:100170006F0200086F0200086F0200080000000014
:100180006F0200086F02000800F002F800F052F859
:1001900014A696E8000CB244B344DA4501D100F04D
:1001A00049F8BAE80F000FA696E83000A5EB040561
:1001B00004EB0607AAEB0704A7F101074FEA1515A0
:1001C0004FEA3414A4F10104AC4201D300F032F838
:1001D00013F0010F18BFFB1A43F0010300F001F800
:1001E000DBE718476C1600008C160000103A24BF9D
:1001F00078C878C1FAD8520724BF30C830C144BF8C
:1002000004680C6070470000704700000023002461
:1002100000250026103A28BF78C1FBD8520728BF16
:1002200030C148BF0B6070471FB501F0F8FA1FBD21
:1002300010B510BD00F0D0F81146FFF7F5FF01F042
:1002400039FA00F0EEF803B4FFF7F2FF03BC00F058
:10025000F5F800000948804709480047FEE7FEE737
:10026000FEE7FEE7FEE7FEE7FEE7FEE7FEE7FEE766
:1002700004480549054A064B704700009D160008D2
:100280008901000820010020200700202003002011
:100290002003002053EA020C00F069802DE9F04BA6
:1002A0004FF00006002B1FBFB3FA83F503FA05F4E5
:1002B00024FA05F65E4012BF1643B2FA82F502FA3E
:1002C00005F4C5F120051EBF22FA05FC44EA0C0422
:1002D000203556EA044C4FEA144418BF641C4FF012
:1002E00000084FF00009904271EB030C39D300294C
:1002F00019BFB1FA81F701FA07F6B0FA80F700FAF0
:1003000007F6C7F120071EBF20FA07FC46EA0C06D5
:100310002037B6FBF4FCA7EB0507103F07F01F0BD7
:10032000CBF120062CFA06F60CFA0BFB44BFB346C1
:100330000026202FA4BF5E464FF0000B5BEA060CA0
:1003400008BF4FF0010B19EB0B0948EB0608ABFB9C
:10035000027C06FB02CC0BFB03CCC01B71EB0C0137
:10036000C1E70B46024641464846BDE8F08B13B54F
:10037000084318BF4FF0FF300146AFF30080BDE8DF
:100380001C4070474FF0000200B513469446964655
:10039000203922BFA0E80C50A0E80C50B1F1200198
:1003A000BFF4F7AF090728BFA0E80C5048BF0CC046
:1003B0005DF804EB890028BF40F8042B08BF7047A4
:1003C00048BF20F8022B11F0804F18BF00F8012B16
:1003D0007047704770477047754600F02BF8AE467F
:1003E00005006946534620F00700854618B020B541
:1003F000FFF73EFFBDE820404FF000064FF000073A
:100400004FF000084FF0000BAC46ACE8C009ACE878
:10041000C009ACE8C009ACE8C00921F007018D466D
:10042000704710B50446AFF300802046BDE8104089
:10043000FFF709BF0048704710000020014918204D
:10044000ABBEFEE726000200704700000146806B4D
:10045000036C026C13F0500F08D0D20648BF00F0B6
:10046000F1B8806BC26C0846104700BF42F40071BF
:10047000016401688A6812F0405F01D000F0DEB8C4
:10048000027E002AFAD1CA6A12F4700F02D08A687A
:100490005205F3D44A6822F020024A60016C21F42C
:1004A00080710164016CC90448BF00F0C7B8016CD9
:1004B00041F00101016400F0C1B80000806B4021EF
:1004C0000164416C41F00401416400F0BBB80000DC
:1004D000806B00F0B5B80000FEE7000040F2BC0001
:1004E000C2F2000000F084BA7047000072B600BF8C
:1004F000FEE7000070B581B00022009290F83C2029
:10050000012A03D10221084601B070BD0E68012204
:100510000A2E80F83C2009D3B2B25200D0F800E095
:1005200012FA86F21E3A0EF10C0305E0D0F800E054
:1005300006EB46020EF110034FF0070C1D680CFA93
:1005400002F4A5431D608D681C6805FA02F222437F
:100550001A60496806290FD801EB81014A1F7146CC
:100560001F2351F8345F934025EA03030B60B3B2B5
:1005700003FA02F214E000BF01EB81030C29B2B2CE
:1005800004D8714651F8304F233B03E0714651F8CF
:100590002C4F413B1F259D4024EA05059A400D60E4
:1005A0000B6842F2043CC4F2010C1A43ACF54173EF
:1005B0009E450A603BD1122E06D1DCF8001041F4B2
:1005C0008001CCF8001032E026F0010110292ED174
:1005D000DCF80010102E41F40001CCF8001026D1F8
:1005E00040F20801C2F2000109684DF68362C4F2CC
:1005F0001B32A1FB0212910C01EB81014900009119
:100600000099A1B1009901390091009979B100993F
:1006100001390091009951B1009901390091009977
:1006200029B100990139009100990029EAD10021EE
:1006300080F83C10084601B070BD00007047000013
:100640007047000070470000002804BF0120704779
:1006500010B50446006C00283ED0206CC00645D47E
:10066000206C41F202118843023042F204312064CE
:10067000C4F20101086820F4403008600A6894E878
:1006800009101A43D4F810E00A604168012321F4EC
:10069000807141604168C0F6007341EA0E214160FB
:1006A000416821F040714160416841EA0C014160BC
:1006B000816821F400618160E16882681143816092
:1006C000A16A8268994222F070628260826813D1C6
:1006D00022F0405119E000BF204600F065F80020EC
:1006E000606484F83C00206CC006B9D5012000216C
:1006F00084F83C1010BD00BF11438160816821F077
:1007000040518160E16A826811438160816821F013
:10071000020181608168227E94F8203041EA420122
:100720008160416883B141F40061416041684EF2EB
:10073000000221F460414160616ACFF6FF724368B4
:1007400002EB4131194301E021F400614160C16ACB
:1007500040F2000C21F47001C162E2696169CFF6D8
:10076000F07CC36A0CEB02521A43C262826822F424
:100770000072826094F83020836843EA42228260EB
:10078000826822F480628260826842EA812181600C
:1007900000206064216C012262F3010121640021C8
:1007A00084F83C1010BD000070B586B0044642F2DB
:1007B00000002168C4F201000026814205960496DB
:1007C00002D006B070BD00BF43F630010096C4F2FF
:1007D00002014A6900F5604042F480724A614A6948
:1007E00002F480720092009A00960A6842F00102B8
:1007F0000A60096801F00101009100990721019147
:100800000321CDE9021601A900F0D6FA40F2BC0599
:1008100046F21040C2F20005C4F202004FF48061BB
:100820004FF48072C5E900062846C5E90266C5E9AD
:100830000416C5E90662C5E9086600F0B9F90028A2
:1008400018BFFFF753FEA563AC6306B070BD000090
:10085000B0B582B004460020019094F83C00012815
:1008600002D1022002B0B0BD94460A4601202168A0
:1008700084F83C008868C00729D188684DF68365F4
:1008800040F00100886040F20800C2F200000068F9
:10089000C4F21B35A0FB0505A80C00EB400001903D
:1008A0000198A0B1019801380190019878B10198A0
:1008B00001380190019850B10198013801900198D8
:1008C00028B101980138019001980028EAD1886880
:1008D000C00503D5886820F4807088608D68206C1E
:1008E000ED0709D140F010002064606C40F0010079
:1008F0006064002002B0B0BD40F20175A84300F56D
:10090000807020644868400504D5206C012565F39B
:100910000D302064256C0020ED044FF0000544BF2D
:10092000656C25F00605656484F83C00A06B40F218
:100930004D4540F2D143C0F60005C0F60003C0E9C2
:100940000F5340F2BD43C0F60003C3646FF02203AF
:100950000B604B6842F2080543F080634B608B6884
:10096000C4F2010543F480738B604C31634600F0A0
:10097000D1F9D5F8FC122068C9060FD0A5F10801FD
:100980008842B6D1286810F0405FB2D1286840F0A4
:1009900080402860002002B0B0BD00BF42F20001DC
:1009A000C4F20101884217D042F20021C4F20101D1
:1009B00088420DD042F20011C4F20101884298D160
:1009C000D5F8FC12C90607D005F5FC71884290D114
:1009D000D5F8FC12C9068CD4816811F0405F7FF411
:1009E00088AF816841F080418160002002B0B0BDD5
:1009F000F0B581B004460020009040F20800C2F239
:100A000000000268D4E9166048F2B513376808217F
:100A1000C1F64E3381403942A2FB03250CD0226837
:100A200013685B0708D5136823F004031360B160F3
:100A3000616D41F00101616501218140394208D0B9
:100A400022685269120604D5B160616D41F002015D
:100A5000616504218140394208D0226812689207FA
:100A600004D5B160616D41F00401616510218140E0
:100A7000394217D020680268120713D5B1600268A6
:100A80000168520308D4C90508D4016821F008019F
:100A90000160216C21B905E008033FD4216C09B144
:100AA00020468847E16D202000FA01F23A4241D009
:100AB00020680368DB063DD5B26094F835300268E3
:100AC000052B1BD122F016020260426922F080023F
:100AD0004261226C0AB9A26C1AB1026822F00802C3
:100AE00002603F208840B060012084F83500216D0D
:100AF0000020002984F8340052D157E001685203E5
:100B000010D4C90512D4016821F010010160012040
:100B100084F83500002084F8340007E0A16C002937
:100B2000BED1BFE7080301D4616C00E0E16B09B1FD
:100B300020468847606DC8B3606DC0072ED0052081
:100B400084F835002068A90A026822F001020260D8
:100B5000009A01328A4200921AD80268D20717D04E
:100B6000009A01328A42009212D80268D2070FD04E
:100B7000009A01328A4200920AD80268D20707D04E
:100B8000009A01328A42009202D80268D207DFD16D
:100B9000012084F83500002084F83400E16C29B18C
:100BA000204601B0BDE8F040084700BF01B0F0BDED
:100BB0002DE9F041044600F0CFF9ECB105460220E2
:100BC00084F835000020216884F83400086820F09B
:100BD0000100086021680868C00711D000F0BCF966
:100BE000401B0528F6D9032520230320636584F8DC
:100BF0003550BDE8F08100BF0120BDE8F08100BFA5
:100C0000086848F23F02CFF21002D4E9013500EA49
:100C1000020C04F10C0898E8C10143EA0C032B43D1
:100C20001843D4E9072E304338431043626A40EA40
:100C30000E00042A40EA08031CD1206BD4E90A2ED6
:100C400040EA0E00184308604869BEF1000F20F02A
:100C5000030040EA020040F0040C11D0B8F5005F38
:100C600036D0B8F1000F45D1022A46D0012A3BD038
:100C700032B942E00B60486920F0070040EA020CFC
:100C800001F0F8004AF6AB221038CAF6AA22A0FBFF
:100C900002231A0941F64803C1F814C0C0F6000344
:100CA0009A5C40F2FF335F284FF03F0021EA0301D6
:100CB00000FA02F088BF0431C4E9161288600023EC
:100CC00001250020636584F83550BDE8F08100BF40
:100CD000032AD5D8012540230120DFE802F0030EC6
:100CE000030500BF82E700BFAEF1C070B0FA80F02C
:100CF000400904E0032A04D3C2D1CEF300600028E7
:100D0000BED0012540230120636584F83550BDE83D
:100D1000F081000090F834C0BCF1010F04BF022044
:100D2000704770B54FF0010C80F834C0D0F858E02F
:100D300090F835C0BCF1010F38D14FF0020C80F8AB
:100D400035C04FF0000CC0F854C0D0F800C0846823
:100D5000056CC06DDCF80060402C26F48026CCF8D1
:100D60000060CCF804300B4604BF13460A463F210E
:100D700001FA00F0CCF80830CCF80C20CEF80800CE
:100D8000DCF8000040F01600CCF800002DB1DCF8D3
:100D9000000040F00800CCF80000DCF8000040F053
:100DA0000100CCF80000002070BD00BF002180F8D9
:100DB0003410022070BD00002DE9F04F82B000F128
:100DC0003E4707F1FF77860546EA972741F600463A
:100DD000C4F20206082243F6004EB04208BF0722C2
:100DE000C4F2010E072F38BF3A46002600274FF005
:100DF0000008009209E000BF08F101080237B8F1CD
:100E0000100F06F1040600F0A3800D68012202FA1B
:100E100008F415EA0409EFD0D1F804B003220BF06E
:100E2000030CACF10105BA40012D6FEA020A0FD89C
:100E30008268CD6802EA0A02BD402A4382604268A5
:100E4000A243CBF3001404FA08F42243426005E005
:100E5000BCF1030F02D14FF0030C1EE0C2688C6896
:100E600002EA0A02BC402243BCF1020FC26014D164
:100E70006FF0030202EA58020244D2F820C006F0E2
:100E80001C040F230D69A3402CEA0303A5402B4348
:100E90001362D1F804B00BF0030C02680CFA07F3EC
:100EA00002EA0A021A431BF4403F0260A4D0002267
:100EB00043F644030192C4F202031A684FF6084C49
:100EC00042F480421A601A68CFF6FF7C02F4804236
:100ED0000192019A28F00302724452F80C3006F095
:100EE0000C050F24AC40A343009C04FA05F52B43EA
:100EF00042F80C30DEF808204B6842EA090543F658
:100F00000C4CDC0258BF22EA0905CEF80850C4F2A6
:100F1000010CDCF800209C0242EA090558BF22EAD5
:100F20000905CCF80050DEF804209C0342EA0905CC
:100F300058BF22EA0905CEF80450DEF80020DB0392
:100F400042EA090558BF22EA0905CEF8005053E7E6
:100F500002B0BDE8F08F000040F21C10C2F20000A9
:100F60000068704740F2000040F21C11C2F200001D
:100F7000C2F2000100780A6810440860704700005F
:100F800080B543F60040C4F20200016841F40071EC
:100F90000160016841F480610160016841F4807181
:100FA0000160032000F088F8002000F005F800F050
:100FB00027F8002080BD000070B540F20006C2F2A4
:100FC000000640F208013278C2F200014FF47A7351
:100FD0000968B3FBF2F20446B1FBF2F1084600F0F7
:100FE0003BFB0F2C4FF0010508D838B94FF0FF300C
:100FF00021460022002500F033F87460284670BDB9
:1010000082B0002043F640010190C4F202014A6818
:1010100042F480424A604A6802F480420192019A96
:101020000090086840F080500860086800F0805028
:1010300000900098072002B000F03EB8002848BF9A
:10104000704700F01F01012202FA01F11C2202EA9E
:10105000D0004EF20012CEF2000281507047000024
:1010600010B54EF60C5CCEF2000CDCF80030C3F389
:10107000022E8EF00704042C28BF0424BEF10303C3
:101080004FF0FF3E0EFA04F438BF0023A14399400D
:101090000EFA03F39A43114300F00F0200F160438C
:1010A0000901043A03F564436244002848BF02F191
:1010B0000C03197010BD00004EF60C51CEF2000169
:1010C0000A684FF6FF031A4060F30A2242F080607C
:1010D00040F0FD7008607047002804BF0120704791
:1010E0002DE9F04143F60808C4F202080446D8F896
:1010F000F8030D4600F00700884207D288F8F8533D
:10110000D8F8F80300F00700A84277D120688107DB
:1011100017D5410705D5D8F8001041F4E051C8F8BB
:101120000010010705D5D8F8001041F46041C8F857
:101130000010D8F80010A26821F0F0011143C8F89F
:101140000010C00740D1D8F8F80300F00700A8420B
:1011500007D988F8F853D8F8F80300F00700A84238
:101160004CD12068410707D5D8F80010E26821F477
:10117000E0511143C8F80010000708D5D8F8000066
:10118000216920F4604040EAC100C8F8000000F086
:1011900055F8D8F8001041F63802C1F30311C0F633
:1011A0000002515C40F2080220FA01F140F2040012
:1011B000C2F200000068C2F200021160FFF7FCFEFC
:1011C0000020BDE8F08100BF6068811E022907D2BF
:1011D00058F8081C89015CBF0120BDE8F08111E0CE
:1011E000012807D158F8081C89035CBF0120BDE81D
:1011F000F08107E058F8081C890703D40120BDE8F6
:10120000F08100BFD8F8001021F003010843C8F8AE
:101210000000FFF7A1FE064641F28837D8F800002B
:10122000616800F00C00B0EB810F8CD0FFF794FEEA
:10123000801BB842F2D90320BDE8F08110B543F617
:101240000404C4F20204606800F00C0142F20040A1
:101250000829C0F2F40007D0042918BF10BD41F2DC
:101260000020C0F27A0010BD216801F03F02216821
:1012700023684902C3F3881106D4A1FB00010023AF
:10128000FFF708F807E000BF41F20020C0F27A0043
:101290004843B0FBF2F021680222C1F3014102EBA6
:1012A0004101B0FBF1F010BD002804BF01207047E0
:1012B0002DE9F04182B00446007843F60006C007ED
:1012C000C4F202060CD0B06800F00C00042840F014
:1012D00081803068800303D56068002800F06A814F
:1012E000207880071BD5B06810F00C0F09D0B068CB
:1012F00000F00C00082840F087807068400200F180
:1013000083803068800703D5E068012840F052816F
:101310003068216920F0F80040EAC1003060207890
:10132000000713D4207840072AD4A569002D00F0C7
:101330003C81B06800F00C00082840F0A180012D2D
:1013400040F01081012002B0BDE8F0816069002802
:1013500040F20000C4F2472000F07E800121C0F876
:10136000801EFFF7F9FD0546706F8007DAD4FFF79E
:10137000F3FD401B0228F7D9032002B0BDE8F0813D
:10138000306C5FEAC0080AD400200190306C40F055
:1013900080503064306C00F080500190019847F22A
:1013A0000007C4F200073868C00547D4386840F425
:1013B00080703860FFF7D0FD054600BF3868C00573
:1013C0003CD4FFF7C9FD401B0228F7D9032002B027
:1013D000BDE8F081B06800F00C00082803D1706807
:1013E00040023FF576AF6068B0F5803F07D0B0F5BA
:1013F000A02F40F09B80306840F48020306030683F
:1014000040F4803030609BE0E06800285CD0002031
:10141000C4F2472001210160FFF79EFD054600BF91
:10142000306880073FF574AFFFF796FD401B022838
:10143000F6D9032002B0BDE8F08100BFA068012802
:1014400005D0052854D1306F40F004003067306F6C
:1014500040F00100306755E00021C0F8801EFFF722
:101460007BFD0546706F80077FF55CAFFFF774FD6D
:10147000401B0228F6D9032002B0BDE8F08100BF6E
:101480000027C4F2472700203866FFF765FD022DCC
:1014900005460DD13068800140F19080FFF75CFD7A
:1014A000401B02284FF00300F4D902B0BDE8F081E0
:1014B0003068800179D5FFF74FFD401B02284FF0BF
:1014C0000300F5D9F1E700BF0020C4F24720002156
:1014D0000160FFF741FD0546306880077FF51FAFCB
:1014E000FFF73AFD401B02284FF00300F4D9DCE778
:1014F000316F002821F001013167316F21F00401C3
:1015000031677DD0FFF728FD054641F2883700BFDF
:10151000306F800700F18680FFF71EFD401BB84248
:10152000F6D9032002B0BDE8F08100BF3168002881
:1015300021F480313160316821F4802131607BD029
:10154000FFF70AFD054600BF306880033FF5C8AECF
:10155000FFF702FD401B6428F6D9032002B0BDE866
:10156000F08100BF7068E16900F480028A4221D1F5
:10157000216A00F03F028A421CD147F6C071626ABC
:101580000140B1EB821F15D1A16A4FF6FF73C90369
:10159000994300F44032A1F580318A420AD1E16AD0
:1015A00000F07060B0EB016F04D1002002B0BDE824
:1015B000F08100BF012002B0BDE8F08104F11C05FC
:1015C0002FCD084340EA8210D9034FF6FF729143B2
:1015D000A1F5803140EA056008437060012038665B
:1015E000FFF7BAFC044600BF30688001DDD4FFF786
:1015F000B3FC001B02284FF00300F5D955E700BFEC
:10160000FFF7AAFC054641F2883700BF306F80071C
:1016100008D5FFF7A1FC401BB8424FF00300F5D9F5
:1016200043E700BFB8F1000F3FF57FAE306C20F00C
:101630008050306479E600BFFFF78EFC054600BF9E
:10164000306880037FF54CAEFFF786FC401B6428B2
:101650004FF00300F4D928E7411E0020B0EB116FD2
:101660001CBF012070474EF21002CEF20002516002
:101670004EF62351CEF20001F0230B70072190604B
:1016800011607047FEE70000FEE70000FEE7000083
:101690007047000070470000FFF764BC4EF68850AA
:1016A000CEF20000016841F4700101607047000053
:1016B000FEE7000092B043F6300647F20005C4F2A0
:1016C0000206C4F20005FFF75BFC06AC201D2C21CE
:1016D000FEF758FE00270597CDE90377CDE901779E
:1016E0000097306940F080503061306900F08050E0
:1016F000009000980097286840F48040286028688F
:1017000000F480400090009802200690012009908B
:1017100010200A9020460C97FFF7C6FD10B172B654
:10172000FEE700BF0F20CDE9010701A80021CDE9A8
:1017300003770597FFF7D0FC10B172B6FEE700BF44
:10174000002706973068002140F0010030603068C3
:10175000002200F00100069006980697306840F4D9
:1017600080003060306800F48000069006983820D1
:10177000FFF776FC3820FFF761FC40F27004C2F2FC
:10178000000405F530412046012340F8041FC0F64F
:101790000073C0E90A3703234FF440310125C361C8
:1017A000031D09974FF00072057680F8207080F8CD
:1017B000305086C3C0E90455FEF746FF10B172B63B
:1017C000FEE700BFCDE906750720251D089006A994
:1017D0002846FEF78FFE18B172B600BFFEE700BFC5
:1017E00001200690022606A928460796FEF782FEEB
:1017F00010B172B6FEE700BF0320079006A9284685
:101800000696FEF777FE18B172B600BFFEE700BF7E
:10181000284621460322FFF71BF800BFFEE7F1EE42
:10182000100A4FF6FF71C0F2C03120EA010040F00B
:101830004070E1EE100A7047000000000000000058
:101840000102030406070809000610160006101618
:10185000701800080000002010000000EC010008D3
:101860008018000810000020100700000C0200087B
:1018700001000000100000000024F400000000003F
:040000050800018965
:00000001FF
