:020000040800F2
:100000003807002055020008E5170008C11700084E
:10001000E1170008390500087D1F000800000000F6
:10002000000000000000000000000000611F000848
:100030003D05000800000000E9170008651F0008E2
:100040006F0200086F0200086F0200086F020008CC
:100050006F0200086F0200086F0200086F020008BC
:100060006F0200086F0200086F0200086F020008AC
:100070006F0200086F0200086F0200086F0200089C
:100080006F0200086F0200086F0200086F0200088C
:100090006F0200086F0200086F0200086F0200087C
:1000A0006F0200086F0200086F0200086F0200086C
:1000B0006F0200086F0200086F0200086F0200085C
:1000C0006F0200086F0200086F0200086F0200084C
:1000D0006F0200086F0200086F0200086F0200083C
:1000E0006F0200086F0200086F0200086F0200082C
:1000F0006F0200086F0200086F0200086F0200081C
:100100006F0200086F0200086F0200086F0200080B
:100110006F0200086F0200086F0200086F020008FB
:100120006F0200086F0200086F0200086F020008EB
:100130006F0200086F0200086F0200086F020008DB
:100140006F0200086F0200086F0200086F020008CB
:100150006F0200086F0200086F0200086F020008BB
:100160006F0200086F0200086F0200086F020008AB
:100170006F0200086F0200086F0200080000000014
:100180006F0200086F02000800F002F800F052F859
:1001900014A696E8000CB244B344DA4501D100F04D
:1001A00049F8BAE80F000FA696E83000A5EB040561
:1001B00004EB0607AAEB0704A7F101074FEA1515A0
:1001C0004FEA3414A4F10104AC4201D300F032F838
:1001D00013F0010F18BFFB1A43F0010300F001F800
:1001E000DBE71847683C0000883C0000103A24BF59
:1001F00078C878C1FAD8520724BF30C830C144BF8C
:1002000004680C6070470000704700000023002461
:1002100000250026103A28BF78C1FBD8520728BF16
:1002200030C148BF0B6070471FB503F0B0FD1FBD64
:1002300010B510BD00F0F2F81146FFF7F5FF03F01E
:1002400077FB00F010F903B4FFF7F2FF03BC00F0F6
:1002500017F900000948804709480047FEE7FEE714
:10026000FEE7FEE7FEE7FEE7FEE7FEE7FEE7FEE766
:1002700004480549054A064B70470000691F0008FD
:1002800089010008380100203807002038030020C9
:100290003803002053EA020C00F069802DE9F04B8E
:1002A0004FF00006002B1FBFB3FA83F503FA05F4E5
:1002B00024FA05F65E4012BF1643B2FA82F502FA3E
:1002C00005F4C5F120051EBF22FA05FC44EA0C0422
:1002D000203556EA044C4FEA144418BF641C4FF012
:1002E00000084FF00009904271EB030C39D300294C
:1002F00019BFB1FA81F701FA07F6B0FA80F700FAF0
:1003000007F6C7F120071EBF20FA07FC46EA0C06D5
:100310002037B6FBF4FCA7EB0507103F07F01F0BD7
:10032000CBF120062CFA06F60CFA0BFB44BFB346C1
:100330000026202FA4BF5E464FF0000B5BEA060CA0
:1003400008BF4FF0010B19EB0B0948EB0608ABFB9C
:10035000027C06FB02CC0BFB03CCC01B71EB0C0137
:10036000C1E70B46024641464846BDE8F08B13B54F
:10037000084318BF4FF0FF300146AFF30080BDE8DF
:100380001C4070474FF000020429C0F0128010F0AA
:10039000030C00F01E80CCF1040CBCF1020F18BF5E
:1003A00000F8012BA8BF20F8022BA1EB0C0100F0F4
:1003B00010B85FEAC17C24BF00F8012B00F8012BC4
:1003C00048BF00F8012B70477047704770474FF0E7
:1003D000000200B5134694469646203922BFA0E895
:1003E0000C50A0E80C50B1F12001BFF4F7AF0907A1
:1003F00028BFA0E80C5048BF0CC05DF804EB890092
:1004000028BF40F8042B08BF704748BF20F8022BD4
:1004100011F0804F18BF00F8012B7047754600F0AF
:100420002BF8AE4605006946534620F00700854686
:1004300018B020B5FFF71CFFBDE820404FF00006C4
:100440004FF000074FF000084FF0000BAC46ACE84F
:10045000C009ACE8C009ACE8C009ACE8C00921F0AB
:1004600007018D46704710B50446AFF30080204663
:10047000BDE81040FFF7E7BE0048704710000020BD
:1004800001491820ABBEFEE72600020070470000BD
:10049000014640F2AC00C2F2000000F09BBD00003B
:1004A00080B540F2AC00C2F2000000F0A5FD0438B7
:1004B00018BF012080BD000080B500F00DF80128B4
:1004C0001CBF012080BD40F2AC00C2F20000BDE8BC
:1004D000804000F0A7BD000081B001208DF803002E
:1004E0009DF8030001B0704780B582B09C4613466A
:1004F0000A46014640F2AC00C2F20000CDF800C04E
:1005000000F010FF002818BF012002B080BD0000DD
:1005100080B582B09C4613460A46014640F2AC00C4
:10052000C2F20000CDF800C001F018F8002818BF92
:10053000012002B080BD0000FEE70000704700000F
:1005400040F2A003C2F200035A7A002A1CBF012025
:10055000704780B593F809C08646002003F80C0068
:100560005A7A03EB8202C2F804E05A7A1A441072F3
:1005700093F809C00CF101025A720CF130020A70B2
:1005800042F63A72A1F80120C87080BDB0B50446A9
:1005900000F0EEF8054640F20000C2F200000078DC
:1005A000611C18BF044400BF00F0E2F8401BA042E9
:1005B000FAD3B0BD2DE9F04F82B000F13E4707F10C
:1005C000FF77860546EA972741F60046C4F2020601
:1005D000082243F6004EB04208BF0722C4F2010EC3
:1005E000072F38BF3A46002600274FF00008009238
:1005F00009E000BF08F101080237B8F1100F06F159
:10060000040600F0A3800D68012202FA08F415EA3E
:100610000409EFD0D1F804B003220BF0030CACF1C5
:100620000105BA40012D6FEA020A0FD88268CD6831
:1006300002EA0A02BD402A4382604268A243CBF329
:10064000001404FA08F42243426005E0BCF1030FF1
:1006500002D14FF0030C1EE0C2688C6802EA0A0265
:10066000BC402243BCF1020FC26014D16FF0030200
:1006700002EA58020244D2F820C006F01C040F23FC
:100680000D69A3402CEA0303A5402B431362D1F864
:1006900004B00BF0030C02680CFA07F302EA0A023A
:1006A0001A431BF4403F0260A4D0002243F64403E7
:1006B0000192C4F202031A684FF6084C42F48042D9
:1006C0001A601A68CFF6FF7C02F480420192019A08
:1006D00028F00302724452F80C3006F00C050F2487
:1006E000AC40A343009C04FA05F52B4342F80C30C0
:1006F000DEF808204B6842EA090543F60C4CDC02A0
:1007000058BF22EA0905CEF80850C4F2010CDCF803
:1007100000209C0242EA090558BF22EA0905CCF8EC
:100720000050DEF804209C0342EA090558BF22EA83
:100730000905CEF80450DEF80020DB0342EA090583
:1007400058BF22EA0905CEF8005053E702B0BDE8D1
:10075000F08F0000426902EA0103914341EA03413C
:1007600081617047002A08BF090481617047000059
:1007700040F23010C2F200000068704740F2000002
:1007800040F23011C2F20000C2F2000100780A68A3
:10079000104408607047000080B543F60040C4F282
:1007A0000200016841F400710160016841F4806158
:1007B0000160016841F480710160032000F076F867
:1007C000002000F005F800F027F8002080BD0000B0
:1007D00070B540F20006C2F2000640F20C01327819
:1007E000C2F200014FF47A730968B3FBF2F20446D7
:1007F000B1FBF2F1084600F0CDFF0F2C4FF00105E0
:1008000008D838B94FF0FF3021460022002500F00B
:1008100021F87460284670BD82B0002043F6400184
:100820000190C4F202014A6842F480424A604A6878
:1008300002F480420192019A0090086840F08050D2
:100840000860086800F0805000900098072002B00F
:1008500000F02CB810B54EF60C5CCEF2000CDCF8B3
:100860000030C3F3022E8EF00704042C28BF0424AA
:10087000BEF103034FF0FF3E0EFA04F438BF00232D
:10088000A14399400EFA03F39A43114300F00F027B
:1008900000F160430901043A03F56443624400280F
:1008A00048BF02F10C03197010BD00004EF60C5148
:1008B000CEF200010A684FF6FF031A4060F30A22E5
:1008C00042F0806040F0FD7008607047002804BF6F
:1008D000012070472DE9F04143F60808C4F20208F0
:1008E0000446D8F8F8030D4600F00700884207D206
:1008F00088F8F853D8F8F80300F00700A84277D139
:100900002068810717D5410705D5D8F8001041F4B4
:10091000E051C8F80010010705D5D8F8001041F4DF
:100920006041C8F80010D8F80010A26821F0F0016A
:100930001143C8F80010C00740D1D8F8F80300F000
:100940000700A84207D988F8F853D8F8F80300F050
:100950000700A8424CD12068410707D5D8F80010FD
:10096000E26821F4E0511143C8F80010000708D5EF
:10097000D8F80000216920F4604040EAC100C8F8BE
:10098000000000F055F8D8F8001043F6A852C1F363
:100990000311C0F60002515C40F20C0220FA01F192
:1009A00040F20400C2F200000068C2F200021160CE
:1009B000FFF70EFF0020BDE8F08100BF6068811ED8
:1009C000022907D258F8081C89015CBF0120BDE844
:1009D000F08111E0012807D158F8081C89035CBF99
:1009E0000120BDE8F08107E058F8081C890703D40E
:1009F0000120BDE8F08100BFD8F8001021F003010C
:100A00000843C8F80000FFF7B3FE064641F28837F6
:100A1000D8F80000616800F00C00B0EB810F8CD0BA
:100A2000FFF7A6FE801BB842F2D90320BDE8F08193
:100A300010B543F60404C4F20204606800F00C012F
:100A400042F200400829C0F2F40007D0042918BF80
:100A500010BD41F20020C0F27A0010BD216801F003
:100A60003F02216823684902C3F3881106D4A1FB21
:100A700000010023FFF70EFC07E000BF41F2002059
:100A8000C0F27A004843B0FBF2F021680222C1F3C1
:100A9000014102EB4101B0FBF1F010BD002804BFA1
:100AA000012070472DE9F04182B00446007843F6FA
:100AB0000006C007C4F202060CD0B06800F00C00BB
:100AC000042840F081803068800303D560680028E6
:100AD00000F06A81207880071BD5B06810F00C0FF9
:100AE00009D0B06800F00C00082840F087807068DA
:100AF000400200F183803068800703D5E068012858
:100B000040F052813068216920F0F80040EAC100CD
:100B100030602078000713D4207840072AD4A569D4
:100B2000002D00F03C81B06800F00C00082840F077
:100B3000A180012D40F01081012002B0BDE8F081BC
:100B40006069002840F20000C4F2472000F07E8077
:100B50000121C0F8801EFFF70BFE0546706F80076D
:100B6000DAD4FFF705FE401B0228F7D9032002B0B4
:100B7000BDE8F081306C5FEAC0080AD40020019023
:100B8000306C40F080503064306C00F08050019048
:100B9000019847F20007C4F200073868C00547D43F
:100BA000386840F480703860FFF7E2FD054600BF0A
:100BB0003868C0053CD4FFF7DBFD401B0228F7D99D
:100BC000032002B0BDE8F081B06800F00C000828F6
:100BD00003D1706840023FF576AF6068B0F5803FA2
:100BE00007D0B0F5A02F40F09B80306840F4802003
:100BF0003060306840F4803030609BE0E06800286E
:100C00005CD00020C4F2472001210160FFF7B0FD55
:100C1000054600BF306880073FF574AFFFF7A8FDB9
:100C2000401B0228F6D9032002B0BDE8F08100BFC6
:100C3000A068012805D0052854D1306F40F0040089
:100C40003067306F40F00100306755E00021C0F898
:100C5000801EFFF78DFD0546706F80077FF55CAF46
:100C6000FFF786FD401B0228F6D9032002B0BDE83D
:100C7000F08100BF0027C4F2472700203866FFF745
:100C800077FD022D05460DD13068800140F190803E
:100C9000FFF76EFD401B02284FF00300F4D902B0AD
:100CA000BDE8F0813068800179D5FFF761FD401B18
:100CB00002284FF00300F5D9F1E700BF0020C4F28D
:100CC000472000210160FFF753FD0546306880078B
:100CD0007FF51FAFFFF74CFD401B02284FF00300CC
:100CE000F4D9DCE7316F002821F001013167316F61
:100CF00021F0040131677DD0FFF73AFD054641F24E
:100D0000883700BF306F800700F18680FFF730FD25
:100D1000401BB842F6D9032002B0BDE8F08100BF05
:100D20003168002821F480313160316821F480215C
:100D300031607BD0FFF71CFD054600BF30688003A3
:100D40003FF5C8AEFFF714FD401B6428F6D9032019
:100D500002B0BDE8F08100BF7068E16900F4800274
:100D60008A4221D1216A00F03F028A421CD147F613
:100D7000C071626A0140B1EB821F15D1A16A4FF6C2
:100D8000FF73C903994300F44032A1F580318A42D0
:100D90000AD1E16A00F07060B0EB016F04D100206D
:100DA00002B0BDE8F08100BF012002B0BDE8F081D3
:100DB00004F11C052FCD084340EA8210D9034FF6F9
:100DC000FF729143A1F5803140EA056008437060ED
:100DD00001203866FFF7CCFC044600BF3068800174
:100DE000DDD4FFF7C5FC001B02284FF00300F5D946
:100DF00055E700BFFFF7BCFC054641F2883700BF4E
:100E0000306F800708D5FFF7B3FC401BB8424FF0A6
:100E10000300F5D943E700BFB8F1000F3FF57FAEFF
:100E2000306C20F08050306479E600BFFFF7A0FC02
:100E3000054600BF306880037FF54CAEFFF798FC95
:100E4000401B64284FF00300F4D928E780B5D0E9AF
:100E5000193ED0F844C09A0F0A70C3F383624A70F7
:100E6000C3F301628A701A0CCA701A0A0A714FEA37
:100E70001E524B71CA80CEF303420A72CEF3C032C7
:100E80004A72CEF380328A72CEF34032CA72CEF307
:100E900000320A730022BCF1010F4A7336D0BCF154
:100EA000000F40F0878040F6FC72C36E02EA8E02AB
:100EB00042EA93720A61C26EC2F3C2630B75C2F357
:100EC00002634B75C2F342538B75C2F38243CB75F9
:100ED000C2F3C2330B76D1F810C00B7E0CF1010CBB
:100EE00003F0070302330CFA03FCC0F854C00B7A7A
:100EF00003F00F0E012303FA0EF383655B0A03FB75
:100F00000CF3C3654FF4007312E000BFB0F86E201D
:100F10000EF03F0342EA03420A610A694FF480631C
:100F200003EB82224FF40073C0E91523C265C26E41
:100F30000366C2F380334B76C2F3C61302F07F021E
:100F40008B76CA76006FC20F0A77C0F341724A7778
:100F5000C0F382628A77C0F38352CA77C0F34052EB
:100F600081F820200022C0F3004381F8212081F87D
:100F70002230C0F3C03381F82330C0F3803381F8CE
:100F80002430C0F3403381F82530C0F3003381F8BA
:100F90002630C0F3812381F82730C0F30123C0B28B
:100FA000400881F8283081F82900012081F82A00C2
:100FB000104680BD016840F2FF52C0F240028A63D1
:100FC000816B012241F08051816380F8342010460A
:100FD00080BD000080B500F1440E9EE80C5081E811
:100FE0000C10426DC1E903E2D0E91623C1E90523E3
:100FF000026E0020CA6180BD10B5016D0446006814
:10100000090400F0D9FD28B1A16B0843A0630020BA
:1010100010BD00BF2068002100F000FCC0F3432099
:1010200010BD0000002804BF0120704710B5044621
:1010300090F8340020B900202077204600F020F9F5
:10104000032084F83400204600F00CF800284FF00C
:10105000010018BF10BD0021A163216384F8340092
:10106000002010BDF0B58FB0044600687621002640
:1010700002910021002200230096019600F0D2FB8D
:101080004FF0010510B128460FB0F0BD48F2A0079F
:10109000C4F225273E60206800F0DAFB02203D60A4
:1010A000FFF774FA0496206800F042FC40B1012575
:1010B00084F83450A16B0843A06328460FB0F0BDFC
:1010C000206800F065FC58B120680021A16400F0A0
:1010D0002FFC0028EBD1A06C012803D00AE000BF50
:1010E0000120A0642068002100F0C2FB10B14FF085
:1010F0008050DCE704984FF6FE76B0421ED80025FB
:10110000CCF210152068002100F0B2FB0028CED1EF
:101110002068294600F0B8FB0028E8D120680021AB
:1011200000F07CFB0499013104910499B14202D88A
:10113000B0F1FF3FE6DCC0F3807000E000200499CE
:101140004FF6FF72914203D34FF08070AFE700BFBC
:10115000606420680125ADF80E5000F05BFB88B19B
:10116000606C032812D12068042100F057FB000DA9
:10117000E06404A92046FFF769FE002854D04FF030
:10118000805095E74FF0806092E700BF206800F044
:1011900077FC00287FF48CAF2068002100F03EFB34
:1011A000216860670846042100F038FB2168A067C9
:1011B0000846082100F032FB2168E06708460C2150
:1011C00000F02CFB616CC4F880000329CBD02068B0
:1011D0000DF10E0100F0FCFC00287FF469AF606C9B
:1011E0000328C0D0BDF80E1020682165090400F066
:1011F00095FC00287FF45CAF2068002100F00EFB16
:10120000216860660846042100F008FB2168A0669A
:101210000846082100F002FB2168E06608460C2120
:1012200000F0FCFA20679EE7216D20680A04002385
:1012300000F01AFC00287FF43BAF94E88F00D4E95B
:101240000565CDE90076029500F0ECFA20684FF4D0
:10125000007100F061FB78B1216840F2FF52C0F2EA
:1012600040028A63A16B01250843A06384F83450CF
:1012700028460FB0F0BD00BF002528460FB0F0BDD6
:101280002DE9F04385B0006842F60045C4F201053F
:10129000A84203D005B0BDE8F08300BF002643F6A6
:1012A00030000096C4F2020041696C4641F40061CE
:1012B000416141694FF0020801F400610091009919
:1012C000009601684FF0030941F0040101600168D4
:1012D0000C2701F00401009100990096016841F08B
:1012E000080101600068214600F0080000900098A5
:1012F0004FF48850009005F55C40CDE90186CDF8AB
:101300000C900497FFF756F90420CDE9000805F585
:1013100060402146CDE902690497FFF74BF905B01B
:10132000BDE8F0832DE9F04786B01F4616460D460E
:101330000446FFF71DFA9DB1804694F83400012859
:1013400016D10021A163E06DBA19824218D9A06BB1
:1013500040F00070A063012006B0BDE8F08700BF38
:10136000A06B40F00060A063012006B0BDE8F087EC
:10137000A06B40F00050A063012006B0BDE8F087EC
:10138000032084F83400626C2068012A4FF0FF3299
:10139000C16218BF760200927A024FF002090192F0
:1013A0009022CDE903914FF0010A69460292CDF8EF
:1013B00014A000F01BFA022F18D3C4F83090206854
:1013C000314600F039FBC8B1216840F2FF52C0F24B
:1013D00040028A63A16B0843A0630120002184F8C6
:1013E0003400216306B0BDE8F08700BFC4F830A028
:1013F0002068314600F02CFB0028E5D1DDF838905C
:10140000019E40F22A3A05E0FFF7B2F9A0EB08008E
:10141000484541D22068426B416B12EA0A0F25D140
:101420000904F1D5002EEFD000F018FA28602068EA
:1014300000F014FA6860206800F010FAA8602068D4
:1014400000F00CFAE860206800F008FA28612068D3
:1014500000F004FA6861206800F000FAA8612068D2
:1014600000F0FCF9E8612035203ECDE7022F27D3BC
:1014700011F4807124D0616C032921D000F00EFC9E
:1014800001462068E1B140F2FF52C0F2400282639F
:10149000A06B0843A0E700BF206840F2FF51C0F2F4
:1014A00040018163A06B40F00040A063012084F8FC
:1014B000340000202063032006B0BDE8F08700BFA1
:1014C000416B09075CBF416B5FEA815108D540F26F
:1014D000FF51C0F240018163A06B40F008007BE740
:1014E000416B89071CD4416B890623D42068416B6A
:1014F000890229D546B300F0B1F945F8040B043E42
:10150000FFF736F9A0EB08004845EFD3206840F21A
:10151000FF51C0F240018163A06B40F000405BE7E7
:1015200040F2FF51C0F240018163A06B40F0020025
:1015300052E700BF40F2FF51C0F240018163A06B4F
:1015400040F0200048E700BF40F23A51816301209B
:1015500084F83400002006B0BDE8F0872DE9F04F94
:1015600087B0984615460E460446FFF701F99EB12E
:10157000824694F83400012816D10021A163E06D61
:1015800008EB0502824217D9A06B40F00070A063FF
:10159000012007B0BDE8F08FA06B40F00060A063B1
:1015A000012007B0BDE8F08FA06B40F00050A063B1
:1015B000012007B0BDE8F08F032084F83400626C8E
:1015C0002068012A4FF0FF32C16218BF6D020192FC
:1015D0004FEA482202929022CDE903210591012190
:1015E000069101A900F002F9B8F1020F18D32020EA
:1015F00020632068294600F061FBC8B1216840F2F1
:10160000FF52C0F240028A63A16B0843A06301202D
:10161000002184F83400216307B0BDE8F08F00BFDB
:10162000102020632068294600F054FB0028E5D1F3
:10163000DDF84090029F40F21A3B6D4606E000BF85
:10164000FFF796F8A0EB0A0048455DD22068426B90
:10165000416B12EA0B0F41D14904F1D5002FEFD0B5
:1016600031780091727841EA02210091B27841EA22
:1016700002410091F27841EA02610091294600F0AE
:10168000F1F8716820680091294600F0EBF8B16824
:1016900020680091294600F0E5F8F1682068009183
:1016A000294600F0DFF8316920680091294600F0F2
:1016B000D9F8716920680091294600F0D3F8B16922
:1016C00020680091294600F0CDF8F0692946009085
:1016D0002068203600F0C6F8203FB1E7B8F1020FCD
:1016E00024D311F4807121D0616C03291ED000F045
:1016F000D5FA01462068C9B140F2FF52C0F240025B
:101700008263A06B084381E7206840F2FF51C0F27A
:1017100040018163A06BA063012084F834000020A5
:101720002063032007B0BDE8F08F00BF416B0907BD
:101730005CBF416B5FEA815108D540F2FF51C0F2B6
:1017400040018163A06B40F008005FE7416B8907AF
:101750000CD4416BC90613D440F23A518163012085
:1017600084F83400002007B0BDE8F08F40F2FF514C
:10177000C0F240018163A06B40F0020046E700BF69
:1017800040F2FF51C0F240018163A06B40F01000B5
:101790003CE70000411E0020B0EB116F1CBF012090
:1017A00070474EF21002CEF2000251604EF6235105
:1017B000CEF20001F0230B7007219060116070479A
:1017C000FEE7000010B540F27004C2F2000443F6D8
:1017D0003860611CC0F60000FEF7B2FE207010BD3C
:1017E000FEE70000FEE700007047000080B50246FB
:1017F00091E809505062936208694EEA0C0318435D
:101800004969D36A084323F0F70101430020D162FC
:1018100080BD0000006800F0030070470844406984
:101820007047000010B58446DDE9024011431943BA
:101830002143DDF810E00843DCF8041047F6FF62AE
:1018400040EA0E00914301430020CCF8041010BD83
:101850000146032200200A6070470000D0F8800093
:1018600070470000096802460020C2F880107047E7
:101870008160C36840F2774161F30B03372141F285
:101880008832C36000F032BA41F0004141F4801167
:101890008160C16840F2694262F30B01C16040F2AD
:1018A0000C01C2F20001096844F6D352C1F262028F
:1018B000A1FB0212510A41F2883251436FF0030238
:1018C000514000BF043104BF4FF000407047426BED
:1018D00012F0450F02D012F4006214D0426B12F0E5
:1018E000450F02D012F400620DD0426B12F0450F8A
:1018F00002D012F4006206D0426B12F0450FE1D024
:1019000012F40062DED1416B042211F0040108BF21
:10191000C5228263084670478160C3684FF48A61BC
:1019200061F30B03102141F28832C36000F0DEB98D
:1019300000218160C1684FF4806262F30B01C160D5
:1019400040F20C01C2F20001096844F6D352C1F220
:101950006202A1FB0212510A41F2883251436FF038
:1019600003025140043104BF4FF000407047426B06
:10197000120609D4426B12065CBF426B5FEA026238
:1019800002D4426B1206EDD5C52181630020704759
:101990004FF4D5718160C1684FF4896262F30B0125
:1019A000C16040F20C01C2F20001096844F6D35252
:1019B000C1F26202A1FB0212510A41F28832514384
:1019C0006FF00302514000BF043104BF4FF00040EC
:1019D0007047426B12F0450F02D012F4006214D02F
:1019E000426B12F0450F02D012F400620DD0426B30
:1019F00012F0450F02D012F4006206D0426B12F0D2
:101A0000450FE1D012F40062DED1416B490709D4E1
:101A1000416BC9070AD1416B49064FF0000108D557
:101A2000402205E00422042102E000BF012201213E
:101A300082630846704700008160C36840F25241EB
:101A400061F30B03122141F28832C36000F04EB9FA
:101A50008160C36840F2514161F30B03112141F2EF
:101A60008832C36000F042B98260C36840F24741E7
:101A700061F30B03072141F28832C36000F036B9ED
:101A800000218160C16840F2C24262F30B01C16073
:101A900040F20C01C2F20001096844F6D352C1F2CF
:101AA0006202A1FB0212510A41F2883251436FF0E7
:101AB00003025140043104BF4FF000407047426BB5
:101AC00012F0450F02D012F4006214D0426B12F0F3
:101AD000450F02D012F400620DD0426B12F0450F98
:101AE00002D012F4006206D0426B12F0450FE1D032
:101AF00012F40062DED1416B490707D4416BC9077C
:101B000008D1C52181630020704700BF0421816393
:101B10000846704701218163084670478160C168AB
:101B200040F2C94262F30B01C16040F20C01C2F203
:101B30000001096844F6D352C1F26202A1FB02120D
:101B4000510A41F2883251436FF00302514000BF05
:101B5000043104BF4FF000407047426B12F0450F54
:101B600002D012F4006214D0426B12F0450F02D082
:101B700012F400620DD0426B12F0450F02D012F445
:101B8000006206D0426B12F0450FE1D012F4006201
:101B9000DED1416B490707D4416BC90708D1C52184
:101BA00081630020704700BF0421816308467047AD
:101BB00001218163084670478160C36840F24D414E
:101BC00061F30B030D2141F28832C36000F08EB83F
:101BD00000228260C26840F2434363F30B02C2609A
:101BE00040F20C02C2F20002126844F6D353C1F272
:101BF0006203A2FB03235A0A41F288335A436FF06F
:101C000003035A40043204BF4FF000407047436B57
:101C100013F0450F02D013F4006314D0436B13F09C
:101C2000450F02D013F400630DD0436B13F0450F42
:101C300002D013F4006306D0436B13F0450FE1D0DC
:101C400013F40063DED1426B52071BD4426BD20700
:101C50001CD10269D2B2032A1CBF01207047C522E1
:101C60008263406910F4604F14D0410444BF4FF4C4
:101C70000050704700044FF4805158BF4FF480313A
:101C8000084670470421816308467047012181633B
:101C900008467047000C08800020704700218160D2
:101CA000C36840F24C414EF2001261F30B03C0F2E4
:101CB000F5520C21C36000F019B800008160C368C0
:101CC00040F2594161F30B03192141F28832C3609C
:101CD00000F00CB88160C3684FF48B6161F30B03B3
:101CE000182141F28832C360AFF3008040F20C0348
:101CF000C2F20003D3F800C044F6D353C1F262032A
:101D0000ACFB033C03464FEA5C205043002800F044
:101D10009D805A6B12F0450F02D012F400621DD064
:101D2000012800F093805A6B12F0450F02D012F494
:101D3000006213D0022800F089805A6B12F0450F20
:101D400002D012F4006209D00438421C7ED05A6BD3
:101D500012F0450FDAD012F40062D7D1586B400769
:101D600042BF042098637047586BC0071EBF012014
:101D700098637047C52098631869C0B288421CBF39
:101D80000120704758694EF20801CFF6FF51084212
:101D900004BF00207047002844BF4FF00070704718
:101DA000410044BF40207047810044BF80207047FD
:101DB000C10044BF4FF480707047010144BF4FF42D
:101DC00000707047410144BF4FF480607047C1010B
:101DD00044BF4FF400607047010244BF4FF480508D
:101DE0007047410244BF4FF400507047810244BF26
:101DF0004FF480407047C10244BF4FF40040704729
:101E0000410344BF4FF400307047810344BF4FF497
:101E100080207047C10344BF4FF400207047010485
:101E200044BF4FF480107047410444BF4FF400108A
:101E30007047810444BF4FF48000704700074FF49F
:101E4000000058BF4FF48030704700BF4FF0004093
:101E500070470000B0B540F20804C2F2000401254A
:101E60002570FEF729FB08B12078B0BD2570FEF77C
:101E700017FB18B1207820702078B0BD207800F0D2
:101E8000FE002070207820702078B0BD10B588B09A
:101E900040F20800C2F200000078C00710D1032908
:101EA00012D814460020DFE801F01003131B00BF16
:101EB0006846FEF7EDFA06982060002008B010BDD5
:101EC000032008B010BD00BF042008B010BD00BF43
:101ED0006846FEF7DDFA07982080002008B010BDA4
:101EE0006846FEF7D5FA0798400A2060002008B03F
:101EF00010BD000080B5084611461A464FF0FF336A
:101F0000FEF7F2FA00281CBF012080BDFEF7C8FAD8
:101F10000028FBD1002080BD10B540F20804C2F2B9
:101F2000000401202070FEF7BBFA08B1207810BD34
:101F3000207800F0FE002070207810BD80B50846A3
:101F400011461A464FF0FF33FEF7E2FA00281CBF95
:101F5000012080BDFEF7A4FA0028FBD1002080BD3F
:101F600070470000FEF70ABC4EF68850CEF2000023
:101F7000016841F47001016070470000FEE7000055
:101F80002DE9F04F81B0D0F800808946064659B15E
:101F90004046494601F052FC022813D20124204653
:101FA00001B0BDE8F08F00BFD8F80CA0BAF1000F67
:101FB00003D0D8F8140082450CD308F1140B4FF06D
:101FC000010A0CE00446013022D0D8F81400CA46B9
:101FD000844239D3BAF1020F08F1140B1ED20AF170
:101FE00001050027DBF80000E91981420AD23068B8
:101FF00001F024FC0446013026D04CB3012C23D040
:102000000137EFD30024204601B0BDE8F08F00BFB8
:102010004FF0FF34204601B0BDE8F08F574600BFB7
:10202000DBF8000001378742306828BF02273946B5
:1020300001F004FC0446013006D06CB1012C03D041
:1020400057454FF00004EBD1204601B0BDE8F08FBA
:102050000AEB0700441C00E03C46404621464FF096
:10206000FF3201F075FDB9F1000F05D020B94046EF
:102070004946224601F06CFD40B10124012808BF09
:102080004FF0FF34204601B0BDE8F08FD8E90401DD
:10209000C8F80C40023988429CBF0138C8F81000CB
:1020A00098F8040040F0010088F80400204601B0D0
:1020B000BDE8F08F2DE9F04F81B00446C0690425DA
:1020C000B8B10F4661694FF6FF72C0F21F0201F10D
:1020D000200696420DD8B246D4F800906FF35F2ADE
:1020E000BAF1000F0AD009EB0A00303066612062B5
:1020F0000025E8B201B0BDE8F08F00BFA169013052
:10210000E06189B1B9F80A00104400F5C00010EA96
:10211000562FE8D1484601F091FB022810D2022543
:10212000E8B201B0BDE8F08FB9F80800B0EB561F77
:10213000D9D80020E061E8B201B0BDE8F08F00BF5F
:102140008046013038D0D9F8140080450ED2A8F16D
:10215000020B02388345C4F818806AD2B9F80A0025
:10216000D9F828100BFB001064E000BFC7B1A169CB
:102170002046FFF705FF80460130032818D24FF6AE
:10218000F871C0F2FF0101EAC00040F20171C0F233
:10219000020121FA00F5E8B201B0BDE8F08F00BFFE
:1021A0000020E0610425E8B201B0BDE8F08F00BF77
:1021B000484601F0BFFD28B10125E8B201B0BDE8F5
:1021C000F08F00BF09F130004FF40071FEF7DAF82C
:1021D000D9F81400A8F1020B811EB9F80A208B452A
:1021E00004D2D9F828100BFB021100E000214FF0B7
:1021F0000007C9F82C10A2B10125484689F8035000
:1022000001F098FD00287FF474AFD9F82C00B9F8DC
:102210000A200137411C9742C9F82C10EDD3D9F898
:102220001400C91BC9F82C1002388345C4F8188063
:1022300094D30020E06156E7B0B581680568044694
:1022400000206061D1B1688960B16B698A1E023B70
:102250009A4239D2AB6A02FB0030C4E90610D0B909
:1022600030E000BF206801F0E9FA0146013031D0CA
:10227000022927D368698142F4D323E02878032810
:1022800002D3696A0029DED12889D8B1686A0021A1
:10229000C4E90610B0B105F130002062E1692846BA
:1022A00001F016FCB0B9206A0078A8B1E52813D077
:1022B00020460121FFF7FEFE0028EFD0042808BFCA
:1022C0000720B0BD0220B0BD0020C4E906100220E6
:1022D000B0BD00BF0120B0BDE169284601F0F8FBA8
:1022E00000284FF0010018BFB0BD216A0022CA616A
:1022F0008A614A610A61CA608A604A600A60216A2A
:1023000094F824200A7094F825204A7094F8262026
:102310008A7094F82720CA7094F828200A7194F8DB
:1023200029204A7194F82A208A7194F82B20CA71C6
:1023300094F82C200A7294F82D204A7294F82E20DA
:102340008A72E8700020B0BDB0B540F2A005C2F2BC
:1023500000050446285C08B10020B0BD05EB8400F0
:10236000406801682819007A8847002818BFB0BD66
:10237000012028550020B0BD40F2A00CC2F2000C94
:102380000CEB80035B686044007A1B69184700000F
:1023900080B540F2A00CC2F2000C0CEB800EDEF80F
:1023A00004E06044007ADEF808C0BDE88040604781
:1023B00040F2A001C2F2000101EB80025268084421
:1023C000007A51680847000080B540F2A00CC2F2C4
:1023D000000C0CEB800EDEF804E06044007ADEF8BE
:1023E0000CC0BDE88040604710B5044600F092FA8A
:1023F000002818BF10BD4CB3206838B3017829B34A
:10240000A188C288914221D14078FFF7D1FFC0074F
:102410001CD120690138012884BF022010BD40F280
:102420007801C2F2000101EB0010B0F91410012391
:102430008AB2B2F5807218BFD1FA53F211048282C7
:1024400004BF002181600020206010BD092010BD64
:1024500010B582B0009129B34FF0FF3E01EB0E0C96
:102460009CF80130212B21D33A2B1FD09CF802304D
:10247000212B27D33A2B25D09CF80330212B39D39D
:102480003A2B37D09CF804400EF1040EA4F13A0325
:10249000B3FA83F34FEA531C212C1AD33A2CDDD123
:1024A00017E000BF0B21084602B010BD3A3BB3FA5B
:1024B00083F34FEA531C0EF1010EBCF1000F0BD158
:1024C00022E000BF3A3BB3FA83F34FEA531C0EF10C
:1024D000020EBCF1000F17D00978A1F13003092BCF
:1024E00034D8BEF1010F4FF00B0108BF002BDAD139
:1024F0000AE000BF3A3BB3FA83F34FEA531C0EF1F4
:10250000030EBCF1000FE7D140F27803C2F20003E2
:10251000596859B19C688C4204BF00249C609C6936
:102520008C4204BF00249C6100240C70002188B1FF
:10253000012A01705860B6D1684601A9002200F056
:10254000D3FB0146084602B010BD00BF0B21084670
:1025500002B010BD5960084602B010BD2DE9F04F21
:102560008FB00E9190B102F03F0A154681460EA839
:1025700001A9524600F0B8FB074668B10020C9F82F
:10258000000038460FB0BDE8F08F00BF092738467D
:102590000FB0BDE8F08F00BFDDF804800E9902A8EF
:1025A000CDF8088000F032FE074698B11AF01C0FF3
:1025B00050D0002F55D0042F6ED140F27800C2F2D7
:1025C00000008168002963D08069002860D012274C
:1025D00062E000BF9DF9370000282FD440F2780058
:1025E000C2F200008168029A61B191420AD1C368C7
:1025F000049EB34206D10369079EB34202D1002173
:102600000DE000BF83694BB393421DD1C269049BA7
:102610009A4219D1026A079B9A4215D1012115F0FD
:102620003E0F05D100EB0110808AB0F5807FBDD14F
:102630001AF01C0F4FF010072ED10BE01AF01C0FF0
:102640004FF0060728D105E041B11AF01C0F4FF0FA
:10265000120721D1002F7FF491AF0BE01AF01C0F6D
:1026600008D09DF80E0010F0110F0DD1082000EADF
:10267000450713E09DF80E00C10607D45FEA8A7192
:1026800078D510F0010075D0072777E7042775E7A4
:1026900002A8FFF7D1FD07464AF0080A002F66D1CD
:1026A0001AF0080063D001F041F90A99020A887310
:1026B000030C070E88752020CA730B744F74CA75FB
:1026C0000B764F76C87298F80000B1F81AB003285C
:1026D00005D1087D4A7D000440EA02608344002061
:1026E000488398F80020032A08BF8882C861012027
:1026F000BBF1000F88F803003CD0BBF1010F00F0E4
:102700000381029D6869584540F2FE80D8F82C404C
:102710005F4602E08642374620D22846394601F01D
:102720008DF80646013000F0F180BEB1012E00F0B8
:10273000EB8028463946002201F00AFA002840F0D2
:10274000E780D5E90410821E9142E3D22A79013153
:10275000296142F001012971DCE700BF40462146B2
:1027600001F0B6F90746ABF10100C8F80C00002FE4
:102770007FF404AF40F27801C2F20001029A8B6844
:10278000D8F82C700A989342C9E909700AD1CF6829
:10279000049EB74206D10F69079EB74202D10023BB
:1027A0001DE000BF8E6996420AD1CF69049DAF42F9
:1027B00006D10F6A079DAF4202D101230FE000BF8F
:1027C0004FF0000713B1C6B9012300E00023049DB8
:1027D000079C01EB0316C6E902253461B7820AF0B3
:1027E000080201EB03114AEAC20231F8147F022AFF
:1027F00002D2013708E000BF27B10020C9F810005D
:102800000227BBE64FF480770F80591CC9F81010DF
:1028100098F80010458B032905D1017D437D0904FB
:1028200041EA03610D44C9F80850C4690027C9F89A
:102830000C40C9F82C70C9F80080B8F8060009F1FE
:10284000300BA9F8040058464FF4007189F81420A1
:1028500089F81570C9F82070C9F81870FDF792FD55
:102860005FEA8A607FF58DAE002C3FF48AAEC9F82E
:102870001840B8F80A00B4EB402F21D94FEA402A9B
:10288000D9F800002946264600F0D8FF0546022860
:102890004FF0000038BF01204700681C08BF012727
:1028A000A4EB0A040FB95445EAD8C9F81C5017B96B
:1028B0006FF35F2646B9002F7FF460AE1FE000BFC4
:1028C000E005C9F81C501AD0D8F81410A81E023917
:1028D000884219D2B8F80A10D8F8282000FB012045
:1028E00090B100EB5422C9F8202098F80100594615
:1028F00001230127FFF74CFD00287FF43FAE00279E
:1029000038460FB0BDE8F08F022737E6012735E6DD
:10291000074633E670B5002848D004460068002812
:1029200044D00178002941D0A188C28891423DD18C
:102930004078FFF73DFDC00738D1207D41065CBFE0
:10294000002070BD256840B2B0F1FF3F32DD00F0DD
:10295000EDFF616A0646284601F0BAF800281CBF60
:10296000012070BDA06AC17A41F02001C172A16846
:10297000226841831278032A03D10A0C090E0275DA
:102980004175E1688675C161310AC175310C017606
:10299000310E4176002141820120E870284601F085
:1029A00063F9217D01F0BF01217570BD0926304614
:1029B00070BD00BF6878226A04F13001012301264E
:1029C000FFF702FD0028F2D1207D00F07F00207586
:1029D000BDE700002DE9F04F81B0044600201860EB
:1029E000A4B1206890B18B46017879B11646A188D0
:1029F000C28891420AD140781D46FFF7D9FCC00732
:102A000004D1607D30B101B0BDE8F08F092001B084
:102A1000BDE8F08F207D800704D4072001B0BDE819
:102A2000F08F00BFA169C843B04238BF0646002EF0
:102A300000F04681D4F800E004F13008CDF800E061
:102A400013E000BF217D41F080012175A169E2689A
:102A50000144914288BF0A46E2602A6883440244E6
:102A6000361AA1612A6000F02B810A466FF35F22BB
:102A7000A2B1C2F50070B04228BF304610F0030189
:102A800008EB020342D0DC461CF8017B1A46012900
:102A900002F8017B3ED1411E13464CE0BEF80A000D
:102AA000013810EA512740F08080002958D0E36AAD
:102AB000002B5BD05A68002A00F002812068490A86
:102AC0004089B1FBF0F003F12401904256D351F854
:102AD000183C002B00F0F480801A984250D351F833
:102AE000102C002A00F0EC80C01A90424AD351F812
:102AF000083C002B00F0E480801A984244D351F83F
:102B0000202BC01A002AE0D1DAE000BF0146DC46E3
:102B100011E000BF9BF8012002295A7004D10BF18B
:102B2000020C0233811E06E09BF802100BF1030C2D
:102B300099700333C11E0428FFF484AF1A1FACF14F
:102B4000040300BF13F8047F043902F8047F5F78A0
:102B500057709F789770DF78D770F3D172E700BF16
:102B6000A068A0B92046002102E000BFE16920462C
:102B7000FFF706FADDF800E009E000BF1C3904E0C9
:102B8000143902E00C3900E0043909680844411C9A
:102B900000F0A480002800F09380012800F09880C5
:102BA000A168E061002908BFA06094F91400B0F1A9
:102BB000FF3F0FDC9EF80100226A41460123FFF728
:102BC00003FC002840F08A80207DDDF800E000F062
:102BD0007F002075E069DEF814100238023988425F
:102BE00076D2BEF80A10DEF8282000FB012000286B
:102BF0006ED05FEA562900EB070A49D007EB0900BF
:102C000088429EF8010088BFA1EB07095946524649
:102C10004B46FFF7D9FB002860D1206ADDF800E0C1
:102C2000A0EB0A0048452FD20BEB4020002100BF4B
:102C3000425C431808F801205F7808EB01025770E6
:102C40009F7810319770DF78B1F5007FD7701F79CA
:102C500017715F7957719F799771DF79D7711F7AF3
:102C600017725F7A57729F7A9772DF7AD7721F7BDB
:102C700017735F7B57739F7B9773DB7BD373D7D1BE
:102C8000207D00F07F0020754FEA4920DEE600BF7E
:102C9000206AA26950450DD0E06882420AD29EF8AF
:102CA0000100414652460123FFF772FBB0B9A26909
:102CB000DDF800E06FF35F22C4F820A0D9E600BF82
:102CC000207D40F040002075002001B0BDE8F08F6D
:102CD0000220607501B0BDE8F08F00BF0120607573
:102CE00001B0BDE8F08F00002DE9F0470346002059
:102CF00008601F68002F45D015464FF0FF3200BF17
:102D0000B8184678212E19D33A2E17D08678212E5E
:102D10001CD33A2E1AD0C678212E1FD33A2E1DD09E
:102D200006790432A6F13A00B0FA80F04009212E6B
:102D300001D33A2EE4D160B317E000BFA6F13A0008
:102D4000B0FA80F04009013278B922E0A6F13A00E9
:102D5000B0FA80F040090232D8B106E0A6F13A009C
:102D6000B0FA80F04009033298B13878A0F130060B
:102D7000092E07D8012A4FF00B0008BF002E05D0FE
:102D8000BDE8F0870B20BDE8F08700BFB818013020
:102D9000186040F27806C2F200067468002C00F059
:102DA000058120780C6088B16078FFF701FB01464F
:102DB000C0070BD115F0FE004FEA41714FF00A0237
:102DC00018BF02EAE170BDE8F08700BF0020208054
:102DD000FFF7BAFAC1071CBF0320BDE8F08715F062
:102DE000FE0F1EBF10F004000A20BDE8F08700208F
:102DF000E0704FF0FF30E0622046002100F068FEF6
:102E000000281CBF0120BDE8F087B4F82E024AF666
:102E1000552A504540F0F68194F83000E92807D053
:102E2000EB2840F0C78094F83200902840F0C28030
:102E300094F8672094F8683094F86610120244F20F
:102E4000461042EA0342C0F254001144814206D0C7
:102E5000D4F8821000F14C50814240F0AB80002742
:102E6000B4F83B00B0F5007F1CBF0D20BDE8F08733
:102E7000B4F84600002808BF606D94F84030A061A7
:102E8000591E0129A37000F2BD8194F83D20511E06
:102E90001140B2FA82F518BF01216D092943628100
:102EA00040F0B08194F8415094F8421045EA012175
:102EB0002D07218140F0A681B4F84350002D08BFB2
:102EC000256DB4F83E90B9F1000F00F09B8100FB36
:102ED00003FE0EEB11134B449D42C0F09381ED1A9B
:102EE0009542C0F08F81B5FBF2F24FF6F6754FF0C8
:102EF0000308AA4240F6F57538BF4FF00208AA420F
:102F000098BF4FF0010802F1020C07EB09053B44A2
:102F1000B8F1030FC4F814C0C4E90775A36240F008
:102F20003F81B4F85A2011431CBF0D20BDE8F08743
:102F300040F2FF12E16D02EB8C02B0EB522F6162A6
:102F40003CBF0D20BDE8F0874FF0FF30C4E903001F
:102F5000B4F8600080210128217140F04081791C83
:102F6000204600F0B5FD002840F03981B4F82E026B
:102F700000215045217140F03281206B45F25221F1
:102F8000C4F26111884240F02A81D4F8140247F259
:102F90007221C6F24111884240F02181D4F8180212
:102FA000D4F81C12C4E9031019E100BF0C20BDE8DD
:102FB000F08700BF94F8F201002814BFD4F8F6712E
:102FC000002794F80202002814BFD4F80652002506
:102FD00094F81202002814BFD4F816924FF000099A
:102FE00094F82202002814BFD4F826824FF000087B
:102FF0007FB30020E0704FF0FF30E062204639469A
:1030000000F066FD28BBB4F82E02504521D194F89B
:103010003000E92805D0EB281BD194F83200902825
:1030200017D194F8672094F8683094F8661012026B
:1030300044F2461042EA0342C0F254001144814275
:103040003FF40EAFD4F8821000F14C5081423FF4AF
:1030500007AF8DB30020E0704FF0FF30E0622046F4
:10306000294600F035FD38BBB4F82E02504523D177
:1030700094F83000E92805D0EB281DD194F83200EF
:10308000902819D194F8672094F8683094F8661065
:10309000120244F2461042EA0342C0F254001144C4
:1030A000814201D12F46DBE6D4F8821000F14C506A
:1030B00081422F463FF4D4AEB9F1000F32D0002048
:1030C000E0704FF0FF30E0622046494600F000FD1E
:1030D00040BBB4F82E02504524D194F83000E928C2
:1030E00005D0EB281ED194F8320090281AD194F81C
:1030F000672094F8683094F86610120244F2461083
:1031000042EA0342C0F254001144814202D14F46C8
:10311000A6E600BFD4F8821000F14C5081424F4621
:103120003FF49EAEB8F1000F6CD00020E0704FF07D
:10313000FF30E0622046414600F0CAFC00281CBF78
:103140000120BDE8F087B4F82E0250455AD194F81A
:103150003000E92805D0EB2854D194F832009028AB
:1031600050D194F8672094F8683094F866101202F1
:1031700044F2461042EA0342C0F254001144814234
:1031800002D147466CE600BFD4F8821000F14C50E3
:10319000814247461CBF0D20BDE8F08760E600BFB6
:1031A00081B30CEB4C0302F0010707EB5303A2F6CB
:1031B000F672B2F5704F38BF4FEA4C0303F2FF12BC
:1031C00005EB0E01B0EB522F61623CBF0D20BDE854
:1031D000F0874FF0FF30C4E9030080202071308871
:1031E000B168013084F800803080A142E08004BFE3
:1031F0000020B060B069A0424FF0000008BFB0618D
:10320000BDE8F0870D20BDE8F08700002DE9F04F04
:1032100083B0D0F8008004460D4600E004352878DD
:103220005C2801D02F2814D168785C2801D02F2881
:103230000CD1A8785C2801D02F2809D1E8785C2827
:10324000ECD02F28EAD0033503E000BF013500E0C1
:1032500002350022A2602878202835D2802084F808
:103260002F0098F8000062610328C0F0A382D8F80C
:103270002410002900F09E82B8F80A00D0B1D8F8D6
:1032800014308A1E023B9A4280F0B882D8F8283067
:1032900002FB00300028C4E9061040F09482B0E23E
:1032A0000229C0F0AE82D8F8140081424FF002002B
:1032B00080F09182206800F0C1FA01460130EFD120
:1032C000012003B0BDE8F08F04F1240A08F1300CAE
:1032D00004F12C0B4FF020304FF00009CAF8070022
:1032E000CAF80400CAF800002878212828D201274B
:1032F00004200026002E00F06D829AF80010E529C7
:1033000004BF05218AF800102668B9F1000F84F87F
:103310002F00626100F0A6807089002800F06682AC
:103320007369A9F10201023B994280F07B82B36A82
:1033300001FB00310029C4E9069140F0A88060E259
:103340006B1C00260EE000BFA0F16101C9B21A2972
:1033500038BF20380AF80600985D711C21280E46F7
:10336000C0F0DE81C7B22E2F00F032812F2F00F087
:103370002D815C2F00F02A81082E00F02A8141B2B5
:10338000B1F1FF3F06DC43F6B850C0F60000384408
:1033900010F8800C6FF0210151FA80F15D29D3D82B
:1033A000DFE811F018025E005E005E005E005E0065
:1033B0005E005E001802180218025E005E005E00E9
:1033C0005E005E005E005E005E005E005E005E000D
:1033D0005E005E0018021802180218021802180295
:1033E0005E005E005E005E005E005E005E005E00ED
:1033F0005E005E005E005E005E005E005E005E00DD
:103400005E005E005E005E005E005E005E005E00CC
:103410005E005E005E0018025E0018025E005E0044
:103420005E005E005E005E005E005E005E005E00AC
:103430005E005E005E005E005E005E005E005E009C
:103440005E005E005E005E005E005E005E005E008C
:103450005E005E005E005E0018025E005E00180204
:1034600072E700BF3078032805D3D6F82490B9F16D
:10347000000F7FF451AF3089002800F0C281716ADB
:103480004FF000090029C4E9069100F0BA8106F165
:10349000300020623046CDE901BC00F019FB002865
:1034A0007FF40EAF3D4411E03889B0EB591F40F274
:1034B000AD8100BF07EB0B00303020623046C4F80E
:1034C000149000F005FB00287FF4FAAE216A08781A
:1034D000002800F09D81C87A00F03F02A271CA7AEC
:1034E000120737D40A789AF800309A4232D14A78D3
:1034F00094F825309A422DD18A7894F826309A4251
:1035000028D1CA7894F827309A4223D10A7994F8BE
:1035100028309A421ED14A7994F829309A4219D11A
:103520008A7994F82A309A4214D1CA7994F82B30C7
:103530009A420FD10A7A94F82C309A420AD14A7AE8
:1035400094F82D309A4205D1897A94F82E20914230
:1035500000F01081E169002900F05A81606900F1F2
:1035600020094FF6FF70C0F21F00814500F2508124
:10357000CB4627686FF35F2BBBF1000F9AD1A2698E
:103580000131002AE1618FD078894FF6FF73C0F2D4
:103590001F03184400F5C00010EA592F7FF48AAFCA
:1035A0003846114600F04AF90228C0F02A81411C31
:1035B0003FF486AE7969884280F028817989BA6AB9
:1035C000831E03FB0121C4E9060173E7771CB4E005
:1035D0002E20C0B22E2840F0FD80A8194778212F58
:1035E00004D2B71C0420082684E600BFCDF808C02A
:1035F00000F1020C0023F8B22E2800F0EB802F28F7
:1036000000F092805C2800F08F80032B00F0E280B5
:1036100079B2B1F1FF3F06DC43F6B851C0F60001C4
:10362000084410F8807C6FF0210050FA87F15D2982
:1036300000F262800620DFE811F0CE005F005F003C
:103640005F005F005F005F005F00CE00CE00CE0035
:103650005F005F005F005F005F005F005F005F0072
:103660005F005F005F005F005F00CE00CE00CE0015
:10367000CE00CE00CE005F005F005F005F005F0005
:103680005F005F005F005F005F005F005F005F0042
:103690005F005F005F005F005F005F005F005F0032
:1036A0005F005F005F005F005F005F00CE005F00B3
:1036B000CE005F005F005F005F005F005F005F00A3
:1036C0005F005F005F005F005F005F005F005F0002
:1036D0005F005F005F005F005F005F005F005F00F2
:1036E0005F005F005F005F005F005F005F00CE0073
:1036F0005F005F00CE0000BFA7F16100C0B21A28D2
:1037000038BF203F0BF803701CF803700133212FE2
:10371000BFF471AFF018DDF808C0871C0420ECE599
:103720004F1C0420E9E500BFF018DDF808C0871C35
:1037300003F1080601E000BF0437E85D5C2801D012
:103740002F2814D1E81941785C2901D02F290BD1F9
:1037500081785C2901D02F2908D1C0785C28EBD072
:103760002F28E9D0033702E0013700E002370020BC
:10377000C0E500BF94F82F10490727D4C00659D5DB
:10378000606902996FF35F20084498F80010B0F860
:103790001A90032905D1017D407D090441EA0060AA
:1037A0008144DDE901BCC4F8089000224FF02030CC
:1037B00094E500BFB8F8080018B3D8F82400002139
:1037C000C4E90610E8B108F130002062002003B01F
:1037D000BDE8F08F062003B0BDE8F08FB9F1020F0D
:1037E0000FD3706981454FF00200F4D2206849463A
:1037F00000F024F881460130F0D161E50020C4E9F1
:103800000610022003B0BDE8F08F00BF0020E06189
:1038100094F82F0040074FF0040058BF052003B074
:10382000BDE8F08F0020C4E90690022003B0BDE897
:10383000F08F00BF052003B0BDE8F08F02293CBF28
:1038400001207047F0B581B0054640690C468842BA
:1038500014D92878032815D002281FD001280DD1AB
:10386000286A04EB540700EB5721284600F030F992
:1038700000B34FF0FF3001B0F0BD00BF012001B038
:10388000F0BD00BF286A00EBD411284600F020F9F3
:1038900010B34FF0FF3001B0F0BD00BF286A00EB5D
:1038A0001421284600F014F950B34FF0FF3001B056
:1038B000F0BD00BF7E1C6FF35F27296AE81990F8FE
:1038C000307001EB5621284600F002F9F0B14FF0BC
:1038D000FF3001B0F0BD00BF04F07F0005EB8001B8
:1038E00091F8323091F8300091F8312091F833108E
:1038F0001B0243EA0141114461F31B2001B0F0BDFA
:10390000E0B205EB4000008E01B0F0BD6FF35F2622
:10391000A81990F83000E20747EA002108466FF343
:103920001F3018BF080901B0F0BD0000002070472B
:10393000ADF5906D43F6300540F60044C4F2020543
:10394000C4F20204FCF728FF00269996CDE9976699
:10395000CDE995660C96CDE90A66CDE90866009634
:10396000286940F080502861286900F0805000905C
:10397000009846F200400096CFF6FE70215841F4C0
:10398000804121502058012100F48040009000988F
:10399000979110219891082102209C9132219490B6
:1039A000CDE99A06CDE99D1007209F9094A8FDF7D8
:1039B00075F818B172B600BFFEE700BF0F20CDE961
:1039C000080608A80021CDE90A660C96FCF77EFFE0
:1039D00010B172B6FEE700BF0026989608962868D8
:1039E0004FF4405140F0080028602868002200F0A1
:1039F0000800089008980896286840F0040028609D
:103A000028684FF4405500F00400089008982046BC
:103A1000FCF7A8FE0120CDE9950694A920469495CF
:103A20009796FCF7C7FD40F2AC01A4F56040C2F2E6
:103A30000001C1E90006C1E90266C1E904668E61C0
:103A4000FDF7C0FE40F27101C2F2000194A801220C
:103A5000FEF7FEFCD0BB20464FF48051FCF77AFE07
:103A600045F25840069043F24510C5F22E400590AD
:103A700045F25720C5F2494008AD049004A92846F4
:103A80000A22FEF76BFD46F67240C0F26400029017
:103A900042F26F00C6F65770019046F24850C6F6E3
:103AA0006C400090694607AB28460D220396FEF74E
:103AB00091FF2846FEF798FC4FF47A70FCF766FDFC
:103AC00020464FF40051FCF745FE00BFFEE7000022
:103AD0002DE9F041C66A8E4204BF0020BDE8F081A6
:103AE0000446C0780D4610B3607804F130084146B2
:103AF000324601230127FEF767FC18B13846BDE8BE
:103B0000F08100BF216AA269711A00209142E07021
:103B10000DD2A778022F0AD3A16960780E444146DE
:103B200032460123FEF750FC013F012FF4D86078A4
:103B300004F130012A460123FEF72AFC074600283B
:103B40001CBF4FF0FF350127E5623846BDE8F08124
:103B50002DE9F047022921D3054640690E468842E7
:103B60001CD92878144603281CD002283AD00128F2
:103B700014D1286A06EB560700EB57212846FFF7B9
:103B8000A7FFB0BB05F1300807F101095FEAC67A6B
:103B90006FF35F273CD1E0B240E000BF0220BDE8F8
:103BA000F08700BF286A00EBD6112846FFF790FF88
:103BB000F8B906F07F0005EB800090F8331004F0B0
:103BC000706201F0F00142EA0161220A80F83120BE
:103BD000220C090E80F8304080F8322080F8331033
:103BE0000EE000BF286A00EB16212846FFF770FFA1
:103BF00010B10120BDE8F087F0B205EB400004866B
:103C0000EF1C0120002638703046BDE8F08700BF69
:103C100018F8070000F00F0064F30B1008F8070015
:103C2000286A01262F4600EB5921284607F8036F22
:103C3000FFF74EFF10B13046BDE8F087BAF1000F34
:103C40006FF35F290AD118F80900C4F3032100F0CB
:103C5000F000084408F80900D3E700BFC4F30710D8
:103C600008F80900CDE70000F0B581B00446C0783F
:103C700018B3E56A607804F1300631462A4601231C
:103C80000127FEF7A1FB18B1384601B0F0BD00BF17
:103C9000216AA269691A00209142E0700DD2A778CA
:103CA000022F0AD3A16960780D4431462A460123C8
:103CB000FEF78AFB013F012FF4D8207803282DD18D
:103CC000207901282AD104F134004FF4FD71FCF76A
:103CD00059FB45F25220C4F26110254645F8300FD9
:103CE0004AF65520A5F8FE0147F27220C6F24110AF
:103CF00055E90921C5F8E40155F8140CC5F8EC2183
:103D0000421C15F82F0CC5F8E8112946012345F887
:103D1000042CFEF759FB002005F82C0C60780021DC
:103D20000022FEF729FB0746002818BF0127384666
:103D300001B0F0BDF0B581B00446C07818B3E56AB3
:103D4000607804F1300631462A4601230127FEF748
:103D50003BFB18B1384601B0F0BD00BF206AA16935
:103D6000281A00278842E770F4D2A778022F0AD3D6
:103D7000A16960780D4431462A460123FEF724FBF1
:103D8000013F012FF4D80027384601B0F0BDF1EE15
:103D9000100A4FF6FF71C0F2C03120EA010040F076
:103DA0004070E1EE100A70470000000000000000C3
:103DB00001020304060708094355454141414143B7
:103DC00045454549494941414592924F4F4F5555C7
:103DD000594F554F9C4F9E9F41494F55A5A5A6A7AA
:103DE000A8A9AAABACADAEAFB0B1B2B3B44141413A
:103DF000B8B9BABBBCBDBEBFC0C1C2C3C4C54141D6
:103E0000C8C9CACBCCCDCECFD1D14545454949490A
:103E100049D9DADBDCDD49DF4FE14F4F4F4FE6E8B0
:103E2000E85555555959EEEFF0F1F2F3F4F5F6F780
:103E3000F8F9FAFBFCFDFEFF551E0008191F0008EB
:103E4000F51E00083D1F00088D1E0008703E00088A
:103E50000000002010000000EC010008803E000877
:103E600010000020280700000C02000800000000DD
:103E70000100000010000000010000000024F40018
:040000050800018965
:00000001FF
