:020000040800F2
:10000000C806002055020008F91200082511000852
:10001000F51200084D0400081D1300080000000040
:1000200000000000000000000000000001130008B4
:100030005104000800000000FD120008051300082C
:100040006F0200086F0200086F0200086F020008CC
:100050006F0200086F0200086F0200086F020008BC
:100060006F0200086F0200086F0200086F020008AC
:100070006F0200086F0200086F0200086F0200089C
:100080006F0200086F0200086F0200086F0200088C
:100090006F0200086F0200086F0200086F0200087C
:1000A0006F0200086F0200086F0200086F0200086C
:1000B0006F0200086F0200086F0200086F0200085C
:1000C0006F0200086F0200086F0200086F0200084C
:1000D0006F0200086F0200086F0200086F0200083C
:1000E0006F0200086F0200086F0200086F0200082C
:1000F0006F0200086F0200086F0200086F0200081C
:100100006F0200086F0200086F0200086F0200080B
:100110006F0200086F0200086F0200086F020008FB
:100120006F0200086F0200086F0200086F020008EB
:100130006F0200086F0200086F0200086F020008DB
:100140006F0200086F0200086F0200086F020008CB
:100150006F0200086F0200086F0200086F020008BB
:100160006F0200086F0200086F0200086F020008AB
:100170006F0200086F0200086F0200080000000014
:100180006F0200086F02000800F002F800F052F859
:1001900014A696E8000CB244B344DA4501D100F04D
:1001A00049F8BAE80F000FA696E83000A5EB040561
:1001B00004EB0607AAEB0704A7F101074FEA1515A0
:1001C0004FEA3414A4F10104AC4201D300F032F838
:1001D00013F0010F18BFFB1A43F0010300F001F800
:1001E000DBE71847B8120000D8120000103A24BF0D
:1001F00078C878C1FAD8520724BF30C830C144BF8C
:1002000004680C6070470000704700000023002461
:1002100000250026103A28BF78C1FBD8520728BF16
:1002200030C148BF0B6070471FB501F01EF91FBDFC
:1002300010B510BD00F0D0F81146FFF7F5FF01F042
:100240006FF800F0EEF803B4FFF7F2FF03BC00F024
:10025000F5F800000948804709480047FEE7FEE737
:10026000FEE7FEE7FEE7FEE7FEE7FEE7FEE7FEE766
:1002700004480549054A064B704700000913000869
:1002800089010008C8000020C8060020C80200201C
:10029000C802002053EA020C00F069802DE9F04BFF
:1002A0004FF00006002B1FBFB3FA83F503FA05F4E5
:1002B00024FA05F65E4012BF1643B2FA82F502FA3E
:1002C00005F4C5F120051EBF22FA05FC44EA0C0422
:1002D000203556EA044C4FEA144418BF641C4FF012
:1002E00000084FF00009904271EB030C39D300294C
:1002F00019BFB1FA81F701FA07F6B0FA80F700FAF0
:1003000007F6C7F120071EBF20FA07FC46EA0C06D5
:100310002037B6FBF4FCA7EB0507103F07F01F0BD7
:10032000CBF120062CFA06F60CFA0BFB44BFB346C1
:100330000026202FA4BF5E464FF0000B5BEA060CA0
:1003400008BF4FF0010B19EB0B0948EB0608ABFB9C
:10035000027C06FB02CC0BFB03CCC01B71EB0C0137
:10036000C1E70B46024641464846BDE8F08B13B54F
:10037000084318BF4FF0FF300146AFF30080BDE8DF
:100380001C4070474FF0000200B513469446964655
:10039000203922BFA0E80C50A0E80C50B1F1200198
:1003A000BFF4F7AF090728BFA0E80C5048BF0CC046
:1003B0005DF804EB890028BF40F8042B08BF7047A4
:1003C00048BF20F8022B11F0804F18BF00F8012B16
:1003D0007047704770477047754600F02BF8AE467F
:1003E00005006946534620F00700854618B020B541
:1003F000FFF73EFFBDE820404FF000064FF000073A
:100400004FF000084FF0000BAC46ACE8C009ACE878
:10041000C009ACE8C009ACE8C00921F007018D466D
:10042000704710B50446AFF300802046BDE8104089
:10043000FFF709BF0048704710000020014918204D
:10044000ABBEFEE72600020070470000FEE700009A
:10045000704700002DE9F04F82B000F13E4707F1F0
:10046000FF77860546EA972741F60046C4F2020662
:10047000082243F6004EB04208BF0722C4F2010E24
:10048000072F38BF3A46002600274FF00008009299
:1004900009E000BF08F101080237B8F1100F06F1BA
:1004A000040600F0A3800D68012202FA08F415EAA0
:1004B0000409EFD0D1F804B003220BF0030CACF127
:1004C0000105BA40012D6FEA020A0FD88268CD6893
:1004D00002EA0A02BD402A4382604268A243CBF38B
:1004E000001404FA08F42243426005E0BCF1030F53
:1004F00002D14FF0030C1EE0C2688C6802EA0A02C7
:10050000BC402243BCF1020FC26014D16FF0030261
:1005100002EA58020244D2F820C006F01C040F235D
:100520000D69A3402CEA0303A5402B431362D1F8C5
:1005300004B00BF0030C02680CFA07F302EA0A029B
:100540001A431BF4403F0260A4D0002243F6440348
:100550000192C4F202031A684FF6084C42F480423A
:100560001A601A68CFF6FF7C02F480420192019A69
:1005700028F00302724452F80C3006F00C050F24E8
:10058000AC40A343009C04FA05F52B4342F80C3021
:10059000DEF808204B6842EA090543F60C4CDC0201
:1005A00058BF22EA0905CEF80850C4F2010CDCF865
:1005B00000209C0242EA090558BF22EA0905CCF84E
:1005C0000050DEF804209C0342EA090558BF22EAE5
:1005D0000905CEF80450DEF80020DB0342EA0905E5
:1005E00058BF22EA0905CEF8005053E702B0BDE833
:1005F000F08F0000426902EA0103914341EA03419E
:1006000081617047002A08BF0904816170470000BA
:1006100040F2C400C2F2000000687047002804BF26
:1006200001207047F0B581B0044690F83D0028B92C
:10063000002084F83C00204600F0ACF9242084F827
:100640003D002068016821F001010160016841F46A
:1006500000410160016821F40041016000F02AFBC3
:10066000636848F2A16CC0F2010C40F60011C0F2C0
:100670003D0163453CBF48F28041C0F21E01884203
:1006800002D2012001B0F0BD4DF68361C4F21B31EE
:10069000A0FB01122168970CD1F804E04FF4967684
:1006A0002EF03F0545EA92454D60774348F63816EF
:1006B0000D6AC0F24106A7FB067625F03F076345A9
:1006C00038BF960C721C3A430A62CA6948F2A066A7
:1006D0004CF6FF77C0F20106B34222EA07020BD8BC
:1006E00001385B00B0FBF3F001306FF31F300428DA
:1006F00098BF04201BE000BFA768013857B1192735
:100700007B43B0FBF3F001306FF31F3070B100F5A5
:10071000804007E003EB4303B0FBF3F001306FF3DD
:100720001F3018B100F5004001E000BF0120104368
:10073000C8610868D4E9072320F0C00010431843BB
:100740000860886848F2FF3204F10C0790438CCFB0
:1007500018431043A6698860C86820F0FF0038433A
:100760003043C860086840F0010008600020202184
:10077000206484F83D10206384F83E0001B0F0BD91
:100780002DE9F04F83B01E46924688460446FFF797
:100790003FFF94F83D10202924D12168054600BF71
:1007A000886980071AD5FFF733FF401B21681A2894
:1007B000F6D388698007F3D500202021206384F8D0
:1007C0003D1084F83E00216C022641F02001216496
:1007D00084F83C00304603B0BDE8F08F94F83C004C
:1007E000012805D10226304603B0BDE8F08F00BFD6
:1007F0004FF0010984F83C900868C00703D10868ED
:1008000040F0010008600868002720F400600860DC
:10081000242084F83D000020CFF6FF702764E062BA
:1008200008F0FE08BAF1010F88BFD1464FF0A00AC8
:100830004FF0200B04E000BF01374F4500F09A80D5
:100840000868002240F48070086020464FF00111D3
:100850003346009500F068FC2168002856D1C1F8A5
:100860001080FFF7D5FE21684B694A6994F83D5026
:10087000A02D054605D013F0020008BF12F48060D9
:100880001AD084F83DB048690A68800742F40072C3
:100890000A6047D46FF48060486100BF88698007B0
:1008A000CAD5FFF7B5FE401B21681A28F6D3886920
:1008B0008007F3D54CE000BFB6B100BFFFF7A8FE3C
:1008C000401BB04288BF84F83DA021684A6948694E
:1008D00094F83D30A02BD4D012F0020208BF10F4DF
:1008E0008060EBD0CDE700BFFFF792FE84F83DA01B
:1008F00021684A69486994F83D30A02BC1D012F0B4
:100900000202BED110F48060EED0BAE70868032678
:10091000C00544BF4FF400702064304603B0BDE80A
:10092000F08F00BF00260296486902908869029005
:100930000298886901E000BF8069800720D5FFF731
:1009400067FE411B20681A29F6D381698907F3D510
:1009500000202021206384F83D1084F83E00216CA3
:1009600041F020012164012684F83C00304603B0A8
:10097000BDE8F08F202084F83D000020F3E700BFA1
:10098000202084F83D0084F83C60304603B0BDE888
:10099000F08F0000016845F20040C4F2000081427F
:1009A00018BF7047B0B586B0002443F630050194F7
:1009B000C4F20205296800F5D83041F0020129602F
:1009C000296801F0020101910199C02101911221D0
:1009D000CDE90214032104910421059101A9FFF737
:1009E00039FD0094286940F400102861286900F45A
:1009F00000100090009806B0BDE8B04070470000BD
:100A000040F2000040F2C401C2F20000C2F2000154
:100A100000780A68104408607047000080B543F60B
:100A20000040C4F20200016841F4007101600168F5
:100A300041F480610160016841F48071016003202C
:100A400000F076F8002000F005F800F027F800200C
:100A500080BD000070B540F20006C2F2000640F210
:100A600008013278C2F200014FF47A730968B3FBCF
:100A7000F2F20446B1FBF2F1084600F03DFB0F2C08
:100A80004FF0010508D838B94FF0FF302146002259
:100A9000002500F021F87460284670BD82B0002067
:100AA00043F640010190C4F202014A6842F48042D8
:100AB0004A604A6802F480420192019A00900868F4
:100AC00040F080500860086800F080500090009866
:100AD000072002B000F02CB810B54EF60C5CCEF238
:100AE000000CDCF80030C3F3022E8EF00704042C57
:100AF00028BF0424BEF103034FF0FF3E0EFA04F4B6
:100B000038BF0023A14399400EFA03F39A431143DF
:100B100000F00F0200F160430901043A03F5644359
:100B20006244002848BF02F10C03197010BD000098
:100B30004EF60C51CEF200010A684FF6FF031A4040
:100B400060F30A2242F0806040F0FD700860704758
:100B5000002804BF012070472DE9F04143F6080842
:100B6000C4F202080446D8F8F8030D4600F0070066
:100B7000884207D288F8F853D8F8F80300F0070045
:100B8000A84277D12068810717D5410705D5D8F845
:100B9000001041F4E051C8F80010010705D5D8F85D
:100BA000001041F46041C8F80010D8F80010A268A5
:100BB00021F0F0011143C8F80010C00740D1D8F867
:100BC000F80300F00700A84207D988F8F853D8F8CE
:100BD000F80300F00700A8424CD12068410707D570
:100BE000D8F80010E26821F4E0511143C8F8001071
:100BF000000708D5D8F80000216920F4604040EAD9
:100C0000C100C8F8000000F069F8D8F8001041F2FF
:100C10008442C1F30311C0F60002515C40F20802A5
:100C200020FA01F140F20400C2F200000068C2F2B2
:100C300000021160FFF70EFF0020BDE8F08100BF49
:100C40006068811E022907D258F8081C89015CBF20
:100C50000120BDE8F08111E0012807D158F8081CF7
:100C600089035CBF0120BDE8F08107E058F8081C4B
:100C7000890703D40120BDE8F08100BFD8F8001037
:100C800021F003010843C8F80000FFF7C1FC064645
:100C900041F28837D8F80000616800F00C00B0EB32
:100CA000810F8CD0FFF7B4FC801BB842F2D903202F
:100CB000BDE8F08140F2080043F60801C2F20000EE
:100CC000C4F202010068096841F29442C1F3822132
:100CD000C0F60002515CC8407047000010B543F6F2
:100CE0000404C4F20204606800F00C0142F2004007
:100CF0000829C0F2F40007D0042918BF10BD41F242
:100D00000020C0F27A0010BD216801F03F02216886
:100D100023684902C3F3881106D4A1FB0001002314
:100D2000FFF7B8FA07E000BF41F20020C0F27A00F6
:100D30004843B0FBF2F021680222C1F3014102EB0B
:100D40004101B0FBF1F010BD002804BF0120704745
:100D50002DE9F04182B00446007843F60006C00752
:100D6000C4F202060CD0B06800F00C00042840F079
:100D700081803068800303D56068002800F06A81B4
:100D8000207880071BD5B06810F00C0F09D0B06830
:100D900000F00C00082840F087807068400200F1E5
:100DA00083803068800703D5E068012840F05281D5
:100DB0003068216920F0F80040EAC10030602078F6
:100DC000000713D4207840072AD4A569002D00F02D
:100DD0003C81B06800F00C00082840F0A180012D93
:100DE00040F01081012002B0BDE8F0816069002868
:100DF00040F20000C4F2472000F07E800121C0F8DC
:100E0000801EFFF705FC0546706F8007DAD4FFF7F8
:100E1000FFFB401B0228F7D9032002B0BDE8F08198
:100E2000306C5FEAC0080AD400200190306C40F0BA
:100E300080503064306C00F080500190019847F28F
:100E40000007C4F200073868C00547D4386840F48A
:100E500080703860FFF7DCFB054600BF3868C005CE
:100E60003CD4FFF7D5FB401B0228F7D9032002B082
:100E7000BDE8F081B06800F00C00082803D170686C
:100E800040023FF576AF6068B0F5803F07D0B0F51F
:100E9000A02F40F09B80306840F4802030603068A4
:100EA00040F4803030609BE0E06800285CD0002097
:100EB000C4F2472001210160FFF7AAFB054600BFED
:100EC000306880073FF574AFFFF7A2FB401B022894
:100ED000F6D9032002B0BDE8F08100BFA068012868
:100EE00005D0052854D1306F40F004003067306FD2
:100EF00040F00100306755E00021C0F8801EFFF788
:100F000087FB0546706F80077FF55CAFFFF780FBBE
:100F1000401B0228F6D9032002B0BDE8F08100BFD3
:100F20000027C4F2472700203866FFF771FB022D27
:100F300005460DD13068800140F19080FFF768FBD5
:100F4000401B02284FF00300F4D902B0BDE8F08145
:100F50003068800179D5FFF75BFB401B02284FF01A
:100F60000300F5D9F1E700BF0020C4F247200021BB
:100F70000160FFF74DFB0546306880077FF51FAF26
:100F8000FFF746FB401B02284FF00300F4D9DCE7D3
:100F9000316F002821F001013167316F21F0040128
:100FA00031677DD0FFF734FB054641F2883700BF3B
:100FB000306F800700F18680FFF72AFB401BB842A4
:100FC000F6D9032002B0BDE8F08100BF31680028E7
:100FD00021F480313160316821F4802131607BD08F
:100FE000FFF716FB054600BF306880033FF5C8AE2B
:100FF000FFF70EFB401B6428F6D9032002B0BDE8C2
:10100000F08100BF7068E16900F480028A4221D15A
:10101000216A00F03F028A421CD147F6C071626A21
:101020000140B1EB821F15D1A16A4FF6FF73C903CE
:10103000994300F44032A1F580318A420AD1E16A35
:1010400000F07060B0EB016F04D1002002B0BDE889
:10105000F08100BF012002B0BDE8F08104F11C0561
:101060002FCD084340EA8210D9034FF6FF72914317
:10107000A1F5803140EA05600843706001203866C0
:10108000FFF7C6FA044600BF30688001DDD4FFF7E1
:10109000BFFA001B02284FF00300F5D955E700BF47
:1010A000FFF7B6FA054641F2883700BF306F800778
:1010B00008D5FFF7ADFA401BB8424FF00300F5D951
:1010C00043E700BFB8F1000F3FF57FAE306C20F072
:1010D0008050306479E600BFFFF79AFA054600BFFA
:1010E000306880037FF54CAEFFF792FA401B64280E
:1010F0004FF00300F4D928E7411E0020B0EB116F38
:101100001CBF012070474EF21002CEF20002516067
:101110004EF62351CEF20001F0230B7007219060B0
:1011200011607047FEE700002DE9F04105460068B8
:101130001E46144601F47F0201338FB242D0DDF81F
:101140001880B2F5803F40F0878040693840C01B6E
:10115000B0FA80F04009A04240F0C8804EB924E0C7
:1011600040693840C01BB0FA80F04009A04240F00E
:10117000BD80FFF74DFAA0EB08012868B142EFD916
:1011800041693940C91BB1FA81F14909A142E7D14E
:101190009BE000BF40693840C01BB0FA80F04009B6
:1011A000A0424FF0000040F0A280FFF731FA28681B
:1011B00041693940C91BB1FA81F14909A142E9D11C
:1011C00083E000BFB2F5803F24D100BF41693940C0
:1011D000C91BB1FA81F14909A14240F087804169F8
:1011E0003940C91BB1FA81F14909A14240F07E8022
:1011F00041693940C91BB1FA81F14909A14275D150
:1012000041693940C91BB1FA81F14909A142DDD0D8
:101210006CE000BF81693940C91BB1FA81F149090D
:10122000A14263D181693940C91BB1FA81F14909F1
:10123000A1425BD181693940C91BB1FA81F14909E9
:10124000A14253D181693940C91BB1FA81F14909E1
:10125000A142DFD04AE000BF80693840C01BB0FA2D
:1012600080F04009A04241D146B923E0806938406E
:10127000C01BB0FA80F04009A04237D1FFF7C8F98F
:10128000A0EB08012868B142F0D981693940C91B37
:10129000B1FA81F14909A142E8D116E080693840EC
:1012A000C01BB0FA80F04009A0424FF0000018BF08
:1012B000BDE8F081FFF7ACF9286881693940C91BA6
:1012C000B1FA81F14909A142E8D100202021286327
:1012D00085F83D1085F83E00296C41F02001296415
:1012E00085F83C000120BDE8F08100BF0020BDE88A
:1012F000F0810000FEE70000FEE7000070470000FC
:1013000070470000FFF77CBB4EF68850CEF200001D
:10131000016841F47001016070470000FEE70000C1
:1013200092B043F6300647F20005C4F20206C4F25A
:101330000005FFF773FB06AC201D2C21FFF722F8F8
:1013400000270597CDE90377CDE90177009730694C
:1013500040F080503061306900F08050009000987B
:101360000097286840F480402860286800F4804096
:1013700000900098022006900120099010200A9009
:1013800020460C97FFF7E0FC10B172B6FEE700BFF5
:101390000F20CDE9010701A80021CDE903770597CA
:1013A000FFF7D6FB10B172B6FEE700BF00270A9721
:1013B0000197306805F5CE3440F0080030603068A1
:1013C0004FF4805100F008000190019801973068B7
:1013D000002240F00200306030684FF4805500F089
:1013E0000200019001982046FFF70CF90120CDE999
:1013F000070706A9204606950997FFF72BF840F244
:10140000700045F20041C2F20000C4F2000148F24F
:10141000A0624FF48043C0F2010280E88600C0E978
:101420000373C0E90577C0E90777FFF7F7F818B14C
:1014300072B600BFFEE700BF40F270050026C2F2A0
:10144000000500BFF1B2284601220A23FFF798F9F0
:1014500020B10136FF2EF5D106E000BF20464FF443
:101460008051FFF7C7F800BFFEE7F1EE100A4FF614
:10147000FF71C0F2C03120EA010040F04070E1EE9F
:10148000100A704700000000000000000102030481
:10149000060708090000000001020304C014000848
:1014A0000000002010000000EC010008D01400082B
:1014B00010000020B80600000C0200080000000028
:1014C00001000000100000000024F40000000000F3
:040000050800018965
:00000001FF
