:020000040800F2
:10000000407D0020550200081D1F0008A11E0008A9
:10001000191F00088D040008C546000800000000F4
:10002000000000000000000000000000311F000878
:100030001D050008000000002D1F0008351F0008E6
:100040006F0200086F0200086F0200086F020008CC
:100050006F0200086F0200086F0200086F020008BC
:100060006F0200086F0200086F0200086F020008AC
:100070006F0200086F0200086F0200086F0200089C
:100080006F0200086F0200086F0200086F0200088C
:100090006F0200086F0200086F0200086F0200087C
:1000A0006F0200086F0200086F0200086F0200086C
:1000B0006F0200086F0200086F0200086F0200085C
:1000C0006F0200086F0200086F0200086F0200084C
:1000D0006F0200086F0200086F0200086F0200083C
:1000E0006F0200086F0200086F0200086F0200082C
:1000F0006F0200086F0200086F0200086F0200081C
:100100006F0200086F0200086F0200086F0200080B
:100110006F0200086F0200086F0200086F020008FB
:100120006F0200086F0200086F0200086F020008EB
:100130006F0200086F0200086F0200086F020008DB
:100140006F0200086F0200086F020008211F0008FC
:100150006F0200086F0200086F0200086F020008BB
:100160006F0200086F0200086F0200086F020008AB
:100170006F0200086F0200086F0200080000000014
:100180006F0200086F02000800F002F800F052F859
:1001900014A696E8000CB244B344DA4501D100F04D
:1001A00049F8BAE80F000FA696E83000A5EB040561
:1001B00004EB0607AAEB0704A7F101074FEA1515A0
:1001C0004FEA3414A4F10104AC4201D300F032F838
:1001D00013F0010F18BFFB1A43F0010300F001F800
:1001E000DBE7184794450000B4450000103A24BFEF
:1001F00078C878C1FAD8520724BF30C830C144BF8C
:1002000004680C6070470000704700000023002461
:1002100000250026103A28BF78C1FBD8520728BF16
:1002200030C148BF0B6070471FB504F08FFA1FBD87
:1002300010B510BD00F0EFF81146FFF7F5FF04F020
:1002400043FA00F00DF903B4FFF7F2FF03BC00F02E
:1002500015F900000948804709480047FEE7FEE716
:10026000FEE7FEE7FEE7FEE7FEE7FEE7FEE7FEE766
:1002700004480549054A064B70470000E11F000885
:1002800089010008401D0020407D0020403D0020E5
:10029000403D002053EA020C00F069802DE9F04B4C
:1002A0004FF00006002B1FBFB3FA83F503FA05F4E5
:1002B00024FA05F65E4012BF1643B2FA82F502FA3E
:1002C00005F4C5F120051EBF22FA05FC44EA0C0422
:1002D000203556EA044C4FEA144418BF641C4FF012
:1002E00000084FF00009904271EB030C39D300294C
:1002F00019BFB1FA81F701FA07F6B0FA80F700FAF0
:1003000007F6C7F120071EBF20FA07FC46EA0C06D5
:100310002037B6FBF4FCA7EB0507103F07F01F0BD7
:10032000CBF120062CFA06F60CFA0BFB44BFB346C1
:100330000026202FA4BF5E464FF0000B5BEA060CA0
:1003400008BF4FF0010B19EB0B0948EB0608ABFB9C
:10035000027C06FB02CC0BFB03CCC01B71EB0C0137
:10036000C1E70B46024641464846BDE8F08B13B54F
:10037000084318BF4FF0FF300146AFF30080BDE8DF
:100380001C40704710B5431C02E010F8011B71B10E
:100390008107FAD14FF0013202C88C1A8C4314EA5B
:1003A000C211F9D0C01A0A0603D0C01E10BDC01A6F
:1003B00010BD0A0401D0801E10BD0902FCD0401EF1
:1003C00010BD4FF0000200B5134694469646203902
:1003D00022BFA0E80C50A0E80C50B1F12001BFF4FE
:1003E000F7AF090728BFA0E80C5048BF0CC05DF864
:1003F00004EB890028BF40F8042B08BF704748BFB2
:1004000020F8022B11F0804F18BF00F8012B704725
:10041000704770477047754600F02CF8AE460500EF
:100420006946534620F00700854618B020B5FFF70F
:100430001FFFBDE820404FF000064FF000074FF0CF
:1004400000084FF0000BAC46ACE8C009ACE8C009AE
:10045000ACE8C009ACE8C00921F007018D4670473F
:1004600010B50446AFF300802046BDE81040FFF70A
:10047000EABE000000487047F8000020014918203B
:10048000ABBEFEE72600020070470000FEE700005A
:10049000002070470020704710B541F27C54C2F232
:1004A000000440F67C51C2F200012046002201F017
:1004B00067FF40F27C51C2F20001204601F052FF7A
:1004C000002010BD10B541F27C54C2F20004014678
:1004D000204601F047FF204601F01EFF002010BD1E
:1004E0000020704741F27C52C2F20002D2F8BC22D6
:1004F000D2F81432002B1CBF0120704710B541F216
:100500007C54C2F200040A460146204601F038FF3E
:100510002046BDE8104001F0BBBF0000704700005E
:1005200072B600BFFEE70000B0B5044600F0E0F888
:10053000054640F20000C2F200000078611C18BFBE
:10054000044400BF00F0D4F8401BA042FAD3B0BD71
:100550002DE9F04F82B000F13E4707F1FF778605A5
:1005600046EA972741F60046C4F20206082243F6FF
:10057000004EB04208BF0722C4F2010E072F38BF59
:100580003A46002600274FF00008009209E000BF1D
:1005900008F101080237B8F1100F06F1040600F067
:1005A000A3800D68012202FA08F415EA0409EFD0CD
:1005B000D1F804B003220BF0030CACF10105BA40F2
:1005C000012D6FEA020A0FD88268CD6802EA0A029A
:1005D000BD402A4382604268A243CBF3001404FA70
:1005E00008F42243426005E0BCF1030F02D14FF052
:1005F000030C1EE0C2688C6802EA0A02BC40224377
:10060000BCF1020FC26014D16FF0030202EA58027B
:100610000244D2F820C006F01C040F230D69A34049
:100620002CEA0303A5402B431362D1F804B00BF06E
:10063000030C02680CFA07F302EA0A021A431BF4DD
:10064000403F0260A4D0002243F644030192C4F26A
:1006500002031A684FF6084C42F480421A601A6886
:10066000CFF6FF7C02F480420192019A28F0030247
:10067000724452F80C3006F00C050F24AC40A34332
:10068000009C04FA05F52B4342F80C30DEF80820F4
:100690004B6842EA090543F60C4CDC0258BF22EADB
:1006A0000905CEF80850C4F2010CDCF800209C02C9
:1006B00042EA090558BF22EA0905CCF80050DEF8E5
:1006C00004209C0342EA090558BF22EA0905CEF836
:1006D0000450DEF80020DB0342EA090558BF22EA95
:1006E0000905CEF8005053E702B0BDE8F08F0000D6
:1006F00041F63C50C2F200000068704740F2000032
:1007000041F63C51C2F20000C2F2000100780A68D2
:10071000104408607047000080B543F60040C4F202
:100720000200016841F400710160016841F48061D8
:100730000160016841F480710160032000F088F8D5
:10074000002000F005F800F027F8002080BD000030
:1007500070B540F20006C2F2000640F22401327881
:10076000C2F200014FF47A730968B3FBF2F2044657
:10077000B1FBF2F1084601F07DFB0F2C4FF00105B3
:1007800008D838B94FF0FF3021460022002500F08C
:1007900033F87460284670BD82B0002043F64001F3
:1007A0000190C4F202014A6842F480424A604A68F9
:1007B00002F480420192019A0090086840F0805053
:1007C0000860086800F0805000900098072002B090
:1007D00000F03EB8002848BF704700F01F0101221A
:1007E00002FA01F11C2202EAD0004EF20012CEF20F
:1007F000000281507047000010B54EF60C5CCEF23E
:10080000000CDCF80030C3F3022E8EF00704042C39
:1008100028BF0424BEF103034FF0FF3E0EFA04F498
:1008200038BF0023A14399400EFA03F39A431143C2
:1008300000F00F0200F160430901043A03F564433C
:100840006244002848BF02F10C03197010BD00007B
:100850004EF60C51CEF200010A684FF6FF031A4023
:1008600060F30A2242F0806040F0FD70086070473B
:100870007047000002680020516270472DE9F04186
:10088000D0F80080D8F8243081B1D8F82870B1F1C0
:10089000010E03EB174355D05FFA8EF104290EF0D9
:1008A000030C0BD2002700212DE000BF43EA0241D8
:1008B0000020C8F82810BDE8F08100BF0EF0FC044D
:1008C00008F1F405002108F5827600BF55F8107F85
:1008D00041F0020003EB174341F00107FFB256F865
:1008E0002770C0B256F8200003EB174303EB10400B
:1008F00041F00303DBB256F823300431CFB2A742F4
:1009000000EB1343E2D1BCF1000F1BD008EB8700D2
:10091000D0F80401BCF1010F03EB104312D0481CC6
:10092000C0B208EB8000D0F80401BCF1020F03EB69
:10093000104307D0881CC0B208EB8000D0F8040137
:1009400003EB104343EA024008EB8E01C1F80401B7
:100950000020BDE8F0810000D0F8E00402F0B2B859
:1009600001EBC102D0F8E03400EB8200026A1846C5
:1009700002F010B801EBC102D0F8E03400EB8200C5
:10098000D0F86022184602F061B80000D0F8E00408
:1009900002F09AB810B5044648B2B0F1FF3F01F03A
:1009A0000F0000EBC00104EB810205DD02F51571BB
:1009B000002382F8553203E0012302F1140153753C
:1009C00094F894240870012A04BF022010BD206806
:1009D000012284F8942402F02FFE002084F894046D
:1009E00010BD0000B0B50279044601F00F0090423E
:1009F00084BF0120B0BD49B2B1F1FF3F0ADD00EB79
:100A0000C00104EB810202F51571002382F8553212
:100A100008E000BF00EBC00104EB8102012302F1FA
:100A20001401537594F894240025012A8D700870E0
:100A300004BF0220B0BD2068012284F8942403F092
:100A4000E5F8284684F89454B0BD000001F00F0189
:100A500001EBC10100EB8100D0F868027047000093
:100A600070B5064648B2B0F1FF3F01F00F0000EB51
:100A7000C00107DD06EB810404F51571002584F83B
:100A8000555206E006EB810C01240CF114018CF8A0
:100A900015404D780870002D8A600B7118BF48838F
:100AA000022B04BF0020487196F89404012804BF6B
:100AB000022070BD3068012286F8942402F060FCA8
:100AC000002086F8940470BD10B501F00F0404EB0B
:100AD000C40100EB810E4FF0000CCEF868C28EF816
:100AE00055C290F806C0CEF86022CEF86432BCF150
:100AF000010F8EF8544208BFCEF8702200680EF540
:100B00001571624603F0CCF8002010BDB0B5044664
:100B1000007901F00F05854284BF0120B0BD48B2C5
:100B2000B0F1FF3F0ADD01EBC10004EB800000F5EE
:100B30001571002280F8552208E000BF05EBC500C2
:100B400004EB8000012200F11401427594F8940432
:100B5000012201288A700D7004BF0220B0BD2068F8
:100B600084F8942403F07CF825B1002084F89404E0
:100B7000B0BD00BF2068A17904F29C4203F018F8D0
:100B8000002084F89404B0BD80B501F00F0C0CEB8C
:100B9000CC0100EB810E714601F814CF4FF0000C30
:100BA000C1F814C04FF0010C81F801C090F806C0E4
:100BB000CA60BCF1010F0B6108BFCEF8302000689D
:100BC000624603F06DF8002080BD00002DE9F04F73
:100BD00089B0D0F800A00646504603F063FA18B179
:100BE00009B0BDE8F08F00BF306803F089FA002833
:100BF000F6D0DAF80808C0F30D213068C6F8D4142E
:100C000003F07EFA01463068890703D5416901F097
:100C1000020141610AF50061049103F071FA014695
:100C20003068C90608963BD5816921F010018161C1
:100C3000DAF82040C4F34340062804F00F0519D029
:100C4000022828D147F6F07014EA000823D005EBFB
:100C5000C50006EB8007D7F860124FEA181450461B
:100C6000224603F051FAD7F8600200EB1810C7F8DB
:100C7000600207E006F29C415046082203F044FA65
:100C8000C4F30A1405EBC50006EB8000D0F8681227
:100C90002144C0F868123068816941F01001816117
:100CA00003F02EFA000340F1F5800898006803F085
:100CB00005FA002800F0EE80064608984FF43064EC
:100CC00000F29C4100F51D784FF0000B079119E0F0
:100CD0000AEB040002218160B80642BF0AEB04005F
:100CE00020218160B80442BF0AEB04004FF4005198
:100CF00081600BF1010B760804F1200408F124084F
:100D000000F0C880F007F4D008985FFA8BF900680B
:100D1000494603F0EDF90746C00763D00AEB04002B
:100D200001218160089D28682118036C8A68AD79CB
:100D3000012D29D1150735D4950600F1A38012F0B5
:100D4000280F4FD143F20B05C4F65475AB4202D3C2
:100D500012F400422FD1D8F800200969BBF1000F2E
:100D60006FF3DF41A2EB010148F80C1C35D1089B61
:100D7000D3F86422002A00F08B80D3F86002084484
:100D8000C3F8600229E000BF43F20B05C4F65475B6
:100D9000FF35AB4216D110040DD4900644BF20207D
:100DA00088601AE043F20B00C4F65470834219D3F2
:100DB00012F4004016D04FF400408860380713D476
:100DC00040E000BFBBF1000F07D10899D1F86412D1
:100DD00019B90021079A02F0EBFE08984946FFF77F
:100DE000C9FD00BF38072DD50AEB0400082181603A
:100DF000089843F20B020068C4F65472056C204454
:100E0000816895420AD311F4004107D04FF40041A4
:100E10008160089800F026FD09E000BF089800F006
:100E200021FD43F20B00C4F6547085420AD30898A2
:100E30008079012806D10898079A0068012102F0FC
:100E4000B7FE00BFF80642BF0AEB04001021816024
:100E5000B8077FF541AFDAF81400000604D504990D
:100E6000486840F48060486018F81D0C01287FF441
:100E70002FAF002008F81D0C0898494600F044FBED
:100E800026E700BF202088603807ADD4DAE700BF2E
:100E900001219FE7DDF820B0CDF80CA0DBF80000C1
:100EA00003F02EF9400340F1D580DBF8000003F099
:100EB000FDF8002800F0CE8082460398012700F557
:100EC00010660BF29C4000250190029606E000BFE0
:100ED0005FEA5A0A05F1010500F0BC805FEACA70BA
:100EE000F6D0DBF80000E9B2079103F0EFF8044612
:100EF000C00725D0049A05F00F00516B07FA00F0E7
:100F000021EA0000506306EB451087609BF806005D
:100F1000012811D105EBC5000BEB8000D0E90712C9
:100F20001144016245B9DBF8240028B9DBF8000060
:100F3000019A012102F03CFE07995846FFF710FD87
:100F4000200742BF06EB451008218160E00642BF42
:100F500006EB451010218160600642BF06EB45108C
:100F600040218160A00715D50398294603F02CF88D
:100F700005EBC5000BEB800010F8171F012905D108
:100F8000002101700799584600F0BAFA06EB4510A7
:100F90000221816020069BD505EBC5000BEB80028A
:100FA000914659F8241FC84658F8040F81428FD340
:100FB000DBF8006093465BF81C7F0B1ABB4238BF1E
:100FC0001F46069606EB4513D3F818C907F1030E22
:100FD0001FFA8CF7B7EB9E0F28D303F5106102F1CF
:100FE00020070591D9F8001081421FD9DBF8004095
:100FF000089A081AA0423968967938BF0446DDE994
:101000000602A3B2009603F027FB3868D8F8001058
:101010002044386008190599C8F800008969E21C65
:1010200089B2B1EB920FDDD2D9F80010DDF820B013
:10103000029E012781423FF64BAF069A05F00F0052
:10104000D2F8341807FA00F021EA0000C2F8340898
:101050003EE700BFDBF8000003F052F8002825D47B
:10106000DBF80000DDE9038903F04AF8000540D40D
:10107000DBF8000003F044F8C0044BD5D9F80400B5
:10108000102120F00100C9F80400DBF8000002F094
:101090009BFF9BF80400010600F0F080C1B2042918
:1010A00000F003003AD200219FE000BFDDF810906D
:1010B000D9F8040020F00100C9F804009BF8CC0422
:1010C000012807D100208BF8CC0458460021FFF7F7
:1010D000CFFB02E0584600F0A9FBDBF80000DDF88A
:1010E0000C80416901F00041416103F009F80005FD
:1010F000BED5D9F80800C00702D0584600F0DAFB88
:10110000DBF80000416901F40061416102F0F8FF81
:10111000C004B3D4DBF80000E3E000BF6FF060026E
:1011200002EA411200234FF67F37002108EB030645
:10113000C6F80879D6F80059803325F40015C6F8AA
:101140000059C6F8087BD6F8005B9A4225F40015D2
:10115000C6F8005BD6F8005B01F1040145F00065BC
:10116000C6F8005BC6F82879D6F8205925F4001592
:10117000C6F82059C6F8287BD6F8205B25F4001560
:10118000C6F8205BD6F8205B45F00065C6F8205B0A
:10119000C6F84879D6F8405925F40015C6F84059E4
:1011A000C6F8487BD6F8405B25F40015C6F8405BCE
:1011B000D6F8405B45F00065C6F8405BC6F8687934
:1011C000D6F8605925F40015C6F86059C6F8687B52
:1011D000D6F8605B25F40015C6F8605BD6F8605B56
:1011E00045F00065C6F8605BA0D1002846D008F540
:1011F000106202EB41134FF67F374E019F60955905
:1012000008F5306325F40015955103EB4115AF60E7
:101210009D59012825F400159D519D5945F0006503
:101220009D512BD04E1C02EB46147501A7605459FA
:1012300003EB461624F400145451B7605F5902289A
:1012400027F400175F515F5947F000675F5115D0D1
:10125000881C02EB40174FF67F364101BE6057589D
:1012600003EB401027F4001757508660585820F4BD
:1012700000105850585840F000605850D9F81C00E1
:1012800040F00110C9F81C009BF80F0040B1D9F8DC
:10129000840040F00B00C9F8840009F1440008E024
:1012A000D9F8140042F22B010843C9F8140009F1DF
:1012B000100001680BF29C4241F00B010160D9F86B
:1012C000000020F4FE60C9F80000DBF800009BF885
:1012D000061002F06DFCDBF80000416901F480515A
:1012E000416102F00DFF0146DBF8000089041AD5C8
:1012F00002F088F8DBF8000002F0C6FEDBF80040E0
:101300008BF8070000F0A2FB9BF80720014620465F
:1013100003F016F9584600F073FADBF80000416953
:1013200001F40051416102F0EBFE000706D4DBF846
:10133000000002F0E5FE00060DD437E0584600F04C
:1013400079FADBF80000416901F00801416102F01F
:10135000D7FE00062AD5D8F8180020F08000C8F87B
:1013600018009BF80400022820D3012440F27B25BA
:1013700005E000BF0134844205F1240516D21BF8B4
:1013800005100129F6D104F00F0000EBC0000BEBB3
:1013900080022006DBF8000002F1140158BF02F5BC
:1013A000157102F081FD9BF80400E3E7DBF8000013
:1013B00002F0A6FEC00251D4DBF8000002F0A0FE4D
:1013C000800240F180809BF8041002292DD308F59B
:1013D000326001390BF51F72012303E0013900F17E
:1013E000200022D01746066812F8245B012DF5D1A3
:1013F000B6F1FF3FF2DCDBF8D45406F4803605F09A
:101400000105AE42EAD107F8013CD8F8187047F060
:101410008007C8F81870D8F814703F06DED4D9F8E1
:10142000040040F40070C9F80400DBF800004169D2
:1014300001F40011416102F063FE400049D55846B5
:10144000FFF78AFADBF80000416901F08041416151
:1014500002F056FE40077FF5C3AB41E09BF8040065
:10146000022825D308F512640BF13C05012601275B
:1014700005E000BF0137874204F1200418D2294655
:10148000226815F8243B012BF4D1B2F1FF3FF1DCC7
:1014900007F00F0000EBC00001F8016C0BEB8001BE
:1014A000DBF80000143102F0FFFC9BF80400E1E7D8
:1014B000DBF80000416901F48011416102F020FE77
:1014C00080023FF580AFDBF8000002F019FE40001B
:1014D000B5D4DBF8000002F013FE40077FF580ABC7
:1014E000DBF800004468610704D55846FFF74EFA60
:1014F000DBF8000041682143416009B0BDE8F08F8E
:10150000D0F8E00401F040BBD0F8E00401F052BB99
:1015100070B582B0002800F022810446056890F87A
:10152000950428B9002084F89404204600F028F996
:101530000320B5F1A04F84F8950404BF0020A071EA
:10154000206802F02DFB94E80F00267C009601F045
:1015500069FF002840F000812068002102F02AFE87
:10156000002840F0F98094F804E0BEF1000F00F08C
:10157000EC800EF0030CBEF1040F4FF000023FD3DD
:101580000EF0FC03A4F1900503200121C61E85F88E
:10159000A460A5F8BE60861E85F8C860A5F8E26064
:1015A000461E85F8EC60A5F8066185F81001A5F8DF
:1015B0002A01061D013085F8A51085F8A820C5E987
:1015C0002B22C5F8B42085F8C91085F8CC20C5E9D0
:1015D0003422C5F8D82085F8ED1085F8F020C5E94B
:1015E0003D22C5F8FC2085F8111185F81421C5E9C4
:1015F0004622C5F82021903598423046C6D1F21EC9
:10160000BCF1000F2CD002EBC20004EB80030121DF
:101610000020BCF1010F59751A75DA851876C3E9F7
:10162000070058621CD0531C03EBC30504EB85056F
:10163000BCF1020F69752B75EB852876C5E90700AB
:1016400068620DD0901C00EBC00104EB8101012207
:101650000875C88500204A750876C1E90700486208
:10166000BEF1000F71D0BEF1040F4FF0000235D370
:101670000EF0FC0003212346CE1E83F854628E1E1A
:1016800083F878624E1E83F8C0120D1D013183F875
:10169000552283F85822C3E99722C3F8642283F8BD
:1016A000792283F87C22C3E9A022C3F8882283F838
:1016B0009D2283F89C6283F8A022C3E9A922C3F883
:1016C000AC2283F8C12283F8C422C3E9B222C3F852
:1016D000D022903381422946CED1EA1EBCF1000FC0
:1016E00033D002EBC20004EB80010020BCF1010FFB
:1016F00081F8550281F8542281F85802C1E9970017
:10170000C1F8640221D0511C01EBC10304EB830337
:10171000BCF1020F83F8550283F8541283F8580283
:10172000C3E99700C3F864020FD0901C00EBC0011E
:1017300004EB8101002281F8552281F8540281F8DE
:101740005822C1E99722C1F8642294E80F00267C50
:10175000009601F0D5FF38B1022084F895040125E8
:10176000284602B070BD00BF00250120657484F8D2
:101770009504206801F0B4FF284602B070BD000057
:101780000068B0F1A04F18BF7047B0B586B0002513
:1017900043F630040195C4F20204206801A940F028
:1017A00001002060206800F00100019001984FF4D2
:1017B000C05001900220CDE90205032004900A20C8
:1017C00005900020C4F20200FEF7C2FE606800210E
:1017D00040F08000606000956069002240F4804025
:1017E0006061606900F48040009000984320FFF73A
:1017F00003F84320FEF7EEFF06B0BDE8B0407047A7
:1018000010B50446C07928B1022801D0FEF788FE41
:10181000012100E00021D4F8E00401F051FAD4F8ED
:10182000E004BDE8104001F001BA0000D0F8E00487
:1018300001F02CBAD0F8E00401F032BA10B5044639
:1018400090F89404012804BF022010BD012084F800
:1018500094046174206802F061FE002084F894040E
:1018600010BD0000D0F8E02400F29C41104601F0C9
:101870003DBA000010B5044690F89404012804BF56
:10188000022010BD2068012184F89414C168490623
:1018900006D5617B012903D1816B41F480318163DD
:1018A00002F08AFB206801F00BFF002084F894040A
:1018B00010BD000010B50446D0F8E00401F06CFA49
:1018C0002068D0F8001E41F00101C0F8001EE07A47
:1018D000002808BF10BD4EF61050CEF2000001687F
:1018E00041F00601016010BD002804BF01207047CF
:1018F0002DE9F04143F60808C4F202080446D8F87E
:10190000F8030D4600F00700884207D288F8F85324
:10191000D8F8F80300F00700A84277D120688107C3
:1019200017D5410705D5D8F8001041F4E051C8F8A3
:101930000010010705D5D8F8001041F46041C8F83F
:101940000010D8F80010A26821F0F0011143C8F887
:101950000010C00740D1D8F8F80300F00700A842F3
:1019600007D988F8F853D8F8F80300F00700A84220
:101970004CD12068410707D5D8F80010E26821F45F
:10198000E0511143C8F80010000708D5D8F800004E
:10199000216920F4604040EAC100C8F8000000F06E
:1019A0005BF8D8F8001044F26672C1F30311C0F678
:1019B0000002515C40F2240220FA01F140F20400DE
:1019C000C2F200000068C2F200021160FEF7C0FE21
:1019D0000020BDE8F08100BF6068811E022907D2A7
:1019E00058F8081C89015CBF0120BDE8F08111E0B6
:1019F000012807D158F8081C89035CBF0120BDE805
:101A0000F08107E058F8081C890703D40120BDE8DD
:101A1000F08100BFD8F8001021F003010843C8F896
:101A20000000FEF765FE064641F28837D8F8000050
:101A3000616800F00C00B0EB810F8CD0FEF758FE0F
:101A4000801BB842F2D90320BDE8F08140F22400A7
:101A5000C2F200000068704710B543F60404C4F2F7
:101A60000204606800F00C0142F200400829C0F254
:101A7000F40007D0042918BF10BD41F20020C0F2C5
:101A80007A0010BD216801F03F02216823684902F5
:101A9000C3F3881106D4A1FB00010023FEF7FAFB73
:101AA00007E000BF41F20020C0F27A004843B0FBDB
:101AB000F2F021680222C1F3014102EB4101B0FBC7
:101AC000F1F010BD002804BF012070472DE9F0415E
:101AD00082B00446007843F60006C007C4F202064E
:101AE0000CD0B06800F00C00042840F08180306811
:101AF000800303D56068002800F06A8120788007A1
:101B00001BD5B06810F00C0F09D0B06800F00C00C5
:101B1000082840F087807068400200F183803068B8
:101B2000800703D5E068012840F0528130682169C0
:101B300020F0F80040EAC10030602078000713D49C
:101B4000207840072AD4A569002D00F03C81B068B8
:101B500000F00C00082840F0A180012D40F0108119
:101B6000012002B0BDE8F0816069002840F2000069
:101B7000C4F2472000F07E800121C0F8801EFEF7ED
:101B8000B7FD0546706F8007DAD4FEF7B1FD401B44
:101B90000228F7D9032002B0BDE8F081306C5FEA7B
:101BA000C0080AD400200190306C40F080503064AE
:101BB000306C00F080500190019847F20007C4F2A9
:101BC00000073868C00547D4386840F48070386032
:101BD000FEF78EFD054600BF3868C0053CD4FEF711
:101BE00087FD401B0228F7D9032002B0BDE8F08131
:101BF000B06800F00C00082803D1706840023FF57F
:101C000076AF6068B0F5803F07D0B0F5A02F40F008
:101C10009B80306840F480203060306840F4803031
:101C200030609BE0E06800285CD00020C4F24720D0
:101C300001210160FEF75CFD054600BF30688007AA
:101C40003FF574AFFEF754FD401B0228F6D9032080
:101C500002B0BDE8F08100BFA068012805D00528CA
:101C600054D1306F40F004003067306F40F0010015
:101C7000306755E00021C0F8801EFEF739FD0546AB
:101C8000706F80077FF55CAFFEF732FD401B0228C6
:101C9000F6D9032002B0BDE8F08100BF0027C4F2EE
:101CA000472700203866FEF723FD022D05460DD19B
:101CB0003068800140F19080FEF71AFD401B022839
:101CC0004FF00300F4D902B0BDE8F0813068800124
:101CD00079D5FEF70DFD401B02284FF00300F5D922
:101CE000F1E700BF0020C4F2472000210160FEF7A9
:101CF000FFFC0546306880077FF51FAFFEF7F8FC54
:101D0000401B02284FF00300F4D9DCE7316F0028B4
:101D100021F001013167316F21F0040131677DD07D
:101D2000FEF7E6FC054641F2883700BF306F8007BA
:101D300000F18680FEF7DCFC401BB842F6D9032098
:101D400002B0BDE8F08100BF3168002821F4803185
:101D50003160316821F4802131607BD0FEF7C8FC0E
:101D6000054600BF306880033FF5C8AEFEF7C0FCF3
:101D7000401B6428F6D9032002B0BDE8F08100BF03
:101D80007068E16900F480028A4221D1216A00F082
:101D90003F028A421CD147F6C071626A0140B1EB32
:101DA000821F15D1A16A4FF6FF73C903994300F44E
:101DB0004032A1F580318A420AD1E16A00F07060B8
:101DC000B0EB016F04D1002002B0BDE8F08100BF8C
:101DD000012002B0BDE8F08104F11C052FCD0843BD
:101DE00040EA8210D9034FF6FF729143A1F580318A
:101DF00040EA05600843706001203866FEF778FC11
:101E0000044600BF30688001DDD4FEF771FC001B82
:101E100002284FF00300F5D955E700BFFEF768FC34
:101E2000054641F2883700BF306F800708D5FEF7BE
:101E30005FFC401BB8424FF00300F5D943E700BFF9
:101E4000B8F1000F3FF57FAE306C20F08050306469
:101E500079E600BFFEF74CFC054600BF3068800302
:101E60007FF54CAEFEF744FC401B64284FF00300A6
:101E7000F4D928E7411E0020B0EB116F1CBF0120F0
:101E800070474EF21002CEF2000251604EF623511E
:101E9000CEF20001F0230B700721906011607047B3
:101EA000FEE7000080B541F27C5040F20801C2F22A
:101EB0000000C2F20001002200F032FD002818BF2D
:101EC000FEF72EFB41F27C5040F22801C2F20000E6
:101ED000C2F2000100F08CFF002818BFFEF720FBC3
:101EE00041F27C5040F2C401C2F20000C2F2000193
:101EF00000F02CFA002818BFFEF712FB41F27C50CC
:101F0000C2F2000000F09EFF002808BF80BDBDE8BF
:101F10008040FEF705BB0000FEE70000FEE7000082
:101F200041F65800C2F20000FEF750BE70470000B4
:101F300070470000FEF7E2BB10B592B0002043F6F8
:101F40004001CDE90A00CDE908000590CDE9030084
:101F5000CDE901000090C4F202010A68022442F0B7
:101F600080520A60096801F0805100910099009048
:101F700047F20000C4F20000016841F480410160B2
:101F8000006800F4804000900098012006904FF413
:101F9000803007904FF480000D9004200E90A82010
:101FA000CDE90F040720119006A80C94FFF78AFDD5
:101FB00010B172B6FEE700BF0F20CDE9010480200A
:101FC00003904FF48050CDE9040001A80221FFF7EF
:101FD0008BFC18B172B600BFFEE700BF12B010BD97
:101FE0004EF68850CEF20000016841F470010160A5
:101FF0007047000070B5D0F8D42200EB8202D2F80E
:10200000C0324BB301F00F0E8C460EEB8E0100EB8D
:10201000810151F8184F5CB1D0F8C8620EEBCE05C3
:1020200006EB8506F669B4FBF6F505FB1646AEB180
:102030000024C3F81442D2F8C402D0F810E0BEF174
:10204000000F06D0D3F8080203F504716246F0478A
:102050000024204670BD00BF032070BD00240C602A
:1020600061460022002300F0A5FE204670BD00005E
:10207000B0B50446D0F8D40204EB8000D0F8C052CA
:1020800095B1204600F032FDD4F8D412C5F80C0208
:1020900004EB8101D1F8C412D5F80402CA6805F531
:1020A000037190470020B0BD0320B0BD70B5812101
:1020B000044600F05DFC002520460121258700F044
:1020C00057FC20468221A4F8785100F051FCD4F846
:1020D000D402E56404EB8000D0F8C01289B1D0F8D6
:1020E000C40240688047D4F8D40204F5307656F82C
:1020F000200001F03DF9D4F8D40246F82050C4F88D
:10210000BC52002070BD000010B5D0F8D41200EB16
:102110008100D0F8C0428CB1D0F8C41259B194F803
:102120000002FF2807D08B6894F8012221469847C7
:10213000FF2084F80002002010BD00BF032010BD66
:10214000014640F2A4000A22C2F200000A80704751
:10215000F0B581B040F26007C2F20007044638468D
:10216000822100F031FB06463846012100F02CFBAD
:1021700005463846812100F027FB002E1CBF1021A8
:10218000B171002D1CBF4021A98000281CBF402137
:102190008180432140F26000C2F20000218001B042
:1021A000F0BD0000F0B581B040F26007C2F2000758
:1021B00004463846822100F007FB064638460121D6
:1021C00000F002FB05463846812100F0FDFA002EA2
:1021D0001CBF1021B171002D1CBF4FF40071A980EC
:1021E00000281CBF4FF400718180432140F2600041
:1021F000C2F20000218001B0F0BD0000F0B581B056
:1022000040F26007C2F2000704463846822100F01F
:10221000DBFA06463846012100F0D6FA0546384674
:10222000812100F0D1FA002E1CBF1021B171002DC8
:102230001CBF4021A98000281CBF40218180432170
:1022400040F26000C2F20000218001B0F0BD000049
:102250002DE9F04104464FF4077001F08BF8002897
:1022600050D04FF407710546FEF7ABF8D4F8D4020E
:10227000402704EB8000C0F8C052207CC4F8BC5258
:10228000002808BF4FF400772046812102223B46F8
:10229000022600F0A5FC4FF0010820460121022291
:1022A0003B46A4F8388000F09BFC1020A4F84E00B8
:1022B0002046822103220823A4F8788100F090FCB4
:1022C000D4F8D4020027C5F8047204EB8000D0F8DB
:1022D000C402A4F84C8000688047C5F81472C5F8A1
:1022E0001872D5F8042252B1207C01210028204622
:1022F00014BF40234FF4007300F086FC00263046E4
:10230000BDE8F081D4F8D402002104EB8000C0F8CD
:10231000C0120220BDE8F081D0F8D41200EB810198
:10232000D1F8C012002904BF0320704780B590F88F
:1023300010C0D1F8042240230121BCF1000F08BFD6
:102340004FF4007300F060FC002080BD00290FBF37
:102350000320D0F8D42200EB8200C0F8C41218BFCA
:1023600000207047D0F8D42200EB8200D0F8C002E1
:1023700000280EBF0320C0F80412002070470000A0
:10238000D0F8D43200EB8300D0F8C00200280FBF91
:102390000320C0F80812C0F8102200207047000087
:1023A00070B582B00446D0F8D4020D4604EB80002C
:1023B000D0F8C0620021002E8DF80710ADF804108F
:1023C00062D0297811F0600218D0202A58D1EA880A
:1023D000002A29D049B2B1F1FF3F31DD687831469A
:1023E00086F800022046402A28BF402286F80122B3
:1023F00000F09AF80026304602B070BD68780B28CD
:102400003ED80026DFE800F008063C3C3C3C3C3C63
:102410003C3C2A38EFE700BF94F89C0203282FD1F8
:1024200001A92046022221E0D0F8C402294683688F
:102430006878002200269847304602B070BD00BF81
:10244000D0F8C4023146836868789847EA88204605
:10245000072A28BF0722314608E000BF94F89C02F3
:1024600003280DD10DF107012046012200F076F876
:102470000026304602B070BD94F89C020328BAD002
:102480002046294600F044F80326304602B070BDCD
:10249000D0F8D41200EB8101D1F8C022002A04BF89
:1024A00003207047D2F8141200294FF0010101D027
:1024B0000846704780B5C2F81412D2F81032D2F82C
:1024C00008228121C36200F075FC0021BDE8804034
:1024D0000846704780B5D0F8B82252689047002867
:1024E00018BF032080BD0000002070470020704707
:1024F00080B513460A46002100F086FB002080BD0F
:1025000080B513460A46002100F054FC002080BD2F
:1025100010B58021044600F01BFC20460021BDE8D8
:10252000104000F015BC000080B513460A46032198
:10253000C0F894120021C0E9563300F065FB00207A
:1025400080BD000080B50521C0F894120021002252
:10255000002300F059FB002080BD000080B5134629
:102560000A460221C0F894120021C0E9063300F0A7
:1025700021FC002080BD000080B50421C0F8941229
:1025800000210022002300F015FC002080BD000087
:1025900010B540F25C14C2F200040A4602A02146C3
:1025A00000F054F9204610BD43444320436F6E664B
:1025B0006967000040F2B0001222C2F200000A80F7
:1025C0007047000010B540F25C14C2F200040A46E5
:1025D00002A0214600F03AF9204610BD43444320B2
:1025E000496E7465726661636500000040F2D80050
:1025F0000422C2F200000A807047000010B540F2C9
:102600005C14C2F200040A4602A0214600F01EF942
:10261000204610BD53544D6963726F656C656374D9
:10262000726F6E696373000010B540F25C14C2F201
:1026300000040A4602A0214600F008F9204610BD19
:1026400053544D3332205669727475616C20436F58
:102650006D506F727400000047F61020C1F6FF70D5
:10266000026883684FF01A0C9B18A1F800C000F0B4
:10267000A680B0B54FF0370C1A0F0CEB1371406801
:10268000B3F1204F38BF02F1300140F2DC02C2F258
:102690000002917019014FF0000E0CEB117582F8D9
:1026A00003E0C3F30364B1F1204F38BF04F13005F8
:1026B000190215710CEB117582F805E0C3F3035490
:1026C000B1F1204F38BF04F13005190395710CEBBF
:1026D000117582F807E0C3F30344B1F1204F38BF0E
:1026E00004F13005190415720CEB117582F809E03C
:1026F000C3F30334B1F1204F38BF04F1300519059D
:1027000095720CEB117582F80BE0C3F30324B1F161
:10271000204F38BF04F1300519061573C3F30314B5
:102720000CEB1175B1F1204F4FEA037103F00F0369
:1027300082F80DE038BF04F1300503F137049573DA
:1027400082F80FE0B1F1204F38BF03F13004010FE0
:102750000CEB1073147482F811E0B0F1204F38BF05
:1027600001F1300301010CEB1174937482F813E052
:10277000C0F30363B1F1204F38BF03F1300401020D
:102780001475C0F303530CEB1174B1F1204F4FEAF1
:10279000003182F815E038BF03F130040CEB1173FF
:1027A000947582F817E0C0F30340B1F1204F38BFB1
:1027B00000F13003137682F819E0BDE8B04040F232
:1027C000DC00C2F200007047B0F802C003789C45FC
:1027D0009CBF0020704780B508E000BF82788A4225
:1027E00008BF80BD73449AB262452DD290F800E0D4
:1027F00070444278052A02D182788A4225D07344F7
:102800009AB2624520D290F800E070444278052ADE
:1028100002D182788A4218D073449AB2624513D2A8
:1028200090F800E070444278052A02D182788A420A
:102830000BD073449AB2624506D290F800E070441F
:102840004278052ACAD0CDE7002080BD002808BF05
:10285000704710B50378ABB100F1020E4FF0000CD9
:102860001EF8013C93B19EF800309BB19EF80130F8
:10287000A3B19EF802300CF1040C002B0EF1040EF3
:10288000EED10DE04FF0000C0AE000BF4CF0010C5F
:1028900006E000BF4CF0020C02E000BF4CF0030C5D
:1028A0005FFA8CFC022303EB4C03138003220B70B2
:1028B0004A7090F800E0BEF1000F2ED0841C022276
:1028C0004FF0000CD3B201F803E043F0010301F82C
:1028D00003C014F8013C03B3901CC0B20B5440F089
:1028E000010001F800C02378BBB1101DC0B20B5429
:1028F00040F0010001F800C0637873B1901DC0B2D0
:102900000B5440F0010001F800C094F802E00832D6
:10291000BEF1000F04F10404D4D1BDE810407047AB
:10292000002804BF032070470023C0F8B832C0F865
:10293000C4320029C0F8D03218BFC0F8B412012147
:1029400080F89C12027000F0D5B8000080B5D0F875
:10295000C802FEF747F840F20032C100C0F201326F
:1029600022FA01F1032888BF0321C8B280BD00000C
:1029700080B5D0F8C802FEF70DF840F20032C10071
:10298000C0F2013222FA01F1032888BF0321C8B244
:1029900080BD0000B0B5044691B194F89C020328B4
:1029A00051D1D4F8B8024269002A4CD00020C4F8B2
:1029B000D40220469047002808BF0020B0BD00BFC9
:1029C000D4F89402022837D1D4E9070188420DD9FE
:1029D000431A204611461A46E361FFF791FD20464F
:1029E00000210022002300F00FF925E010D1A16999
:1029F00081420DD3D4F89802814209D220460021A9
:102A000000220025FFF77CFDC4F89852E7E700BFDD
:102A100094F89C02032808D1D4F8B802C16821B107
:102A20000020C4F8D402204688472046802100F0C8
:102A30008FF92046FFF786FD94F8A00200281CBFFE
:102A4000002084F8A0020020B0BD000010B50446AC
:102A500081B194F89C0203281FD1D4F8B80282698E
:102A6000DAB10020C4F8D40220469047002808BFFD
:102A7000002010BDD4F8940203280ED1D4E95703E6
:102A800098420DD9C01AC4F85C01984238BF034679
:102A9000204611461A46FFF72BFD002010BD00BF4F
:102AA00094F89C02032808D1D4F8B802016921B136
:102AB0000020C4F8D402204688472046FFF75CFD7A
:102AC000002010BD00207047012180F89C12D0F832
:102AD000B812002904BF0020704780B54A68017908
:102AE0009047002818BF032080BD0000D0F8C8021E
:102AF000FDF7ACBF017809B10020704710B541F671
:102B00005801C2F20001C1F8E004C0F8C8124FF049
:102B1000A0400860042008714FF40070C8800220B3
:102B2000C1F809000020C8810846FEF7F1FC002822
:102B300018BFFDF7F5FC41F65804C2F20004204628
:102B40008021FDF797FE204600214022FDF796FEEA
:102B5000204601218022FDF791FEBDE810400020B3
:102B6000704700004AB2D0F8C80201F07F0101EBC3
:102B7000C10100EB810000F25621002A48BF00F19C
:102B80001601087870470000D0F8D42200EB8202CA
:102B9000D2F8B822002A04BF0320704790F89C3274
:102BA000032B05D1126A1AB180B59047002080BD71
:102BB00000207047D0F8D42200EB8202D2F8B8226D
:102BC000002A04BF0320704790F89C32032B05D1E4
:102BD000526A1AB180B59047002080BD002070472E
:102BE00080B59446D0F8C8021A466346FDF738FF10
:102BF00040F20032C100C0F2013222FA01F1032892
:102C000088BF0321C8B280BD80B5D0F8C802FDF7E7
:102C10005BFF40F20032C100C0F2013222FA01F142
:102C2000032888BF0321C8B280BD0000F0B581B081
:102C30000126002580F89C62C0F894520446456045
:102C4000D0F8B802C4F8A45284F8A05240B1426847
:102C500032B12046002190470546002818BF0325C1
:102C600020460021002240234027FFF7B9FF2046DD
:102C7000802100224023A4F86461C4F86071FFF74A
:102C8000AFFFA6842846276201B0F0BD90F89C12E1
:102C9000042904BF90F89D1280F89C120020704710
:102CA00090F89C12032908D1D0F8B81229B1C9694B
:102CB00019B180B58847BDE880400020704700000A
:102CC000024600201174704780B5D0F8C802FEF7A4
:102CD000B5FD40F20032C100C0F2013222FA01F12A
:102CE000032888BF0321C8B280BD0000B0B500F240
:102CF000AA250446284600F06FF80120C4F8940283
:102D000094F8AA02B4F8B02200F01F010229C4F816
:102D1000982209D001290DD091B920462946BDE855
:102D2000B04000F091B800BF20462946BDE8B04051
:102D300000F032BA20462946BDE8B04000F0DABAC9
:102D400000F080012046BDE8B04000F001B800006E
:102D500080B5D0F8C802FDF7D9FE40F20032C100BC
:102D6000C0F2013222FA01F1032888BF0321C8B260
:102D700080BD000080B5D0F8C802FEF77BFD40F2B0
:102D80000032C100C0F2013222FA01F1032888BFEB
:102D90000321C8B280BD0000014690F89C020422C5
:102DA00004281CBF91F89C0281F89D02002081F844
:102DB0009C22704780B5D0F8C802FDF7E5FE40F2CE
:102DC0000032C100C0F2013222FA01F1032888BFAB
:102DD0000321C8B280BD00000A7802704A784270B0
:102DE0004A8842808A888280C988C18070470000F2
:102DF00010B582B004460020ADF80600B1B1D4F899
:102E0000D42204F52E70C4F8B81250F82200C16A1A
:102E100021B10DF106008847C4F8D002D4F8D802D9
:102E20000130C4F8D802002002B010BD032002B067
:102E300010BD0000D0F8B822002A04BF002070475F
:102E400012681047FFF796BFB0B582B00D460978FB
:102E5000044611F0600111D0402902D0202940F031
:102E6000D580D4F8D402294604EB8000D0F8B8020B
:102E70008268204602B0BDE8B04010476878092853
:102E800000F2C480DFE800F0061CC230C26884C2D1
:102E90003C5200BF94F89C020138022800F2B68030
:102EA000E888022840F0B280D4F8A4020322002867
:102EB00008BF0122214641F80C2F2046022251E191
:102EC00094F89C020138022800F2A080688800254E
:102ED000012840F0A480C4F8A4522046FFF74CFB20
:102EE000284602B0B0BD00BF6888022800F0848088
:102EF000012840F08B800120C4F8A40238E100BF13
:102F0000E888012840F0828094F89C02411E022942
:102F100080F076800025214641F8085F2046012296
:102F2000FFF71CFB284602B0B0BD00BF688840F226
:102F30005815C2F2000510F0FE0F287040D0204650
:102F40008021FFF705FF20460021FFF701FF032541
:102F5000284602B0B0BD00BFA888002856D1E88836
:102F6000002853D168887F2850D894F89C120329F0
:102F70004CD0C5B284F89E0220462946FFF7A4FE35
:102F80002046FFF7F9FA002D14BF02200120BFE010
:102F900068884FF0FF3101EB102100220629ADF8BF
:102FA000062000F2ED80DFE811F007004B003D0045
:102FB000EB00EB0059006500D4F8B4020268C1E0F0
:102FC00094F89C22C1B2032A62D0022A40F0828087
:102FD000002900F0CD8020466160FFF72BFF00281C
:102FE00000F09280054620468021FFF7B1FE204682
:102FF0000021FFF7ADFE67E0687984F8A002B7E032
:10300000032803D1211D20460122ABE02046802168
:10301000FFF79EFE204600210025FFF799FE284677
:1030200002B0B0BDC0B2052800F2AA80DFE800F00F
:1030300004767A7E828600BFD4F8B402426880E0CB
:10304000217CD4F8B80200290CBF816AC16A0DF155
:10305000060088470146022018E000BF207C0028B7
:1030600040F08E80D4F8B802416B0DF1060088471D
:103070006CE000BF207C002840F08280D4F8B802C9
:10308000016B0DF1060088470146072048705EE09D
:1030900081B3606888426BD0C1B22046FFF71AFA4C
:1030A000297820466160FFF7C5FE002860D00546FC
:1030B00020468021FFF74CFE20460021FFF748FE06
:1030C00021792046FFF706FA022084F89C02284660
:1030D00002B0B0BD20468021FFF73AFE2046002115
:1030E000FFF736FE29782046FFF7F4F90325284636
:1030F00002B0B0BD022084F89C026160204600212D
:103100000025FFF7E7F9E8E62046FFF735FA032048
:1031100084F89C020025284602B0B0BDD4F8B40261
:1031200082680EE0D4F8B402C2680AE0D4F8B402AF
:10313000026906E0D4F8B402426902E0D4F8B402AD
:103140008269EAB1207C0DF1060190470146EA88C8
:1031500072B1BDF8060098B1904238BF0246ADF892
:1031600006202046FFF7FAF90025284602B0B0BD38
:103170002046FFF701FA0025284602B0B0BD00BF87
:1031800020468021FFF7E4FD20460021FFF7E0FD07
:103190000025284602B0B0BD70B50E4609783579D5
:1031A00011F0600104460BD0402902D0202940F0E4
:1031B0007F8020462946FFF797F9D8B1002070BDDF
:1031C000707828B301283FD0032871D194F89C026D
:1031D00003283DD1708840B915F07F0005D0F088F4
:1031E00018B920462946FFF7B3FD2046FFF7C4F97A
:1031F000002070BDD4F8B80282680020002AC4F80C
:10320000D402DBD020463146BDE87040104700BFF5
:1032100094F89C02032829D0022808BF5FEA456081
:1032200046D115F0800004F114014FF0140004BFE2
:103230004FF4AA7004F5AA710022225020460222FF
:10324000FFF78CF9002070BD94F89C02032839D058
:1032500002282DD168062BD020462946FFF778FD9D
:1032600020468021FFF774FD002070BD05F00F009F
:1032700000EB8000802D04EB80002CBF808CB0F828
:103280006401A8B105F07F0000EB800004EB800032
:1032900000F11406802D38BF00F5AA7668061FD00D
:1032A00020462946FFF75EFC002818BF012018E0E1
:1032B00020468021FFF74CFD20460021FFF748FD06
:1032C000002070BD708800287FF478AF680603D0B6
:1032D00020462946FFF73AFB2046FFF74DF968E7FD
:1032E00000203060204631460222FFF737F90020E7
:1032F00070BD0000B0B50D460978044611F06001BC
:1033000018BF402910D194F89C02013802280DD82A
:10331000A88810F0FE0F09D1C1B22046FFF7E6F8E9
:1033200080B10320B0BD00BF2029ECD02046802111
:10333000FFF70EFD204600210025FFF709FD284676
:10334000B0BD00BFD4F8B8028268002AE9D00020DE
:10335000C4F8D402204629469047E988054600294A
:1033600008BF002DEBD12046FFF706F90020B0BDC5
:103370007047000040F25C30C2F20000704700006D
:1033800010B50A784B78D0F81CE802F00F04012B36
:103390004FEA421C18D10123A34043EA0E03C0F8B0
:1033A0001C386044D0F800391B0428D48B6800F521
:1033B0001060097904686FF3DF2343EA814144EA2E
:1033C0008252114316E000BF4FF48032A24042EA1D
:1033D0000E02C0F81C286044D0F8002B12040ED452
:1033E0008A6800F5306009796FF3DF22036842EAEA
:1033F0008141194341F0805141F4004101600020B6
:1034000010BD00000146D0F8000940F2FF72904361
:10341000C1F80009D1F8040840F480720020C1F816
:103420000428704782B002F47F42B2F5807F40F0FA
:103430007F80826B4FF6BF7322F480328263C26852
:10344000CFF6BD731A40C260029BC268DBB222F4A1
:103450004012012BC26003D1C26842F48012C260E4
:1034600000220092009A01320092009AB2F1706F2D
:1034700000F2BE800269002A21D4009A0132009233
:10348000009AB2F1706F00F2B3800269002A16D47C
:10349000009A01320092009AB2F1706F00F2A88097
:1034A0000269002A0BD4009A01320092009AB2F10C
:1034B000706F00F29D800269B2F1FF3FD2DC002202
:1034C0000092026942F001020261009A0132009208
:1034D000009AB2F1706F00F28B800269D2071ED0A1
:1034E000009A01320092009AB2F1706F00F280806F
:1034F0000269D20713D0009A01320092009AB2F109
:10350000706F75D80269D20709D0009A0132009213
:10351000009AB2F1706F6BD80269D207D5D14FF023
:10352000000C01F47F01B1F5803F40F0818077E02D
:10353000C26842F04002C26000220192019A013248
:103540000192019AB2F1706F5AD80269002A1ED412
:10355000019A01320192019AB2F1706F50D802695A
:10356000002A14D4019A01320192019AB2F1706FCB
:1035700046D80269002A0AD4019A01320192019ABE
:10358000B2F1706F3CD80269B2F1FF3FD6DC002285
:103590000192026942F001020261019A0132019234
:1035A000019AB2F1706F2BD80269D2071DD0019A2F
:1035B00001320192019AB2F1706F21D80269D207EB
:1035C00013D0019A01320192019AB2F1706F17D8AB
:1035D0000269D20709D0019A01320192019AB2F12F
:1035E000706F0DD80269D207D7D14FF0000C09E0F7
:1035F0004FF0030C01F47F01B1F5803F18D10FE0CB
:103600004FF0030C826B13F47F4F14BF22F480320F
:1036100042F48032826301F47F01B1F5803F07D12B
:10362000816841F006018160816841F0200181607C
:10363000604602B07047000080B54A780978012AD8
:103640004FEA41122AD10244D2F8003947F6000C61
:10365000CEF6334C02F51062B3F1FF3F4FF0010E8E
:1036600007DC136843F000631360136843F0804382
:10367000136001F00F01D0F83C380EFA01F18B43D2
:10368000C0F83C38D0F81C3823EA0101C0F81C18F7
:10369000106800EA0C010020116080BD831803F55A
:1036A0003062D3F800EB47F60003CEF6334303F164
:1036B000707CBEF1FF3F4FF4803EDADCD1E70000C2
:1036C0000146D0F8000E20F00300C1F8000ED1F83A
:1036D000040820F002020020C1F80428704700000E
:1036E0000146D0F8000E20F00300C1F8000ED1F81A
:1036F000040840F002020020C1F8042870470000CE
:103700002DE9F04F85B0C3F3074990468A46002261
:10371000B9F1000FC0F80421C0F80821C0F80C214D
:10372000C0F81021C0F81421C0F81821C0F81C21DD
:10373000C0F82021C0F82421C0F82821C0F82C218D
:10374000C0F83021C0F83421C0F83821C0F83C213D
:1037500008D0826B22F400128263826B42F4002252
:1037600011E000BFD0F8042842F00202C0F804289B
:10377000826B42F400128263826B22F40022826325
:10378000826B22F4802208F47F4382630022B3F527
:10379000807FC0F8002E07D1D0F80038B2EB1A6F46
:1037A00008D1C0F8003809E0D0F8002842F0030240
:1037B00002E000BF43F00102C0F80028002203929B
:1037C000039A01320392039AB2F1706F52D80269E0
:1037D000002A1ED4039A01320392039AB2F1706F49
:1037E00048D80269002A14D4039A01320392039A3A
:1037F000B2F1706F3ED80269002A0AD4039A0132EE
:103800000392039AB2F1706F34D80269B2F1FF3FAC
:10381000D6DC002203924FF484620261039A0132E3
:103820000392039AB2F1706F24D8026992061DD5F3
:10383000039A01320392039AB2F1706F1AD80269A7
:10384000920613D5039A01320392039AB2F1706F74
:1038500010D80269920609D5039A01320392039A9D
:10386000B2F1706F06D802699206D7D44FF0000EFD
:1038700002E000BF4FF0010E00220492049A0132D0
:103880000492049AB2F1706F4ED80269002A1ED4D5
:10389000049A01320492049AB2F1706F44D802691A
:1038A000002A14D4049A01320492049AB2F1706F7F
:1038B0003AD80269002A0AD4049A01320492049A7E
:1038C000B2F1706F30D80269B2F1FF3FD6DC00224E
:1038D000049210220261049A01320492049AB2F115
:1038E000706F21D80269D20620D5049A0132049261
:1038F000049AB2F1706F17D80269D20616D5049AED
:1039000001320492049AB2F1706F0DD80269D206A6
:103910000CD5049A01320492049AB2F1706F03D864
:103920000269D206D7D401E04FF0010E5FFA8AF4A3
:103930004FF0000B002CC0F810B8C0F814B8C0F855
:103940001CB800F0FF80D0F800294FF0006303EAB4
:1039500012124FF67F31651EC0F80029C0F810B969
:10396000C0F808197AD0A21ECDF808A0032A05F0E5
:10397000030A05D20122BAF1000F42D168E000BF6C
:10398000CDE9009825F0030700F5186600234FF0F5
:10399000904C4FF67F324FF0000800BF56F8609C05
:1039A00008F104080CEAE97146F8601C46F8503C3E
:1039B00046F8582C56F8401C47450CEAE17146F889
:1039C000401C46F8303C46F8382C56F8201C0CEACF
:1039D000E17146F8201C46F8103C46F8182C316876
:1039E0000CEAE17131603361B26006F18006D5D135
:1039F00008F10102DDE900984FF67F31BAF1000FBE
:103A000026D000F510675601BB594FF0904C0CEAD8
:103A1000E37307EB4212BB5100264FF67F37BAF132
:103A2000010F1661976013D0136ABAF1020F0CEA06
:103A3000E3731362166397620AD0136C4FF09047DA
:103A400007EAE3731364002313654FF67F3393642F
:103A5000DDF808A0002C4FF0006373D0D0F8002BE5
:103A6000002D03EA1212C0F8002B4FF00002C0F83C
:103A7000102BC0F8081B65D0A21E032A05F0030C0A
:103A800004D20122BCF1000F37D15BE025F0030521
:103A900000F5386600234FF090474FF67F32002440
:103AA00056F8601C043407EAE17146F8601C46F8D9
:103AB000503C46F8582C56F8401CA54207EAE171E4
:103AC00046F8401C46F8303C46F8382C56F8201C86
:103AD00007EAE17146F8201C46F8103C46F8182C1D
:103AE000316807EAE17131603361B26006F1800646
:103AF000D6D1621CBCF1000F24D000F53061540116
:103B00000D594FF0904303EAE57501EB42120D5158
:103B100000254FF67F34BCF1010F1561946011D080
:103B2000116ABCF1020F03EAE1711162156394623C
:103B300008D0116C03EAE1711164002111654FF6A0
:103B40007F319164D0F810181AF47F0F21F480713E
:103B5000C0F810186FF08041C0F818B0416103D16F
:103B6000816941F010018161816943F60002C8F268
:103B70003C02114318F47F0F816103D0816941F049
:103B800008018161B9F1010F05D1816941F08041DE
:103B900041F004018161704605B0BDE8F08F00007E
:103BA0000146806820F0010200208A607047000012
:103BB000D0F840C043F20B03C4F654739C4503D3C2
:103BC000D0F8003B002B1ED40023C0F8103BD0F8E7
:103BD000103B012943F40023C0F8103BD0F8103B00
:103BE00043F01803C0F8103BD0F8103B43F0C0433B
:103BF000C0F8103B07D1C0F8142BD0F8001B41F0DF
:103C00008021C0F8001B0020704700004A780B7824
:103C1000012A4FEA431210440ED1D0F8002922F4B1
:103C20000012C0F80029097901F0FE01022914D11F
:103C300000F510600DE000BFD0F8002B22F4001258
:103C4000C0F8002B097901F0FE01022905D100F529
:103C50003060016841F08051016000207047000031
:103C60000A784B785101012B084407D1D0F800198C
:103C7000002900F5106107D50BE000BFD0F8001B4C
:103C8000002900F5306104D41AB1086820F08040A2
:103C90000860086840F4001200200A6070470000C5
:103CA000F0B54B7891F800C0012B1FD10D6900EBE6
:103CB0004C1EDEF81049002D0EF510633ED06FF358
:103CC00012041C611C69BCF1000F6FF3DC441C6121
:103CD0008C6863D02E19013EB6FBF4F40027C1F6C0
:103CE000F8771E6907EAC4445FE000BF00EB4C139D
:103CF000D3F8107BBCF1000F6FF31207C3F8107BF1
:103D0000D3F8107B6FF3DC47C3F8107B8C680E6927
:103D100003F530631ED00EB33719013FB7FBF4F73C
:103D2000BEB274430C620026C1F6F8761D6906EA3D
:103D3000C7472F436FF3DF441F6116E06FF3DC4486
:103D40001C611C69002544F400241C611C696FF38C
:103D500012043CE0002E18BF0C610C621F696FF367
:103D6000DF4427431F614FF400241F69012A47EAFB
:103D700004071F6103D1CA68002A18BF5A61097974
:103D800001293AD1D0F808081968C0054FF08050D1
:103D900058BF4FF0005008432EE000BFA54284BF3B
:103DA0000C6125461C694FF4002634431C612C46E7
:103DB0001E696FF3DF4434431C610C79012C07D179
:103DC0001C6924F0C0441C611C6944F000541C614F
:103DD000012A19D1CA69002A18BFCEF81429097915
:103DE00001290AD1D0F80818DEF80009C9054CBF2E
:103DF00040F0805040F0005018604FF004411868C7
:103E0000084318600020F0BD00F510634FEA4C1421
:103E10001F5947F004471F510F79012F3AD1D0F8AD
:103E20000878E658FF054FF0805758BF4FF000570D
:103E30003743002AE750E5D1AAB2002AE2D0D61CC7
:103E40004FF0FF33C96803EB960300F580504FEA4B
:103E50000C32032BC6F381030ED3B70827F00304FB
:103E60000F68043C17504F6817508F681750CF6881
:103E700001F110011750F3D1002BC3D00F68012BB3
:103E80008750BFD04F68022B8750BBD089688150C4
:103E90000020F0BD002DB5D00CF00F01012202FA78
:103EA00001F100F63403AAE781B0002200924A78BB
:103EB0000978012A4FEA41113AD100F510625058B1
:103EC000B0F1FF3F3ADC885842F2107340F00060D6
:103ED0008850885840F08040885000980130009009
:103EE0000098984264D85058B0F1FF3F26DC009803
:103EF00001300090009898425AD85058B0F1FF3FD6
:103F00001CDC0098013000900098984250D850581E
:103F1000B0F1FF3F12DC0098013000900098984209
:103F200046D85058B0F1FF3F4FF00000D5DD3CE0DF
:103F300000F530625058B0F1FF3F03DD002001B0C2
:103F4000704700BF885842F2107340F000608850FC
:103F5000885840F0804088500098013000900098C8
:103F6000984225D85058B0F1FF3FE7DC0098013067
:103F70000090009898421BD85058B0F1FF3FDDDC0C
:103F80000098013000900098984211D85058B0F134
:103F9000FF3FD3DC0098013000900098984207D88A
:103FA000505800284FF00000D6D401B0704700BF31
:103FB000012001B0704700000146806840F0010216
:103FC00000208A607047000081B000220092009AB1
:103FD00001320092009AB2F1706F51D80269002A42
:103FE0001ED4009A01320092009AB2F1706F47D845
:103FF0000269002A14D4009A01320092009AB2F1A8
:10400000706F3DD80269002A0AD4009A01320092EA
:10401000009AB2F1706F33D80269B2F1FF3FD6DC7B
:104020008901002220310092016100990131009143
:104030000099B1F1706F23D8016989061DD50099E7
:10404000013100910099B1F1706F19D801698906A9
:1040500013D50099013100910099B1F1706F0FD81B
:104060000169890609D50099013100910099B1F1E2
:10407000706F05D801698906D7D4002001B0704758
:10408000032001B070470000D0F8080800F00601D6
:1040900080074FF0020058BF0F20002908BF0846D4
:1040A00070470000406900F001007047D0F8181810
:1040B000D0F81C08084080B270470000D0F81818EB
:1040C000D0F81C080840000C70470000D0F810C859
:1040D000D0F8343801F00F0223FA02F2D20100EBDB
:1040E0004110D2B2D0F8080942EA0C0108407047EA
:1040F00000EB4111D1F8081BD0F8140808407047B4
:10410000416980690840704710B5930802F0030EBA
:104110002CD05A1E032A03F0030C0FD323F0030301
:104120004FF480528458043B0C6084584C6084588F
:104130008C608458CC6001F11001F3D1BCF1000F08
:1041400014D04FF4805284580B46BCF1010F43F851
:10415000044B05D11946BEF1000F0AD11EE000BF85
:104160008258BCF1020F4A601AD10831BEF1000F2B
:1041700014D04FF4805280580A46BEF1010F02F865
:10418000010B04BF104610BD020ABEF1020F4A70B7
:1041900004BF881C10BD000C88700331084610BD98
:1041A0004FF4805282588A600C31BEF1000FE0D18A
:1041B000F4E70000B0B50446C068002920F0C04014
:1041C000E06000F09980012940F0B080E0680A25A5
:1041D00040F00050E0600A20FCF7A6F954F8140FF4
:1041E000C00740F09C800A20FCF79EF92068C007B9
:1041F00040F09E800A20FCF797F92068C00740F045
:10420000A5800A20FCF790F92068C00740F0AC8038
:104210000A20FCF789F92068C00740F0B3800A2023
:10422000FCF782F92068C00740F0BA800A20FCF74A
:104230007BF92068C00740F0C1800A20FCF774F9C0
:104240002068C00740F0C8800A20FCF76DF920689C
:10425000C00740F0CF800A20FCF766F92068C0074D
:1042600040F0D6800A20FCF75FF92068C00740F0D4
:10427000DD800A20FCF758F92068C00740F0E48090
:104280000A20FCF751F92068C00740F0EB800A20B3
:10429000FCF74AF92068C00740F0F2800A20FCF7DA
:1042A00043F92068C00740F0F9800A20FCF73CF988
:1042B0002068C00740F000810A20FCF735F920682B
:1042C000C00740F007810A20FCF72EF92068C007DC
:1042D00040F00E810A20FCF727F92068C00740F063
:1042E00016810A20FCF720F92068C825A5F1C8002E
:1042F000B0FA80F04009B0BDE0680A2540F0804087
:10430000E0600A20FCF710F954F8140FC00706D03B
:104310000A20FCF709F92068C00711D11425A5F17E
:10432000C800B0FA80F04009B0BD00BF0120B0BDA8
:104330001425A5F1C800B0FA80F04009B0BD00BF57
:104340000A20FCF7F1F82068C00707D11E25A5F167
:10435000C800B0FA80F04009B0BD00BF0A20FCF7E9
:10436000E3F82068C00707D12825A5F1C800B0FAF6
:1043700080F04009B0BD00BF0A20FCF7D5F82068E6
:10438000C00707D13225A5F1C800B0FA80F0400976
:10439000B0BD00BF0A20FCF7C7F82068C00707D1EE
:1043A0003C25A5F1C800B0FA80F04009B0BD00BFBF
:1043B0000A20FCF7B9F82068C00707D14625A5F107
:1043C000C800B0FA80F04009B0BD00BF0A20FCF779
:1043D000ABF82068C00707D15025A5F1C800B0FA96
:1043E00080F04009B0BD00BF0A20FCF79DF82068AE
:1043F000C00707D15A25A5F1C800B0FA80F04009DE
:10440000B0BD00BF0A20FCF78FF82068C00707D1B5
:104410006425A5F1C800B0FA80F04009B0BD00BF26
:104420000A20FCF781F82068C00707D16E25A5F1A6
:10443000C800B0FA80F04009B0BD00BF0A20FCF708
:1044400073F82068C00707D17825A5F1C800B0FA35
:1044500080F04009B0BD00BF0A20FCF765F8206875
:10446000C00707D18225A5F1C800B0FA80F0400945
:10447000B0BD00BF0A20FCF757F82068C00707D17D
:104480008C25A5F1C800B0FA80F04009B0BD00BF8E
:104490000A20FCF749F82068C00707D19625A5F146
:1044A000C800B0FA80F04009B0BD00BF0A20FCF798
:1044B0003BF82068C00707D1A025A5F1C800B0FAD5
:1044C00080F04009B0BD00BF0A20FCF72DF820683D
:1044D000C00707D1AA25A5F1C800B0FA80F04009AD
:1044E000B0BD00BF0A20FCF71FF82068C00707D145
:1044F000B425A5F1C800B0FA80F04009B0BD00BFF6
:104500000A20FCF711F82068C0077FF4EAAEBE2548
:10451000A5F1C800B0FA80F04009B0BD0246D0F85D
:10452000000801F07F0120F4FE60C2F80008D2F814
:10453000000840EA01110020C2F80018704700008E
:10454000022A02465FD145F24030CFF6277043F28F
:1045500000530844C0F20C03984203D24FF4705049
:1045600053E000BF41F64060CFF61B7044F2402399
:104570000844C0F20F03984202D24FF4605044E066
:10458000A1F5740044F68073A0F51050C0F2120338
:10459000984203D24FF4505037E000BFA1F183702E
:1045A0004DF22063A0F5E740C0F21303984203D216
:1045B0004FF4405029E000BF4BF26060CFF6E56059
:1045C0004EF260330844C0F21603984202D24FF410
:1045D00030501AE04DF20030CFF6CE6047F2407313
:1045E0000844C0F21B03984202D24FF420500CE062
:1045F00045F6C030CFF6B36049F2C0130844C0F2AC
:10460000210398420AD24FF41050D16821F470511E
:10461000D160D16801430020D1607047A1F1B7702B
:1046200047F22053A0F55850C0F23803984203D205
:104630004FF40050E9E700BF45F2E040CFF6596083
:1046400049F6E0430144C0F241034FF4C05099429F
:1046500038BF4FF4E050D8E710B5DDF808C0BCF122
:10466000000F2CD15BB303F1030E4FF0FF3303EBCC
:104670009E0300F580541203032BCEF3810C0FD35D
:104680004FEA9E0323F003030868043B1051486877
:10469000105188681051C86801F110011051F3D110
:1046A000BCF1000F0BD00868BCF1010FA05006D080
:1046B0004868BCF1020FA0501CBF8868A0500020C1
:1046C00010BD0000FEE7000086B01B480DF1040C91
:1046D000009019A0031D0ECB00698CE80E00049019
:1046E000FCF71AF8FDF728FC002043F6300105908E
:1046F000C4F202010A6842F080020A600A6802F00D
:1047000080020592059A0590086840F00100086053
:10471000086800F0010005900598FDF7C3FB6C46A2
:104720002046FBF72FFE81B22046FBF7DBFE4FF45D
:10473000FA70FBF7F9FEF3E748656C6C6F20576F72
:10474000726C64200D0A000000000000F1EE100AF7
:104750004FF6FF71C0F2C03120EA010040F0407016
:10476000E1EE100A704700000000000000000102A6
:10477000030406070809000098470008000000200D
:10478000F8000000EC01000890480008F800002044
:10479000487C00000C02000801000000100000002E
:1047A000B5250008ED250008FD250008292600088C
:1047B0005926000891250008C52500080024F400AA
:1047C00051220008AD200008A123000800000000CD
:1047D00009210008F51F00087120000800000000F2
:1047E0000000000000000000A52100085121000881
:1047F000FD2100084121000809024300020100C018
:104800003209040000010202010005240010010524
:104810002401000104240202052406000107058288
:104820000308001009040100020A00000007050146
:104830000240000007058102400000000A06000255
:1048400000000040010000001201000202020040CE
:10485000830440570002010203010000990400088C
:104860009504000891040008C5040008E10400084C
:10487000040309041A030000000000000000000007
:104880000000000000000000000000000000000028
:040000050800018965
:00000001FF
