:020000040800F2
:10000000D006002055020008A9170008A117000813
:10001000A51700084D04000805190008000000009D
:10002000000000000000000000000000E9180008C7
:100030005104000800000000AD170008ED1800088A
:100040006F0200086F0200086F0200086F020008CC
:100050006F0200086F0200086F0200086F020008BC
:100060006F0200086F0200086F0200086F020008AC
:100070006F0200086F0200086F0200086F0200089C
:100080006F0200086F0200086F0200086F0200088C
:100090006F0200086F0200086F0200086F0200087C
:1000A0006F0200086F0200086F0200086F0200086C
:1000B0006F0200086F0200086F0200086F0200085C
:1000C0006F0200086F0200086F020008B1170008F5
:1000D0006F0200086F0200086F0200086F0200083C
:1000E0006F0200086F0200086F0200086F0200082C
:1000F0006F0200086F0200086F0200086F0200081C
:100100006F0200086F0200086F0200086F0200080B
:100110006F0200086F0200086F0200086F020008FB
:100120006F0200086F0200086F0200086F020008EB
:100130006F0200086F0200086F0200086F020008DB
:100140006F0200086F0200086F0200086F020008CB
:100150006F0200086F0200086F0200086F020008BB
:100160006F0200086F0200086F0200086F020008AB
:100170006F0200086F0200086F0200080000000014
:100180006F0200086F02000800F002F800F052F859
:1001900014A696E8000CB244B344DA4501D100F04D
:1001A00049F8BAE80F000FA696E83000A5EB040561
:1001B00004EB0607AAEB0704A7F101074FEA1515A0
:1001C0004FEA3414A4F10104AC4201D300F032F838
:1001D00013F0010F18BFFB1A43F0010300F001F800
:1001E000DBE718473C1900005C190000103A24BFF7
:1001F00078C878C1FAD8520724BF30C830C144BF8C
:1002000004680C6070470000704700000023002461
:1002100000250026103A28BF78C1FBD8520728BF16
:1002200030C148BF0B6070471FB501F064FC1FBDB3
:1002300010B510BD00F0D0F81146FFF7F5FF01F042
:1002400063FB00F0EEF803B4FFF7F2FF03BC00F02D
:10025000F5F800000948804709480047FEE7FEE737
:10026000FEE7FEE7FEE7FEE7FEE7FEE7FEE7FEE766
:1002700004480549054A064B70470000F11800087C
:1002800089010008D0000020D0060020D002002004
:10029000D002002053EA020C00F069802DE9F04BF7
:1002A0004FF00006002B1FBFB3FA83F503FA05F4E5
:1002B00024FA05F65E4012BF1643B2FA82F502FA3E
:1002C00005F4C5F120051EBF22FA05FC44EA0C0422
:1002D000203556EA044C4FEA144418BF641C4FF012
:1002E00000084FF00009904271EB030C39D300294C
:1002F00019BFB1FA81F701FA07F6B0FA80F700FAF0
:1003000007F6C7F120071EBF20FA07FC46EA0C06D5
:100310002037B6FBF4FCA7EB0507103F07F01F0BD7
:10032000CBF120062CFA06F60CFA0BFB44BFB346C1
:100330000026202FA4BF5E464FF0000B5BEA060CA0
:1003400008BF4FF0010B19EB0B0948EB0608ABFB9C
:10035000027C06FB02CC0BFB03CCC01B71EB0C0137
:10036000C1E70B46024641464846BDE8F08B13B54F
:10037000084318BF4FF0FF300146AFF30080BDE8DF
:100380001C4070474FF0000200B513469446964655
:10039000203922BFA0E80C50A0E80C50B1F1200198
:1003A000BFF4F7AF090728BFA0E80C5048BF0CC046
:1003B0005DF804EB890028BF40F8042B08BF7047A4
:1003C00048BF20F8022B11F0804F18BF00F8012B16
:1003D0007047704770477047754600F02BF8AE467F
:1003E00005006946534620F00700854618B020B541
:1003F000FFF73EFFBDE820404FF000064FF000073A
:100400004FF000084FF0000BAC46ACE8C009ACE878
:10041000C009ACE8C009ACE8C00921F007018D466D
:10042000704710B50446AFF300802046BDE8104089
:10043000FFF709BF0048704710000020014918204D
:10044000ABBEFEE72600020070470000FEE700009A
:100450007047000090F83510022909D1052180F875
:1004600035100068016821F001010160002070472B
:1004700080214165012070472DE9F04F82B000F1E5
:100480003E4707F1FF77860546EA972741F6004683
:10049000C4F20206082243F6004EB04208BF07220B
:1004A000C4F2010E072F38BF3A46002600274FF04E
:1004B0000008009209E000BF08F101080237B8F116
:1004C000100F06F1040600F0A3800D68012202FA65
:1004D00008F415EA0409EFD0D1F804B003220BF0B8
:1004E000030CACF10105BA40012D6FEA020A0FD8E6
:1004F0008268CD6802EA0A02BD402A4382604268EF
:10050000A243CBF3001404FA08F42243426005E04E
:10051000BCF1030F02D14FF0030C1EE0C2688C68DF
:1005200002EA0A02BC402243BCF1020FC26014D1AD
:100530006FF0030202EA58020244D2F820C006F02B
:100540001C040F230D69A3402CEA0303A5402B4391
:100550001362D1F804B00BF0030C02680CFA07F335
:1005600002EA0A021A431BF4403F0260A4D00022B0
:1005700043F644030192C4F202031A684FF6084C92
:1005800042F480421A601A68CFF6FF7C02F480427F
:100590000192019A28F00302724452F80C3006F0DE
:1005A0000C050F24AC40A343009C04FA05F52B4333
:1005B00042F80C30DEF808204B6842EA090543F6A1
:1005C0000C4CDC0258BF22EA0905CEF80850C4F2F0
:1005D000010CDCF800209C0242EA090558BF22EA1F
:1005E0000905CCF80050DEF804209C0342EA090516
:1005F00058BF22EA0905CEF80450DEF80020DB03DC
:1006000042EA090558BF22EA0905CEF8005053E72F
:1006100002B0BDE8F08F0000002A08BF0904816124
:100620007047000040F2CC00C2F200000068704742
:1006300040F2000040F2CC01C2F20000C2F2000120
:1006400000780A68104408607047000080B543F6DF
:100650000040C4F20200016841F4007101600168C9
:1006600041F480610160016841F480710160032000
:1006700000F088F8002000F005F800F027F80020CE
:1006800080BD000070B540F20006C2F2000640F2E4
:1006900008013278C2F200014FF47A730968B3FBA3
:1006A000F2F20446B1FBF2F1084601F063F80F2CB8
:1006B0004FF0010508D838B94FF0FF30214600222D
:1006C000002500F033F87460284670BD82B0002029
:1006D00043F640010190C4F202014A6842F48042AC
:1006E0004A604A6802F480420192019A00900868C8
:1006F00040F080500860086800F08050009000983A
:10070000072002B000F03EB8002848BF704700F054
:100710001F01012202FA01F11C2202EAD0004EF26E
:100720000012CEF2000281507047000010B54EF664
:100730000C5CCEF2000CDCF80030C3F3022E8EF01D
:100740000704042C28BF0424BEF103034FF0FF3E2E
:100750000EFA04F438BF0023A14399400EFA03F3C4
:100760009A43114300F00F0200F160430901043A7B
:1007700003F564436244002848BF02F10C0319707A
:1007800010BD00004EF60C51CEF200010A684FF683
:10079000FF031A4060F30A2242F0806040F0FD70CF
:1007A00008607047002804BF012070472DE9F04120
:1007B00043F60808C4F202080446D8F8F8030D46C8
:1007C00000F00700884207D288F8F853D8F8F803F9
:1007D00000F00700A84277D12068810717D54107AC
:1007E00005D5D8F8001041F4E051C8F80010010711
:1007F00005D5D8F8001041F46041C8F80010D8F8C9
:100800000010A26821F0F0011143C8F80010C007E1
:1008100040D1D8F8F80300F00700A84207D988F8BB
:10082000F853D8F8F80300F00700A8424CD120682C
:10083000410707D5D8F80010E26821F4E0511143D0
:10084000C8F80010000708D5D8F80000216920F486
:10085000604040EAC100C8F8000000F055F8D8F840
:10086000001041F61032C1F30311C0F60002515CD2
:1008700040F2080220FA01F140F20400C2F2000046
:100880000068C2F200021160FFF7FCFE0020BDE824
:10089000F08100BF6068811E022907D258F8081C49
:1008A00089015CBF0120BDE8F08111E0012807D17A
:1008B00058F8081C89035CBF0120BDE8F08107E0FF
:1008C00058F8081C890703D40120BDE8F08100BF57
:1008D000D8F8001021F003010843C8F80000FFF722
:1008E000A1FE064641F28837D8F80000616800F0A2
:1008F0000C00B0EB810F8CD0FFF794FE801BB84248
:10090000F2D90320BDE8F08110B543F60404C4F227
:100910000204606800F00C0142F200400829C0F2B5
:10092000F40007D0042918BF10BD41F20020C0F226
:100930007A0010BD216801F03F0221682368490256
:10094000C3F3881106D4A1FB00010023FFF7A2FC2A
:1009500007E000BF41F20020C0F27A004843B0FB3C
:10096000F2F021680222C1F3014102EB4101B0FB28
:10097000F1F010BD002804BF012070472DE9F041BF
:1009800082B00446007843F60006C007C4F20206AF
:100990000CD0B06800F00C00042840F08180306872
:1009A000800303D56068002800F06A812078800702
:1009B0001BD5B06810F00C0F09D0B06800F00C0027
:1009C000082840F087807068400200F1838030681A
:1009D000800703D5E068012840F052813068216922
:1009E00020F0F80040EAC10030602078000713D4FE
:1009F000207840072AD4A569002D00F03C81B0681A
:100A000000F00C00082840F0A180012D40F010817A
:100A1000012002B0BDE8F0816069002840F20000CA
:100A2000C4F2472000F07E800121C0F8801EFFF74D
:100A3000F9FD0546706F8007DAD4FFF7F3FD401B20
:100A40000228F7D9032002B0BDE8F081306C5FEADC
:100A5000C0080AD400200190306C40F0805030640F
:100A6000306C00F080500190019847F20007C4F20A
:100A700000073868C00547D4386840F48070386093
:100A8000FFF7D0FD054600BF3868C0053CD4FFF72E
:100A9000C9FD401B0228F7D9032002B0BDE8F08150
:100AA000B06800F00C00082803D1706840023FF5E0
:100AB00076AF6068B0F5803F07D0B0F5A02F40F06A
:100AC0009B80306840F480203060306840F4803093
:100AD00030609BE0E06800285CD00020C4F2472032
:100AE00001210160FFF79EFD054600BF30688007C9
:100AF0003FF574AFFFF796FD401B0228F6D903209F
:100B000002B0BDE8F08100BFA068012805D005282B
:100B100054D1306F40F004003067306F40F0010076
:100B2000306755E00021C0F8801EFFF77BFD0546C9
:100B3000706F80077FF55CAFFFF774FD401B0228E4
:100B4000F6D9032002B0BDE8F08100BF0027C4F24F
:100B5000472700203866FFF765FD022D05460DD1B9
:100B60003068800140F19080FFF75CFD401B022857
:100B70004FF00300F4D902B0BDE8F0813068800185
:100B800079D5FFF74FFD401B02284FF00300F5D940
:100B9000F1E700BF0020C4F2472000210160FFF709
:100BA00041FD0546306880077FF51FAFFFF73AFD2E
:100BB000401B02284FF00300F4D9DCE7316F002816
:100BC00021F001013167316F21F0040131677DD0DF
:100BD000FFF728FD054641F2883700BF306F8007D8
:100BE00000F18680FFF71EFD401BB842F6D90320B6
:100BF00002B0BDE8F08100BF3168002821F48031E7
:100C00003160316821F4802131607BD0FFF70AFD2B
:100C1000054600BF306880033FF5C8AEFFF702FD10
:100C2000401B6428F6D9032002B0BDE8F08100BF64
:100C30007068E16900F480028A4221D1216A00F0E3
:100C40003F028A421CD147F6C071626A0140B1EB93
:100C5000821F15D1A16A4FF6FF73C903994300F4AF
:100C60004032A1F580318A420AD1E16A00F0706019
:100C7000B0EB016F04D1002002B0BDE8F08100BFED
:100C8000012002B0BDE8F08104F11C052FCD08431E
:100C900040EA8210D9034FF6FF729143A1F58031EB
:100CA00040EA05600843706001203866FFF7BAFC2F
:100CB000044600BF30688001DDD4FFF7B3FC001BA1
:100CC00002284FF00300F5D955E700BFFFF7AAFC53
:100CD000054641F2883700BF306F800708D5FFF71F
:100CE000A1FC401BB8424FF00300F5D943E700BF19
:100CF000B8F1000F3FF57FAE306C20F080503064CB
:100D000079E600BFFFF78EFC054600BF3068800320
:100D10007FF54CAEFFF786FC401B64284FF00300C4
:100D2000F4D928E770470000B0B582B004460068E7
:100D30004168826802F04103012B09D111F04003A0
:100D400006D0216C204602B0BDE8B040084700BF85
:100D5000930709D511F0800306D0616C204602B0DC
:100D6000BDE8B040084700BF12F4B07F18BF11F0D3
:100D7000200301D102B0B0BD530618D594F851300C
:100D8000032B09D100210191C16801918068019074
:100D9000019802B0B0BD00BF636D43F0040363650A
:100DA00000230193C368019383680193019B930619
:100DB00004D4D20511D4626DDAB9DBE7636D43F078
:100DC000010363650023019383680193036823F0A3
:100DD00040030360019BD205EDD5626D42F008022D
:100DE00062650022019282680192019A626D002A76
:100DF000C0D04268890722F0E00242604FF0010251
:100E000084F8512020D0416841F2BD7521F00301E2
:100E10004160E06CC0F6000538B10565FFF71AFBCC
:100E200018B1606D40F040006065A06C0028A1D052
:100E30000565FFF70FFB00289CD0606D40F0400077
:100E4000606502B0B0BD00BF204602B0BDE8B04052
:100E5000FFF768BF70B538B10446406A30B1002072
:100E6000206104F1140007E0012070BD6068B0F556
:100E7000827F03D004F11C00002101600026A662DD
:100E800094F8510020B9204684F8506000F03CF8F6
:100E9000022084F8510094E80F0001F48271056883
:100EA00002F4044225F040050560114403F4006299
:100EB0002369114403F002026369114403F0010243
:100EC000A369E569114403F40072114405F0380286
:100ED000256A114405F08002A56A114305F4005209
:100EE00011430160626A042101EA134102F0100219
:100EF00011444160C16921F40061C161012066654E
:100F000084F85100304670BD016843F20000C4F21D
:100F10000100814218BF704780B586B0002143F6BA
:100F200030020191C4F20202536900F5504043F4CB
:100F300080535361536903F480530193019B0191E2
:100F4000136843F001031360126802F0010201927A
:100F5000019AE02201920222CDE9022103210491AB
:100F60000521059101A9FFF787FA2320002100221E
:100F7000FFF7DCFB2320FFF7C7FB06B0BDE880408E
:100F8000704700002DE9F04381B0044690F851000D
:100F9000012811D16068994616460D46B0F5827F4A
:100FA00001D1A068D0B194F85000012806D10227E1
:100FB000384601B0BDE8F083022708E0012784F835
:100FC0005070FFF72FFB002D18BF002E14D100200A
:100FD00084F85000384601B0BDE8F083042084F85E
:100FE0005100204629462A463346CDF8009000F0AD
:100FF0000DFA01B0BDE8F08380460420002184F89A
:1010000051006165A563A687E6872163A186E18615
:10101000A2682068B2F5004F2164616440D1016884
:1010200021F040010160016821F480410160016804
:10103000490638D5E168E08F00293CD000286BD004
:1010400019F101000BD11AE0C068A16B21F8020B65
:10105000A163E08F0138E087E08F00285CD0206832
:101060008168C907F0D1FFF7DDFAA0EB0800484519
:10107000F2D33AE0FFF7D6FAE08F00284CD0206890
:101080008168C907F6D0C068A16B21F8020BA16383
:10109000E08F0138E087E08F0028F0D13CE000BF0E
:1010A00001684906C6D4016841F040010160E16869
:1010B000E08F0029C2D178B319F101000BD11BE0F8
:1010C000007BA16B0870A06B0130A063E08F01383A
:1010D000E087E08F00B320688168C907F0D1FFF78F
:1010E000A1FAA0EB08004845F3D303273FE000BF77
:1010F000FFF798FAE08F78B120688168C907F7D0C8
:10110000007BA16B0870A06B0130A063E08F0138F9
:10111000E087E08F0028EFD16068B0F5827F0ED1C4
:10112000A068B0F5004F02D0B0F5806F0AD12168F9
:10113000B0F5806F0A6822F040020A6002D12046B2
:10114000012101E02046802100224B46CDF800809D
:1011500000F03AFB28B1606D40F02000606520206F
:101160006065606D10B1012731E700BF00270120E5
:1011700084F851002BE700002DE9F04184B00446CB
:1011800090F85000012803D1022004B0BDE8F0819E
:1011900001201D4616460F4684F85000FFF742FA1C
:1011A00094F8511001290DD18046002F4FF0010015
:1011B00018BF002E0ED1002184F8501004B0BDE8F5
:1011C000F08100BF0220002184F8501004B0BDE877
:1011D000F08100BF0320002184F85100616527637E
:1011E000A686E686A163A187E187A0682164B0F5A1
:1011F000004F2068616407D1016821F0400101605F
:10120000016841F4804101600168490603D4016826
:1012100041F0400101606168731EE268B1FA81F13A
:10122000B3FA83F349095B09B2F5006F41EA0301A0
:101230003AD131B137F8021BC1602763E08E013823
:10124000E086E08E002869D0681C0CD11BE000BF4E
:10125000216B31F8022BC2602163E08E0138E086F9
:10126000E08E00285AD0206881688907F0D4FFF703
:10127000D9F9A0EB0800A842F2D338E0FFF7D2F981
:10128000E08E00284AD0206881688907F6D5216B56
:1012900031F8022BC2602163E08E0138E086E08ED7
:1012A0000028F0D13AE000BF39B139780173206BE2
:1012B00001302063E08E0138E086E08E70B3681C58
:1012C0000BD11BE0216B09780173206B0130206387
:1012D000E08E0138E086E08E00B3206881688907DF
:1012E000F0D4FFF79FF9A0EB0800A842F3D3032046
:1012F00083E000BFFFF796F9E08E78B1206881683F
:101300008907F7D5216B09780173206B01302063C1
:10131000E08E0138E086E08E0028EFD120460221E1
:1013200001222B46CDF8008000F04EFAD0B1606D5E
:1013300040F02000606520206065A06838B900207A
:1013400002902068C1680291806802900298606DE6
:10135000002851D00120002184F8501004B0BDE8CD
:10136000F08100BF40F20800C2F20000006849F6B8
:101370008171C1F25E61A0FB0101480D4FF47A71E9
:10138000484303906068B0F5827F0BD120468021EE
:1013900000222B46CDF8008000F016FA0028C6D1B6
:1013A000CBE700BF03980028C7D00398013803900B
:1013B000206880680006C0D503980028BDD0039837
:1013C00001380390206880680006B6D5039800288D
:1013D000B3D0039801380390206880680006ACD52C
:1013E00003980028A9D003980138039020688068EA
:1013F0000006D7D4A1E700BF0020012184F85110D6
:10140000002184F8501004B0BDE8F0812DE9F043CC
:1014100083B0044690F85000012803D1022003B0A5
:10142000BDE8F08301201E4615460F4684F85000A3
:10143000FFF7F8F894F85110814601290CD1002FDC
:101440004FF0010018BF002D14D1002184F8501076
:1014500003B0BDE8F08300BF6068B0F5827F40F064
:10146000998004294FF00200EFD1A1680029E6D04D
:10147000EBE700BF002EE8D094F8510000210428CB
:101480001CBF052084F851006165A563E687A68727
:101490002763E6862068A6862164616401684906A0
:1014A00003D4016841F0400101606168731EE26885
:1014B000B1FA81F1B3FA83F3DDF8288049095B09B9
:1014C000B2F5006F41EA03016CD131B137F8021B6C
:1014D000C1602763E08E0138E086012518F1010024
:1014E00031D101E0FFF79EF8E08E18B9E08F0028B7
:1014F00000F0C0802068816889070CD5E18E51B169
:10150000012D08D1216B002531F8022BC260216327
:10151000E18E0139E1868168C907E3D0E18F0029B6
:10152000E0D0C068A16B012521F8020BA163E08F18
:101530000138E087D6E700BFFFF774F8A0EB090099
:10154000404580F0AD80E08E18B9E08F002800F0B3
:1015500091802068816889070CD5E18E51B1012DF9
:1015600008D1216B002531F8022BC2602163E18E86
:101570000139E1868168C907DED0E18F0029DBD01F
:10158000C068A16B012521F8020BA163E08F01382F
:10159000E087D1E70220002184F8501003B0BDE8B5
:1015A000F08300BF39B139780173206B01302063BB
:1015B000E08E0138E086012518F1010032D101E00A
:1015C000FFF730F8E08E10B9E08F002852D0206885
:1015D000816889070ED5E18E61B1012D0AD1216B99
:1015E000002509780173216B206801312163E18EA8
:1015F0000139E1868168C907E2D0E18F0029DFD097
:10160000C068A16B01250870A06B0130A063E08F5A
:101610000138E087D4E700BFFFF704F8A0EB09002A
:1016200040453DD2E08E08B9E08F18B3206881684C
:1016300089070ED5E18E61B1012D0AD1216B0025FC
:1016400009780173216B206801312163E18E013932
:10165000E1868168C907DFD0E18F0029DCD0C0684E
:10166000A16B01250870A06B0130A063E08F0138E9
:10167000E087D1E72046022101224346CDF80090C1
:1016800000F0A2F8B0B1606D40F02000606520204D
:1016900060650120002184F8501003B0BDE8F0839C
:1016A000012084F851000320002184F8501003B079
:1016B000BDE8F08340F20800C2F20000006849F67D
:1016C0008171C1F25E61A0FB0101480D4FF47A7196
:1016D000484302906068B0F5827F21D12046802186
:1016E00000224346CDF8009000F06EF80028CAD1E1
:1016F000A06838B9002001902068C1680191806815
:1017000001900198606D00284FF0010004BF84F83B
:1017100051000020002184F8501003B0BDE8F08390
:1017200002980028E4D0029801380290206880686E
:101730000006DDD502980028DAD002980138029020
:10174000206880680006D3D502980028D0D002987F
:1017500001380290206880680006C9D502980028E8
:10176000C6D0029801380290206880680006D7D45D
:10177000BEE70000411E0020B0EB116F1CBF01202E
:1017800070474EF21002CEF2000251604EF6235125
:10179000CEF20001F0230B700721906011607047BA
:1017A000FEE70000FEE70000FEE7000070470000D3
:1017B00040F27400C2F20000FFF7B6BA806B00215D
:1017C000C187C186FFF7AEBA2DE9F04381B0089C0E
:1017D000984615460E468146FEF724FF201A00EB78
:1017E0000804FEF71FFF40F20801C2F20001096879
:1017F000C1F3CB3161430091D9F800108A683240BF
:10180000921BB2FA82F25209AA423DD0074618F161
:10181000010031D0FEF706FFC01BA04238D200986D
:1018200000990028A1F101010091D9F80010896800
:1018300008BF044601EA0600801BB0FA80F04009A8
:10184000A842E7D120E000BF88683040801BB0FA92
:1018500080F04009A84217D088683040801BB0FA59
:1018600080F04009A8420FD088683040801BB0FA51
:1018700080F04009A84207D088683040801BB0FA49
:1018800080F04009A842DFD1002001B0BDE8F0831C
:10189000D9E900014268B1F5827F22F0E00242609E
:1018A0000BD1D9F80810B1F5004F02D0B1F5806F17
:1018B00003D1016821F040010160D9F82810B1F589
:1018C000005F07D1016821F400510160016841F413
:1018D00000510160012089F85100002089F8500072
:1018E000032001B0BDE8F08370470000FEF7A0BE02
:1018F0004EF68850CEF20000016841F4700101609C
:1019000070470000FEE7000092B043F6300641F257
:101910000004C4F20206C4F20204FEF797FE06AD0C
:10192000281D2C21FEF72EFD00270597CDE9037712
:10193000CDE901770097306940F08050306130691F
:1019400000F080500090009846F200000097CFF61B
:10195000FE70215841F480412150205800F480400D
:1019600000900098022006900120099010200A9013
:1019700028460C97FEF7FEFF10B172B6FEE700BFD7
:101980000F20CDE9010701A80021CDE903770597D4
:10199000FEF708FF10B172B6FEE700BF00270A97F6
:1019A00001973068082140F0100030603068002254
:1019B00000F01000019001980197306840F001009C
:1019C0003060306800F001000190019801973068A4
:1019D00040F0080030603068082600F008000190F0
:1019E00001982046FEF718FEA4F5806528464FF4BE
:1019F000805100224FF48058FEF70EFE0DF11809B9
:101A00000696012620464946CDE907670997FEF765
:101A100033FD28464946CDE90686CDE90877FEF72D
:101A20002BFD4FF48810CDE907072046494606965E
:101A3000FEF722FD40F27005C2F20005A4F56041F8
:101A4000284640F8041F4FF482714FF400721823A7
:101A5000C0E901170A21C0E90377C0E90572C0E9AE
:101A60000737C0E90977C162FFF7F4F910B172B620
:101A7000FEE700BF204608210022FEF7CDFD43F21D
:101A800020102E1D28803046294602223223FFF7DF
:101A900073FB204608210122FEF7BEFD20460821E7
:101AA0000022FEF7B9FDA020287030462946012209
:101AB0003223FFF761FBA91C304601223223FFF7D6
:101AC00061FA204608210122FEF7A6FD20460821E2
:101AD0000022FEF7A1FD4CF623002880304629465F
:101AE00002223223FFF748FB204608210122FEF79D
:101AF00093FD00BFFEE7F1EE100A4FF6FF71C0F252
:101B0000C03120EA010040F04070E1EE100A704759
:101B1000000000000000000001020304060708099D
:101B2000401B00080000002010000000EC0100082D
:101B3000501B000810000020C00600000C02000826
:101B400001000000100000000024F400000000006C
:040000050800018965
:00000001FF
