:020000040800F2
:10000000B006002055020008151700080D1700085B
:10001000111700084D0400084517000800000000F3
:100020000000000000000000000000002917000888
:100030005104000800000000191700082D170008DF
:100040006F0200086F0200086F0200086F020008CC
:100050006F0200086F0200086F0200086F020008BC
:100060006F0200086F0200086F0200086F020008AC
:100070006F0200086F0200086F0200086F0200089C
:100080006F0200086F0200086F0200086F0200088C
:100090006F0200086F0200086F0200086F0200087C
:1000A0006F0200086F0200086F0200086F0200086C
:1000B0006F0200086F0200086F0200086F0200085C
:1000C0006F0200086F0200086F0200086F0200084C
:1000D0006F0200086F0200086F0200086F0200083C
:1000E0006F0200081D1700086F0200086F02000869
:1000F0006F0200086F0200086F0200086F0200081C
:100100006F0200086F0200086F0200086F0200080B
:100110006F0200086F0200086F0200086F020008FB
:100120006F0200086F0200086F0200086F020008EB
:100130006F0200086F0200086F0200086F020008DB
:100140006F0200086F0200086F0200086F020008CB
:100150006F0200086F0200086F0200086F020008BB
:100160006F0200086F0200086F0200086F020008AB
:100170006F0200086F0200086F0200080000000014
:100180006F0200086F02000800F002F800F052F859
:1001900014A696E8000CB244B344DA4501D100F04D
:1001A00049F8BAE80F000FA696E83000A5EB040561
:1001B00004EB0607AAEB0704A7F101074FEA1515A0
:1001C0004FEA3414A4F10104AC4201D300F032F838
:1001D00013F0010F18BFFB1A43F0010300F001F800
:1001E000DBE718476817000088170000103A24BFA3
:1001F00078C878C1FAD8520724BF30C830C144BF8C
:1002000004680C6070470000704700000023002461
:1002100000250026103A28BF78C1FBD8520728BF16
:1002200030C148BF0B6070471FB501F07AFB1FBD9E
:1002300010B510BD00F0D0F81146FFF7F5FF01F042
:1002400083FA00F0EEF803B4FFF7F2FF03BC00F00E
:10025000F5F800000948804709480047FEE7FEE737
:10026000FEE7FEE7FEE7FEE7FEE7FEE7FEE7FEE766
:1002700004480549054A064B70470000311700083D
:1002800089010008B0000020B0060020B002002064
:10029000B002002053EA020C00F069802DE9F04B17
:1002A0004FF00006002B1FBFB3FA83F503FA05F4E5
:1002B00024FA05F65E4012BF1643B2FA82F502FA3E
:1002C00005F4C5F120051EBF22FA05FC44EA0C0422
:1002D000203556EA044C4FEA144418BF641C4FF012
:1002E00000084FF00009904271EB030C39D300294C
:1002F00019BFB1FA81F701FA07F6B0FA80F700FAF0
:1003000007F6C7F120071EBF20FA07FC46EA0C06D5
:100310002037B6FBF4FCA7EB0507103F07F01F0BD7
:10032000CBF120062CFA06F60CFA0BFB44BFB346C1
:100330000026202FA4BF5E464FF0000B5BEA060CA0
:1003400008BF4FF0010B19EB0B0948EB0608ABFB9C
:10035000027C06FB02CC0BFB03CCC01B71EB0C0137
:10036000C1E70B46024641464846BDE8F08B13B54F
:10037000084318BF4FF0FF300146AFF30080BDE8DF
:100380001C4070474FF0000200B513469446964655
:10039000203922BFA0E80C50A0E80C50B1F1200198
:1003A000BFF4F7AF090728BFA0E80C5048BF0CC046
:1003B0005DF804EB890028BF40F8042B08BF7047A4
:1003C00048BF20F8022B11F0804F18BF00F8012B16
:1003D0007047704770477047754600F02BF8AE467F
:1003E00005006946534620F00700854618B020B541
:1003F000FFF73EFFBDE820404FF000064FF000073A
:100400004FF000084FF0000BAC46ACE8C009ACE878
:10041000C009ACE8C009ACE8C00921F007018D466D
:10042000704710B50446AFF300802046BDE8104089
:10043000FFF709BF0048704710000020014918204D
:10044000ABBEFEE72600020070470000FEE700009A
:100450007047000072B600BFFEE70000B0B504466A
:1004600000F0EEF8054640F20000C2F2000000780D
:10047000611C18BF044400BF00F0E2F8401BA0421A
:10048000FAD3B0BD2DE9F04F82B000F13E4707F13D
:10049000FF77860546EA972741F60046C4F2020632
:1004A000082243F6004EB04208BF0722C4F2010EF4
:1004B000072F38BF3A46002600274FF00008009269
:1004C00009E000BF08F101080237B8F1100F06F18A
:1004D000040600F0A3800D68012202FA08F415EA70
:1004E0000409EFD0D1F804B003220BF0030CACF1F7
:1004F0000105BA40012D6FEA020A0FD88268CD6863
:1005000002EA0A02BD402A4382604268A243CBF35A
:10051000001404FA08F42243426005E0BCF1030F22
:1005200002D14FF0030C1EE0C2688C6802EA0A0296
:10053000BC402243BCF1020FC26014D16FF0030231
:1005400002EA58020244D2F820C006F01C040F232D
:100550000D69A3402CEA0303A5402B431362D1F895
:1005600004B00BF0030C02680CFA07F302EA0A026B
:100570001A431BF4403F0260A4D0002243F6440318
:100580000192C4F202031A684FF6084C42F480420A
:100590001A601A68CFF6FF7C02F480420192019A39
:1005A00028F00302724452F80C3006F00C050F24B8
:1005B000AC40A343009C04FA05F52B4342F80C30F1
:1005C000DEF808204B6842EA090543F60C4CDC02D1
:1005D00058BF22EA0905CEF80850C4F2010CDCF835
:1005E00000209C0242EA090558BF22EA0905CCF81E
:1005F0000050DEF804209C0342EA090558BF22EAB5
:100600000905CEF80450DEF80020DB0342EA0905B4
:1006100058BF22EA0905CEF8005053E702B0BDE802
:10062000F08F0000426902EA0103914341EA03416D
:1006300081617047002A08BF09048161704700008A
:1006400040F2A800C2F200000068704740F20000CB
:1006500040F2A801C2F20000C2F2000100780A686C
:10066000104408607047000080B543F60040C4F2B3
:100670000200016841F400710160016841F4806189
:100680000160016841F480710160032000F088F886
:10069000002000F005F800F027F8002080BD0000E1
:1006A00070B540F20006C2F2000640F2080132784E
:1006B000C2F200014FF47A730968B3FBF2F2044608
:1006C000B1FBF2F1084601F00BF80F2C4FF00105D9
:1006D00008D838B94FF0FF3021460022002500F03D
:1006E00033F87460284670BD82B0002043F64001A4
:1006F0000190C4F202014A6842F480424A604A68AA
:1007000002F480420192019A0090086840F0805003
:100710000860086800F0805000900098072002B040
:1007200000F03EB8002848BF704700F01F010122CA
:1007300002FA01F11C2202EAD0004EF20012CEF2BF
:10074000000281507047000010B54EF60C5CCEF2EE
:10075000000CDCF80030C3F3022E8EF00704042CEA
:1007600028BF0424BEF103034FF0FF3E0EFA04F449
:1007700038BF0023A14399400EFA03F39A43114373
:1007800000F00F0200F160430901043A03F56443ED
:100790006244002848BF02F10C03197010BD00002C
:1007A0004EF60C51CEF200010A684FF6FF031A40D4
:1007B00060F30A2242F0806040F0FD7008607047EC
:1007C000F0B581B00446006810F0050F2DD0682701
:1007D000C4F2472743F670060020C4F202063860D0
:1007E000FFF72EFF054600BF56F8700C000105D537
:1007F000FFF726FF401B0228F6D93FE0D4E90101AC
:10080000090741EA8010706101203860FFF718FF86
:10081000054600BF56F8700C000105D4FFF710FF25
:10082000401B0228F6D929E0206880074FF000001D
:1008300058D543F67006C4F20206009056F8300C04
:1008400047F2000740F0805046F8300C56F8300C64
:10085000C4F2000700F0805000900098386840F41F
:1008600080703860FFF7ECFE054600BF3868C005B1
:1008700008D4FFF7E5FE401B0228F7D9032001B09A
:10088000F0BD00BF306810F4407013D0E16801F48F
:10089000407188420ED0306840F64061C4F2472172
:1008A000012220F440700A6000220A603060306843
:1008B000C00719D1E06856F8681C4FF6FF4300F4F2
:1008C000407221F4F811C0F6FF730340B2F5407F87
:1008D00008BF194346F8681C31686FF31F3008439E
:1008E0003060002001B0F0BDFFF7AAFE054641F2DE
:1008F000883700BF30688007DCD4FFF7A1FE401BBB
:10090000B8424FF00300F5D9ECE70000002804BF1F
:10091000012070472DE9F04143F60808C4F20208AF
:100920000446D8F8F8030D4600F00700884207D2C5
:1009300088F8F853D8F8F80300F00700A84277D1F8
:100940002068810717D5410705D5D8F8001041F474
:10095000E051C8F80010010705D5D8F8001041F49F
:100960006041C8F80010D8F80010A26821F0F0012A
:100970001143C8F80010C00740D1D8F8F80300F0C0
:100980000700A84207D988F8F853D8F8F80300F010
:100990000700A8424CD12068410707D5D8F80010BD
:1009A000E26821F4E0511143C8F80010000708D5AF
:1009B000D8F80000216920F4604040EAC100C8F87E
:1009C000000000F055F8D8F8001041F63C12C1F3D1
:1009D0000311C0F60002515C40F2080220FA01F156
:1009E00040F20400C2F200000068C2F2000211608E
:1009F000FFF756FE0020BDE8F08100BF6068811E51
:100A0000022907D258F8081C89015CBF0120BDE803
:100A1000F08111E0012807D158F8081C89035CBF58
:100A20000120BDE8F08107E058F8081C890703D4CD
:100A30000120BDE8F08100BFD8F8001021F00301CB
:100A40000843C8F80000FFF7FBFD064641F288376F
:100A5000D8F80000616800F00C00B0EB810F8CD07A
:100A6000FFF7EEFD801BB842F2D90320BDE8F0810C
:100A700010B543F60404C4F20204606800F00C01EF
:100A800042F200400829C0F2F40007D0042918BF40
:100A900010BD41F20020C0F27A0010BD216801F0C3
:100AA0003F02216823684902C3F3881106D4A1FBE1
:100AB00000010023FFF7EEFB07E000BF41F200203A
:100AC000C0F27A004843B0FBF2F021680222C1F381
:100AD000014102EB4101B0FBF1F010BD002804BF61
:100AE000012070472DE9F04182B00446007843F6BA
:100AF0000006C007C4F202060CD0B06800F00C007B
:100B0000042840F081803068800303D560680028A5
:100B100000F06A81207880071BD5B06810F00C0FB8
:100B200009D0B06800F00C00082840F08780706899
:100B3000400200F183803068800703D5E068012817
:100B400040F052813068216920F0F80040EAC1008D
:100B500030602078000713D4207840072AD4A56994
:100B6000002D00F03C81B06800F00C00082840F037
:100B7000A180012D40F01081012002B0BDE8F0817C
:100B80006069002840F20000C4F2472000F07E8037
:100B90000121C0F8801EFFF753FD0546706F8007E6
:100BA000DAD4FFF74DFD401B0228F7D9032002B02D
:100BB000BDE8F081306C5FEAC0080AD400200190E3
:100BC000306C40F080503064306C00F08050019008
:100BD000019847F20007C4F200073868C00547D4FF
:100BE000386840F480703860FFF72AFD054600BF82
:100BF0003868C0053CD4FFF723FD401B0228F7D915
:100C0000032002B0BDE8F081B06800F00C000828B5
:100C100003D1706840023FF576AF6068B0F5803F61
:100C200007D0B0F5A02F40F09B80306840F48020C2
:100C30003060306840F4803030609BE0E06800282D
:100C40005CD00020C4F2472001210160FFF7F8FCCE
:100C5000054600BF306880073FF574AFFFF7F0FC32
:100C6000401B0228F6D9032002B0BDE8F08100BF86
:100C7000A068012805D0052854D1306F40F0040049
:100C80003067306F40F00100306755E00021C0F858
:100C9000801EFFF7D5FC0546706F80077FF55CAFBF
:100CA000FFF7CEFC401B0228F6D9032002B0BDE8B6
:100CB000F08100BF0027C4F2472700203866FFF705
:100CC000BFFC022D05460DD13068800140F19080B7
:100CD000FFF7B6FC401B02284FF00300F4D902B026
:100CE000BDE8F0813068800179D5FFF7A9FC401B91
:100CF00002284FF00300F5D9F1E700BF0020C4F24D
:100D0000472000210160FFF79BFC05463068800703
:100D10007FF51FAFFFF794FC401B02284FF0030044
:100D2000F4D9DCE7316F002821F001013167316F20
:100D300021F0040131677DD0FFF782FC054641F2C6
:100D4000883700BF306F800700F18680FFF778FC9E
:100D5000401BB842F6D9032002B0BDE8F08100BFC5
:100D60003168002821F480313160316821F480211C
:100D700031607BD0FFF764FC054600BF306880031C
:100D80003FF5C8AEFFF75CFC401B6428F6D9032092
:100D900002B0BDE8F08100BF7068E16900F4800234
:100DA0008A4221D1216A00F03F028A421CD147F6D3
:100DB000C071626A0140B1EB821F15D1A16A4FF682
:100DC000FF73C903994300F44032A1F580318A4290
:100DD0000AD1E16A00F07060B0EB016F04D100202D
:100DE00002B0BDE8F08100BF012002B0BDE8F08193
:100DF00004F11C052FCD084340EA8210D9034FF6B9
:100E0000FF729143A1F5803140EA056008437060AC
:100E100001203866FFF714FC044600BF30688001EB
:100E2000DDD4FFF70DFC001B02284FF00300F5D9BD
:100E300055E700BFFFF704FC054641F2883700BFC5
:100E4000306F800708D5FFF7FBFB401BB8424FF01F
:100E50000300F5D943E700BFB8F1000F3FF57FAEBF
:100E6000306C20F08050306479E600BFFFF7E8FB7B
:100E7000054600BF306880037FF54CAEFFF7E0FB0E
:100E8000401B64284FF00300F4D928E770470000A6
:100E900040F60040C4F202004FF48051FFF7C2BB9D
:100EA00010B5044643F61440C4F201004FF400317B
:100EB000016020688168C90444BFC1685FEAC1510C
:100EC0000AD48168890444BFC1685FEA81510FD4A4
:100ED0000120607710BD00BFC16861F4C07121F4CA
:100EE0008071C1602046FFF7D3FF2068E9E700BFAB
:100EF000C16861F4207121F40071C1602046FFF7E0
:100F0000C5FF0120607710BD10B5006840684FEA4A
:100F10001043C0F3042E00F03F0CC0F34234CB70FA
:100F200081F801E081F802C00C700AB1002010BD08
:100F3000DCB2240904EB840403F00F0303EB440345
:100F4000020ACB704FEA1E1343EA830302F00F023A
:100F500002EB43024A704FEA1C1242EA820200F09E
:100F60000F0000EB42008870002010BD10B5006833
:100F7000836A4B6003696FF3DF338B600068C0F3F3
:100F80000543C0F3062E00F07F0CC0F380540B70B5
:100F900081F801E081F802C0CC700AB1002010BDD8
:100FA000020C1B0943EA830302F00F0202EB430227
:100FB000040A0A704FEA1E1202EB820204F00F03C9
:100FC00003EB42024A704FEA1C1202EB820200F06D
:100FD0000F0000EB42008870002010BD002804BF05
:100FE00001207047B0B50446407F20B9002020772B
:100FF000204600F071F8022060772168C868C006BA
:101000005ED4CA20486253204862C868400615D49E
:10101000C86840F08000C860FFF712FB2168CA680A
:1010200052060BD4054600BFFFF70AFB401BB0F584
:101030007A7F49D82168C8684006F5D588684FF698
:10104000BF72CFF68F7210408860D4E9010CD4E9EA
:101050000335626928438D681043284388600B611B
:10106000086940EA0C400861C86820F08000C86048
:10107000886880061AD447F65F70C0F20100C86025
:10108000FFF7DEFA054600BF2168C86880060DD468
:10109000FFF7D6FA401BB0F57A7FF5D904206077C8
:1010A0002068FF2141620120B0BD00BF086C20F420
:1010B00080200864A0690A6C10430864FF2048621D
:1010C000012060770020B0BD042060772068C168EF
:1010D000FF2141620120B0BD80B584B0006842F6B6
:1010E0000002C4F20002002190420291019101D05D
:1010F00004B080BD022000904FF400700390684659
:10110000FFF75EFB002818BFFFF7A4F940F63C602C
:10111000C4F2472001210160292000210022FFF7AD
:1011200013FB2920FFF7FEFA04B080BD2DE9F04F34
:1011300081B040F20803C2F200031B6844F6D355A5
:10114000C1F26205A3FB0535EB0A4FF47A7503FB88
:1011500005FECDF800E0037F012B4FF0020300F005
:1011600033814377D0F800C0DCF8083022B15A064A
:101170000AD40022CA7009E05A0619D44FF00008B8
:1011800081F8038017E000BFCA7892054C780B788D
:101190008D78240244EA03432B44CC691A4391F826
:1011A00020304D69224342EA036242EA050461E0CD
:1011B000CA784FEA82580E784FF0CD09A6F10A049A
:1011C000E3B203FB09F3DA0A4F785FFA86FA02EB1F
:1011D00082024FF0010B8D78A4EB42020BEBD3237C
:1011E000BAF1090F88BF42EA03165FFA86FAA7F13F
:1011F0000A06F4B204FB09F4E20AFBB202EB820233
:101200000BEBD424A6EB4202092B88BF42EA041759
:10121000A5F10A04E6B206FB09F6FAB2F70A07EBF3
:101220008707EBB2A4EB47040BEBD626092B88BF4C
:1012300044EA061591F82040EBB2A4F10A05EEB29B
:10124000120206FB09F642EA0A42F70A1A44E3B21E
:1012500007EB8707A5EB47050BEBD626092B88BFC5
:1012600045EA0614CB694D6943EA08032B431A4348
:1012700042EA04644A688B694D6ACA21CCF824109A
:101280005321CCF82410DCF80810B5F5807F3DD14F
:1012900021F48071CCF80810DCF80C1061F4C071F6
:1012A00021F48071CCF80C1000990139009100995B
:1012B000002900F08180DCF80C10C9071DD10099CD
:1012C000013900910099002976D0DCF80C10C9078B
:1012D00013D1009901390091009900296CD0DCF8F4
:1012E0000C10C90709D10099013900910099002912
:1012F00062D0DCF80C10C907D6D0CCF81C400CF139
:1013000044054FF480514FF480743AE021F40071A9
:10131000CCF80810DCF80C1061F4207121F4007195
:10132000CCF80C10CDF800E000990139009100993B
:10133000002941D0DCF80C1089071AD40099013932
:1013400000910099C1B3DCF80C10890711D4009901
:1013500001390091009979B3DCF80C10890708D4A1
:10136000009901390091009931B3DCF80C1089071C
:10137000DAD5CCF820400CF148054FF400514FF479
:1013800000741A432A60DCF8082000232243CCF8BA
:101390000820DCF808201143CCF8081043F600417F
:1013A000C4F201010A6842F400320A608A6842F419
:1013B00000328A60012101E003210323FF22CCF8DF
:1013C0002420417700210177184601B0BDE8F08F55
:1013D0002DE9F04381B00446007F01284FF0020060
:1013E00000F09F800123237760773AB14878CA786C
:1013F0008E78000240EA024846E000BF48784FF08D
:10140000CD0CC20642BF00F0EF000A304870CA7827
:101410004FF00109A2F10A07FDB205FB0CF5EB0A3A
:1014200003EB83035FFA82FEA7EB43038E7809EB9D
:10143000D525BEF1090F88BF43EA0512A0F10A03C2
:10144000DDB205FB0CF5EF0A07EB8707A3EB4703BB
:1014500009EBD527092888BF43EA0710C0B2D2B2EA
:10146000000240EA0248A6F10A02D3B203FB0CF3E1
:10147000DF0AF0B207EB8707A2EB470209EBD323A1
:10148000092888BF42EA03160F782168CA204862FB
:1014900053204862C868400614D4C86840F08000F1
:1014A000C860FFF7CDF82168CA6852060AD405461D
:1014B000FFF7C6F8401BB0F57A7F35D82168C868B9
:1014C0004006F5D5F0B240EA08007A0320F0C000EB
:1014D00010434860C86820F08000C86088688006B3
:1014E00018D447F65F70C0F20100C860FFF7A8F893
:1014F000054600BF2168C86880060BD4FFF7A0F836
:10150000401BB0F57A7FF5D904206077216801206F
:1015100003E000BF012060770020FF224A62002123
:10152000217701B0BDE8F083042060772168C868A6
:101530000120F2E72DE9F04F81B00446007F012839
:101540004FF0020000F0C3800D4601212177607743
:101550002168886832B140060CD44FF0000885F845
:1015600003800AE0400611D44FF0000885F803809C
:101570000FE000BFE8784FEA80586A78287895F83D
:1015800002A0120242EA004947E000BFE8784FEAB1
:1015900080582A784FF0CD0CA2F10A00C6B206FBA3
:1015A0000CF66B78F70A4FF0010B5FFA82FE07EB3F
:1015B00087070BEBD62695F802A0A0EB4700BEF1FB
:1015C000090F88BF40EA0612A3F10A06F7B207FB2B
:1015D0000CF7F80A5FFA82FEDAB200EB8000A6EBA5
:1015E00040000BEBD726092A88BF40EA0613AAF170
:1015F0000A02D8B2D3B203FB0CF30002DF0A40EABE
:101600000E495FFA8AF007EB8707A2EB47020BEB64
:10161000D323092888BF42EA031ACA20486253200C
:101620004862C868400615D4C86840F08000C860A9
:10163000FFF706F82168CA6852060BD4064600BFB9
:10164000FEF7FEFF801BB0F57A7F43D82168C8689B
:101650004006F5D55FFA8AF040EA090047F67F7246
:1016600040EA0800C0F27F0210400860886820F459
:1016700080208860D5E903028B6810431843886096
:10168000C86820F08000C8608868800618D447F6D3
:101690005F70C0F20100C860FEF7D2FF054600BFD0
:1016A0002168C86880060BD4FEF7CAFF401BB0F55E
:1016B0007A7FF5D9042060772168012003E000BF1C
:1016C000012060770020FF224A620021217701B0CB
:1016D000BDE8F08F042060772168C8680120F2E738
:1016E000411E0020B0EB116F1CBF012070474EF26D
:1016F0001002CEF2000251604EF62351CEF20001EC
:10170000F0230B700721906011607047FEE7000026
:10171000FEE70000FEE700007047000040F288008E
:10172000C2F20000FFF7BCBB70470000FEF78EBF9F
:101730004EF68850CEF20000016841F4700101605D
:1017400070470000FEE7000092B043F6300647F213
:101750000005C4F20206C4F20005FEF785FF6C46E0
:10176000201D2C21FEF70EFE00271197CDE90F77E3
:10177000CDE90D770C973069102140F08050306131
:10178000306900F080500C900C980C97286840F459
:1017900080402860286800F480400C900C980A2053
:1017A000009001200390CDE9041020460697FFF732
:1017B00095F918B172B600BFFEE700BF0F20CDE962
:1017C0000D070DA80021CDE90F771197FFF79EF8BF
:1017D00010B172B6FEE700BF002704970D9730687E
:1017E00005F5CE3440F00800306030684FF44051C9
:1017F00000F008000D900D98204600224FF440554F
:10180000FEF718FF0120CDE9010769462046009543
:101810000397FEF737FE41F20620C0F21F000C903E
:10182000684624210F97CDE90D77FEF7ABFD40F216
:101830007005C2F2000542F60001C4F2000128461C
:1018400040F8181F7F21FF22C0E90171C0E903277A
:10185000C0E90577FFF7C2FB10B172B6FEE700BF23
:1018600043F61730ADF834002D2005F118068DF839
:1018700036000DA930460022CDE91077FFF75AFE59
:1018800010B172B6FEE700BF0CA930460022002757
:10189000FFF79EFD10B172B6FEE700BF0A208DF87B
:1018A000020001208DF820004FF4807009906946F5
:1018B00030460022ADF800700197CDE90377CDE9FD
:1018C00005770797FFF732FC10B172B6FEE700BF4D
:1018D00043F61730294621F8040F2D20A871304611
:1018E0000022FFF727FE41F20720C1F21F102860F7
:1018F000304629460022FFF76BFD2F1D3046394642
:101900000022FFF733FB304629460022FFF7FCFA9E
:1019100020464FF40051FEF785FEC820FEF79EFDDD
:10192000ECE7F1EE100A4FF6FF71C0F2C03120EA89
:10193000010040F04070E1EE100A70470000000026
:1019400000000000010203040607080970190008DE
:101950000000002010000000EC01000880190008C1
:1019600010000020A00600000C020008000000008B
:1019700001000000100000000024F400000000003E
:040000050800018965
:00000001FF
