:020000040800F2
:100000004007002055020008D9150008D115000846
:10001000D51500088D040008E11900080000000053
:10002000000000000000000000000000E1150008D2
:100030009D04000800000000DD150008E51500081B
:100040006F0200086F0200086F0200086F020008CC
:100050006F0200086F0200086F0200086F020008BC
:100060006F0200086F0200086F0200086F020008AC
:100070006F0200086F0200086F0200086F0200089C
:10008000910400086F0200086F0200086F02000868
:100090006F0200086F0200086F0200086F0200087C
:1000A0006F0200086F0200086F0200086F0200086C
:1000B0006F0200086F0200086F0200086F0200085C
:1000C0006F0200086F0200086F0200086F0200084C
:1000D0006F0200086F0200086F0200086F0200083C
:1000E0006F0200086F0200086F0200086F0200082C
:1000F0006F0200086F0200086F0200086F0200081C
:100100006F0200086F0200086F0200086F0200080B
:100110006F0200086F0200086F0200086F020008FB
:100120006F0200086F0200086F0200086F020008EB
:100130006F0200086F0200086F0200086F020008DB
:100140006F0200086F0200086F0200086F020008CB
:100150006F0200086F0200086F0200086F020008BB
:100160006F0200086F0200086F0200086F020008AB
:100170006F0200086F0200086F0200080000000014
:100180006F0200086F02000800F002F800F052F859
:1001900014A696E8000CB244B344DA4501D100F04D
:1001A00049F8BAE80F000FA696E83000A5EB040561
:1001B00004EB0607AAEB0704A7F101074FEA1515A0
:1001C0004FEA3414A4F10104AC4201D300F032F838
:1001D00013F0010F18BFFB1A43F0010300F001F800
:1001E000DBE7184788190000A8190000103A24BF5F
:1001F00078C878C1FAD8520724BF30C830C144BF8C
:1002000004680C6070470000704700000023002461
:1002100000250026103A28BF78C1FBD8520728BF16
:1002200030C148BF0B6070471FB501F082FC1FBD95
:1002300010B510BD00F0EFF81146FFF7F5FF01F023
:10024000D1FB00F00DF903B4FFF7F2FF03BC00F09F
:1002500015F900000948804709480047FEE7FEE716
:10026000FEE7FEE7FEE7FEE7FEE7FEE7FEE7FEE766
:1002700004480549054A064B70470000E915000887
:1002800089010008400100204007002040030020B1
:100290004003002053EA020C00F069802DE9F04B86
:1002A0004FF00006002B1FBFB3FA83F503FA05F4E5
:1002B00024FA05F65E4012BF1643B2FA82F502FA3E
:1002C00005F4C5F120051EBF22FA05FC44EA0C0422
:1002D000203556EA044C4FEA144418BF641C4FF012
:1002E00000084FF00009904271EB030C39D300294C
:1002F00019BFB1FA81F701FA07F6B0FA80F700FAF0
:1003000007F6C7F120071EBF20FA07FC46EA0C06D5
:100310002037B6FBF4FCA7EB0507103F07F01F0BD7
:10032000CBF120062CFA06F60CFA0BFB44BFB346C1
:100330000026202FA4BF5E464FF0000B5BEA060CA0
:1003400008BF4FF0010B19EB0B0948EB0608ABFB9C
:10035000027C06FB02CC0BFB03CCC01B71EB0C0137
:10036000C1E70B46024641464846BDE8F08B13B54F
:10037000084318BF4FF0FF300146AFF30080BDE8DF
:100380001C40704710B5431C02E010F8011B71B10E
:100390008107FAD14FF0013202C88C1A8C4314EA5B
:1003A000C211F9D0C01A0A0603D0C01E10BDC01A6F
:1003B00010BD0A0401D0801E10BD0902FCD0401EF1
:1003C00010BD4FF0000200B5134694469646203902
:1003D00022BFA0E80C50A0E80C50B1F12001BFF4FE
:1003E000F7AF090728BFA0E80C5048BF0CC05DF864
:1003F00004EB890028BF40F8042B08BF704748BFB2
:1004000020F8022B11F0804F18BF00F8012B704725
:10041000704770477047754600F02CF8AE460500EF
:100420006946534620F00700854618B020B5FFF70F
:100430001FFFBDE820404FF000064FF000074FF0CF
:1004400000084FF0000BAC46ACE8C009ACE8C009AE
:10045000ACE8C009ACE8C00921F007018D4670473F
:1004600010B50446AFF300802046BDE81040FFF70A
:10047000EABE000000487047100000200149182023
:10048000ABBEFEE72600020070470000FEE700005A
:1004900040F2D800C2F2000000F006B87047000039
:1004A00072B600BFFEE70000F0B581B00446002040
:1004B000009040F20800C2F200000268D4E9166021
:1004C00048F2B51337680821C1F64E3381403942EE
:1004D000A2FB03250CD0226813685B0708D51368BC
:1004E00023F004031360B160616D41F001016165A7
:1004F00001218140394208D022685269120604D590
:10050000B160616D41F002016165042181403942B1
:1005100008D022681268920704D5B160616D41F07D
:100520000401616510218140394217D020680268BA
:10053000120713D5B16002680168520308D4C905D7
:1005400008D4016821F008010160216C21B905E09F
:1005500008033FD4216C09B120468847E16D202073
:1005600000FA01F23A4241D020680368DB063DD52B
:10057000B26094F835300268052B1BD122F01602C8
:100580000260426922F080024261226C0AB9A26CC8
:100590001AB1026822F0080202603F208840B06071
:1005A000012084F83500216D0020002984F83400F2
:1005B00052D157E00168520310D4C90512D4016822
:1005C00021F010010160012084F83500002084F83A
:1005D000340007E0A16C0029BED1BFE7080301D4B5
:1005E000616C00E0E16B09B120468847606DC8B3DB
:1005F000606DC0072ED0052084F835002068A90A58
:10060000026822F001020260009A01328A420092DE
:100610001AD80268D20717D0009A01328A42009293
:1006200012D80268D2070FD0009A01328A42009293
:100630000AD80268D20707D0009A01328A42009293
:1006400002D80268D207DFD1012084F835000020EB
:1006500084F83400E16C29B1204601B0BDE8F040D7
:10066000084700BF01B0F0BD2DE9F041044600F09D
:10067000E9F9ECB10546022084F835000020216834
:1006800084F83400086820F00100086021680868D8
:10069000C00711D000F0D6F9401B0528F6D9032574
:1006A00020230320636584F83550BDE8F08100BF46
:1006B0000120BDE8F08100BF086848F23F02CFF298
:1006C0001002D4E9013500EA020C04F10C0898E8A4
:1006D000C10143EA0C032B431843D4E9072E3043EE
:1006E00038431043626A40EA0E00042A40EA0803D5
:1006F0001CD1206BD4E90A2E40EA0E001843086092
:100700004869BEF1000F20F0030040EA020040F00B
:10071000040C11D0B8F5005F36D0B8F1000F45D108
:10072000022A46D0012A3BD032B942E00B60486928
:1007300020F0070040EA020C01F0F8004AF6AB2274
:100740001038CAF6AA22A0FB02231A0941F6643324
:10075000C1F814C0C0F600039A5C40F2FF335F2872
:100760004FF03F0021EA030100FA02F088BF043194
:10077000C4E916128860002301250020636584F80F
:100780003550BDE8F08100BF032AD5D801254023AC
:100790000120DFE802F0030E030500BF82E700BF7F
:1007A000AEF1C070B0FA80F0400904E0032A04D32F
:1007B000C2D1CEF300600028BED001254023012025
:1007C000636584F83550BDE8F081000090F834C0CE
:1007D000BCF1010F04BF0220704770B54FF0010C4F
:1007E00080F834C0D0F858E090F835C0BCF1010F63
:1007F00038D14FF0020C80F835C04FF0000CC0F833
:1008000054C0D0F800C08468056CC06DDCF800608E
:10081000402C26F48026CCF80060CCF804300B463F
:1008200004BF13460A463F2101FA00F0CCF8083015
:10083000CCF80C20CEF80800DCF8000040F01600E0
:10084000CCF800002DB1DCF8000040F00800CCF836
:100850000000DCF8000040F00100CCF800000020AF
:1008600070BD00BF002180F83410022070BD000070
:10087000B0B5044600F0E6F8054640F20000C2F2CA
:1008800000000078611C18BF044400BF00F0DAF8D3
:10089000401BA042FAD3B0BD2DE9F04F82B000F169
:1008A0003E4707F1FF77860546EA972741F600465F
:1008B000C4F20206082243F6004EB04208BF0722E7
:1008C000C4F2010E072F38BF3A46002600274FF02A
:1008D0000008009209E000BF08F101080237B8F1F2
:1008E000100F06F1040600F0A3800D68012202FA41
:1008F00008F415EA0409EFD0D1F804B003220BF094
:10090000030CACF10105BA40012D6FEA020A0FD8C1
:100910008268CD6802EA0A02BD402A4382604268CA
:10092000A243CBF3001404FA08F42243426005E02A
:10093000BCF1030F02D14FF0030C1EE0C2688C68BB
:1009400002EA0A02BC402243BCF1020FC26014D189
:100950006FF0030202EA58020244D2F820C006F007
:100960001C040F230D69A3402CEA0303A5402B436D
:100970001362D1F804B00BF0030C02680CFA07F311
:1009800002EA0A021A431BF4403F0260A4D000228C
:1009900043F644030192C4F202031A684FF6084C6E
:1009A00042F480421A601A68CFF6FF7C02F480425B
:1009B0000192019A28F00302724452F80C3006F0BA
:1009C0000C050F24AC40A343009C04FA05F52B430F
:1009D00042F80C30DEF808204B6842EA090543F67D
:1009E0000C4CDC0258BF22EA0905CEF80850C4F2CC
:1009F000010CDCF800209C0242EA090558BF22EAFB
:100A00000905CCF80050DEF804209C0342EA0905F1
:100A100058BF22EA0905CEF80450DEF80020DB03B7
:100A200042EA090558BF22EA0905CEF8005053E70B
:100A300002B0BDE8F08F0000002A08BF0904816100
:100A40007047000040F23810C2F2000000687047A2
:100A500040F2000040F23811C2F20000C2F2000180
:100A600000780A68104408607047000080B543F6BB
:100A70000040C4F20200016841F4007101600168A5
:100A800041F480610160016841F4807101600320DC
:100A900000F088F8002000F005F800F027F80020AA
:100AA00080BD000070B540F20006C2F2000640F2C0
:100AB00008013278C2F200014FF47A730968B3FB7F
:100AC000F2F20446B1FBF2F1084600F063FB0F2C92
:100AD0004FF0010508D838B94FF0FF302146002209
:100AE000002500F033F87460284670BD82B0002005
:100AF00043F640010190C4F202014A6842F4804288
:100B00004A604A6802F480420192019A00900868A3
:100B100040F080500860086800F080500090009815
:100B2000072002B000F03EB8002848BF704700F030
:100B30001F01012202FA01F11C2202EAD0004EF24A
:100B40000012CEF2000281507047000010B54EF640
:100B50000C5CCEF2000CDCF80030C3F3022E8EF0F9
:100B60000704042C28BF0424BEF103034FF0FF3E0A
:100B70000EFA04F438BF0023A14399400EFA03F3A0
:100B80009A43114300F00F0200F160430901043A57
:100B900003F564436244002848BF02F10C03197056
:100BA00010BD00004EF60C51CEF200010A684FF65F
:100BB000FF031A4060F30A2242F0806040F0FD70AB
:100BC00008607047002804BF012070472DE9F041FC
:100BD00043F60808C4F202080446D8F8F8030D46A4
:100BE00000F00700884207D288F8F853D8F8F803D5
:100BF00000F00700A84277D12068810717D5410788
:100C000005D5D8F8001041F4E051C8F800100107EC
:100C100005D5D8F8001041F46041C8F80010D8F8A4
:100C20000010A26821F0F0011143C8F80010C007BD
:100C300040D1D8F8F80300F00700A84207D988F897
:100C4000F853D8F8F80300F00700A8424CD1206808
:100C5000410707D5D8F80010E26821F4E0511143AC
:100C6000C8F80010000708D5D8F80000216920F462
:100C7000604040EAC100C8F8000000F07DF8D8F8F4
:100C8000001041F64C32C1F30311C0F60002515C72
:100C900040F2080220FA01F140F20400C2F2000022
:100CA0000068C2F200021160FFF7FCFE0020BDE800
:100CB000F08100BF6068811E022907D258F8081C25
:100CC00089015CBF0120BDE8F08111E0012807D156
:100CD00058F8081C89035CBF0120BDE8F08107E0DB
:100CE00058F8081C890703D40120BDE8F08100BF33
:100CF000D8F8001021F003010843C8F80000FFF7FE
:100D0000A1FE064641F28837D8F80000616800F07D
:100D10000C00B0EB810F8CD0FFF794FE801BB84223
:100D2000F2D90320BDE8F08140F2080043F6080143
:100D3000C2F20000C4F202010068096841F65C32A8
:100D4000C1F38221C0F60002515CC8407047000028
:100D500040F2080043F60801C2F20000C4F20201AA
:100D60000068096841F65C32C1F34231C0F6000206
:100D7000515CC8407047000010B543F60404C4F24B
:100D80000204606800F00C0142F200400829C0F241
:100D9000F40007D0042918BF10BD41F20020C0F2B2
:100DA0007A0010BD216801F03F02216823684902E2
:100DB000C3F3881106D4A1FB00010023FFF76AFAF0
:100DC00007E000BF41F20020C0F27A004843B0FBC8
:100DD000F2F021680222C1F3014102EB4101B0FBB4
:100DE000F1F010BD002804BF012070472DE9F0414B
:100DF00082B00446007843F60006C007C4F202063B
:100E00000CD0B06800F00C00042840F081803068FD
:100E1000800303D56068002800F06A81207880078D
:100E20001BD5B06810F00C0F09D0B06800F00C00B2
:100E3000082840F087807068400200F183803068A5
:100E4000800703D5E068012840F0528130682169AD
:100E500020F0F80040EAC10030602078000713D489
:100E6000207840072AD4A569002D00F03C81B068A5
:100E700000F00C00082840F0A180012D40F0108106
:100E8000012002B0BDE8F0816069002840F2000056
:100E9000C4F2472000F07E800121C0F8801EFFF7D9
:100EA000D1FD0546706F8007DAD4FFF7CBFD401BFC
:100EB0000228F7D9032002B0BDE8F081306C5FEA68
:100EC000C0080AD400200190306C40F0805030649B
:100ED000306C00F080500190019847F20007C4F296
:100EE00000073868C00547D4386840F4807038601F
:100EF000FFF7A8FD054600BF3868C0053CD4FFF7E2
:100F0000A1FD401B0228F7D9032002B0BDE8F08103
:100F1000B06800F00C00082803D1706840023FF56B
:100F200076AF6068B0F5803F07D0B0F5A02F40F0F5
:100F30009B80306840F480203060306840F480301E
:100F400030609BE0E06800285CD00020C4F24720BD
:100F500001210160FFF776FD054600BF306880077C
:100F60003FF574AFFFF76EFD401B0228F6D9032052
:100F700002B0BDE8F08100BFA068012805D00528B7
:100F800054D1306F40F004003067306F40F0010002
:100F9000306755E00021C0F8801EFFF753FD05467D
:100FA000706F80077FF55CAFFFF74CFD401B022898
:100FB000F6D9032002B0BDE8F08100BF0027C4F2DB
:100FC000472700203866FFF73DFD022D05460DD16D
:100FD0003068800140F19080FFF734FD401B02280B
:100FE0004FF00300F4D902B0BDE8F0813068800111
:100FF00079D5FFF727FD401B02284FF00300F5D9F4
:10100000F1E700BF0020C4F2472000210160FFF794
:1010100019FD0546306880077FF51FAFFFF712FD09
:10102000401B02284FF00300F4D9DCE7316F0028A1
:1010300021F001013167316F21F0040131677DD06A
:10104000FFF700FD054641F2883700BF306F80078B
:1010500000F18680FFF7F6FC401BB842F6D903206A
:1010600002B0BDE8F08100BF3168002821F4803172
:101070003160316821F4802131607BD0FFF7E2FCE0
:10108000054600BF306880033FF5C8AEFFF7DAFCC5
:10109000401B6428F6D9032002B0BDE8F08100BFF0
:1010A0007068E16900F480028A4221D1216A00F06F
:1010B0003F028A421CD147F6C071626A0140B1EB1F
:1010C000821F15D1A16A4FF6FF73C903994300F43B
:1010D0004032A1F580318A420AD1E16A00F07060A5
:1010E000B0EB016F04D1002002B0BDE8F08100BF79
:1010F000012002B0BDE8F08104F11C052FCD0843AA
:1011000040EA8210D9034FF6FF729143A1F5803176
:1011100040EA05600843706001203866FFF792FCE2
:10112000044600BF30688001DDD4FFF78BFC001B54
:1011300002284FF00300F5D955E700BFFFF782FC06
:10114000054641F2883700BF306F800708D5FFF7AA
:1011500079FC401BB8424FF00300F5D943E700BFCC
:10116000B8F1000F3FF57FAE306C20F08050306456
:1011700079E600BFFFF766FC054600BF30688003D4
:101180007FF54CAEFFF75EFC401B64284FF0030078
:10119000F4D928E7411E0020B0EB116F1CBF0120DD
:1011A00070474EF21002CEF2000251604EF623510B
:1011B000CEF20001F0230B700721906011607047A0
:1011C0007047000070470000002804BF01207047EE
:1011D00010B5044690F8410028B9002084F840007A
:1011E000204600F021F8242084F841002068C168DE
:1011F00021F40051C160204600F07AFB20680169AB
:1012000021F490410161416921F02A014161C168E5
:1012100041F40051C16000202021606484F8411035
:1012200084F84210606310BD70B586B00446016852
:1012300044F20040C4F20000814201D006B070BD0B
:10124000002643F630010196C4F202010A6900F556
:10125000DE3042F400320A610A6902F4003201927F
:10126000019A01960A6842F001020A60096801F0D9
:101270000101019101990C2101910221CDE9021690
:10128000032104910721059101A9FFF705FB40F215
:10129000D80546F28800C2F20005C4F202004FF001
:1012A00000614FF4806285E843002846C5E9036287
:1012B000C5E90566C5E907666E62FFF7D5F900283E
:1012C00018BFFFF7EDF8E563AC6306B070BD000032
:1012D00070B582B0044690F8420020280AD1134627
:1012E0000A4600294FF0010018BF002B06D102B0BA
:1012F00070BD00BF022002B070BD00BF00262220DA
:101300002663A262A385666484F84200E06B41F222
:10131000797C41F6D9052168C0F6000CC0F60005BD
:10132000C0E90FC541F2FD55C0F600050431C0E922
:101330001356FFF74BFA0196206801680191406847
:1013400001900198206928B3206850E8030F2168B4
:1013500040F4807041E80302E2B1206850E8030FD6
:10136000216840F4807041E803029AB1206850E897
:10137000030F216840F4807041E8030252B12068F5
:1013800050E8030F216840F4807041E80302002A0E
:10139000DAD100BF206850E8050F216840F0010055
:1013A00041E80502BAB3206850E8050F216840F013
:1013B000010041E8050272B3206850E8050F21687A
:1013C00040F0010041E805022AB3206850E8050F0B
:1013D000216840F0010041E80502002ADAD11AE054
:1013E000206850E8050F216840F0400041E8050200
:1013F000DAB1206850E8050F216840F0400041E86C
:10140000050292B1206850E8050F216840F04000C5
:1014100041E805024AB1206850E8050F216840F014
:10142000400041E80502002ADAD1002002B070BD78
:1014300010B540F27004C2F200042046FEF7A2FF8D
:1014400004F1200182B2084621460A23BDE810407B
:1014500000F002B8704700002DE9F041044690F812
:10146000410020281CBF0220BDE8F0810D46002964
:101470004FF0010000F0AA801646002A08BFBDE820
:10148000F081002060642120984684F84100FFF735
:10149000D9FAA684E684A1680646B1F5805F02D138
:1014A0002069002862D02F460025E08C002861D0FA
:1014B00018F1010018D0B8F1000F37D1216808E009
:1014C00017F8010B4860E08C0138E084E08C0028BC
:1014D00051D00868000673D5002FF1D135F8020B02
:1014E00000276FF35F20EDE7216802E0086800063F
:1014F00009D40868000606D4086800065CBF0868BE
:101500005FEA0060F2D51FB117F8010B05E000BFDC
:1015100035F8020B00276FF35F204860E08C01383C
:10152000E084E08C0028E4D125E000BF216800BF02
:101530000868000608D4FFF785FA801B404541D8AB
:101540002168C868F4E700BF17B117F8010B04E081
:1015500035F8020B00276FF35F204860E08C0138FC
:10156000E084E08C0028E3D105E000BF0027E08C98
:1015700000289DD12168086840061FD4B8F1000FEB
:101580001ED018F101000FD10868400616D4086873
:10159000400613D40868400610D4086840064FF08F
:1015A0000000F1D50FE000BFFFF74CFA801B40456B
:1015B00008D82068C16800684006F5D5002002E020
:1015C000FFF740FA0320202184F84110BDE8F081A4
:1015D000FEE70000FEE70000FEE7000070470000A5
:1015E00070470000FFF734BA4EF68850CEF2000084
:1015F000016841F47001016070470000806B016870
:101600004A6990F84130212B2DD112F080022AD066
:101610000021C184016851E8031F026821F0C00164
:1016200042E80313DBB1016851E8031F026821F0AF
:10163000C00142E8031393B1016851E8031F026837
:1016400021F0C00142E803134BB1016851E8031FC8
:10165000026821F0C00142E80313002BDAD12021F7
:1016600080F841100168496990F84220222A40F030
:101670007D8011F0400179D00021C185016851E8D9
:10168000031F026821F4907142E80313BBB30168A1
:1016900051E8031F026821F4907142E8031373B309
:1016A000016851E8031F026821F4907142E80313B6
:1016B0002BB3016851E8031F026821F4907142E8DE
:1016C0000313002BDAD11AE0016851E8051F026804
:1016D00021F0010142E80513DBB1016851E8051F63
:1016E000026821F0010142E8051393B1016851E855
:1016F000051F026821F0010142E805134BB10168A2
:1017000051E8051F026821F0010142E80513002B92
:10171000DAD1016B012924D1016851E8031F026865
:1017200021F0100142E80313DBB1016851E8031F07
:10173000026821F0100142E8031393B1016851E8F7
:10174000031F026821F0100142E803134BB1016846
:1017500051E8031F026821F0100142E80313002B37
:10176000DAD1202180F8421000210163416C41F060
:1017700010014164FFF726BD0168806B0968C90547
:1017800000F19F800021C185016851E8031F0268B4
:1017900021F4807142E80313E3B1016851E8031FAB
:1017A000026821F4807142E803139BB1016851E89B
:1017B000031F026821F4807142E8031353B10168EA
:1017C00051E8031F026821F4807142E80313002BE3
:1017D000DAD100BF016851E8051F026821F001015C
:1017E00042E80513BBB3016851E8051F026821F008
:1017F000010142E8051373B3016851E8051F02684F
:1018000021F0010142E805132BB3016851E8051FDF
:10181000026821F0010142E80513002BDAD11AE039
:10182000016851E8051F026821F0400142E80513F4
:10183000DBB1016851E8051F026821F0400142E870
:10184000051393B1016851E8051F026821F04001BA
:1018500042E805134BB1016851E8051F026821F009
:10186000400142E80513002BDAD1202180F8421014
:10187000016B012925D100BF016851E8031F0268EF
:1018800021F0100142E80313DBB1016851E8031FA6
:10189000026821F0100142E8031393B1016851E896
:1018A000031F026821F0100142E803134BB10168E5
:1018B00051E8031F026821F0100142E80313002BD6
:1018C000DAD100214163016B012918BFFFF7B0BDD8
:1018D000818DFFF775BC0000806B01214163016BB6
:1018E000012918BFFFF7B6BD818D4908FFF768BC15
:1018F00010B504460068D4E902C22369016921F4E5
:10190000405111430161626943EA0C01E3691143EB
:10191000C268194349F20C639A431143C16041699B
:10192000A26921F4407141F20043114340F4806206
:10193000C4F201039A42416102D1FFF709FA01E0C2
:10194000FFF7F2F9E16963681922B1F5004FA0FBD6
:10195000020123D15A00DB0FFEF79CFC48F21F5115
:10196000C5F2EB11A0FB01235A094FF69C73C0F698
:10197000FF7303F1805302FB0300322303EBC0002B
:10198000A0FB01014FF4F87000EA111000EB021007
:10199000C1F3421108442168886010BD9A009B0F72
:1019A000FEF778FC48F21F51C5F2EB11A0FB0123B2
:1019B0005A094FF69C73C0F6FF7302FB03003223F3
:1019C00003EB0010A0FB0101F02000EA511000EB36
:1019D0000210C1F3431108442168886010BD000063
:1019E000FEE7000092B043F6300547F20006C4F26D
:1019F0000205C4F20006FFF739F806AC201D2C21C1
:101A0000FEF7DFFC00270597CDE90377CDE90177E5
:101A10000097286940F080502861286900F08050C4
:101A2000009000980097306840F480403060306843
:101A300000F4804000900098022006900120099058
:101A400010200A9020460C97FFF7CCF910B172B61F
:101A5000FEE700BF0F20CDE9010701A80021CDE975
:101A600003770597FFF7AEF810B172B6FEE700BF37
:101A700000270A970197286806F5CE3440F0010048
:101A8000286028684FF4405100F00100019001984F
:101A900001972868002240F00800286028684FF469
:101AA000405600F00800019001982046FEF7C4FF60
:101AB0000120CDE9070706A9204606960997FEF7FB
:101AC000EBFE06972868002140F400102860286883
:101AD000002200F40010069006981020FFF736F858
:101AE0001020FFF721F840F27004C2F2000444F223
:101AF0000041C4F20001204640F8201F4FF4E131BC
:101B00000C22C0E90117C0E90377C0E90527C761C6
:101B1000FFF75AFB10B172B6FEE700BF04F12000D8
:101B200021460A22FFF7D4FB4FF4FA70FEF7A0FE1D
:101B3000FAE7F1EE100A4FF6FF71C0F2C03120EA69
:101B4000010040F04070E1EE100A70470000000014
:101B5000000000000102030406070809000000005D
:101B6000010203040006101600061016901B000860
:101B70000000002010000000EC010008A01B00087D
:101B800010000020300700000C02000800000000D8
:101B900001000000100000000024F400000000001C
:040000050800018965
:00000001FF
