:020000040800F2
:10000000C006002055020008251500081D1500082F
:10001000211500084D040008A1160008000000008A
:100020000000000000000000000000002D15000886
:1000300051040008000000002915000831150008CF
:100040006F0200086F0200086F0200086F020008CC
:100050006F0200086F0200086F0200086F020008BC
:100060006F0200086F0200086F0200086F020008AC
:100070006F0200086F0200086F0200086F0200089C
:100080006F0200086F0200086F0200086F0200088C
:100090006F0200086F0200086F0200086F0200087C
:1000A0006F0200086F0200086F0200086F0200086C
:1000B000491500086F0200086F0200086F0200086F
:1000C0006F0200086F0200086F0200086F0200084C
:1000D0006F0200086F0200086F0200086F0200083C
:1000E0006F0200086F0200086F0200086F0200082C
:1000F0006F0200086F0200086F0200086F0200081C
:100100006F0200086F0200086F0200086F0200080B
:100110006F0200086F0200086F0200086F020008FB
:100120006F0200086F0200086F0200086F020008EB
:100130006F0200086F0200086F0200086F020008DB
:100140006F0200086F0200086F0200086F020008CB
:100150006F0200086F0200086F0200086F020008BB
:100160006F0200086F0200086F0200086F020008AB
:100170006F0200086F0200086F0200080000000014
:100180006F0200086F02000800F002F800F052F859
:1001900014A696E8000CB244B344DA4501D100F04D
:1001A00049F8BAE80F000FA696E83000A5EB040561
:1001B00004EB0607AAEB0704A7F101074FEA1515A0
:1001C0004FEA3414A4F10104AC4201D300F032F838
:1001D00013F0010F18BFFB1A43F0010300F001F800
:1001E000DBE718474C1600006C160000103A24BFDD
:1001F00078C878C1FAD8520724BF30C830C144BF8C
:1002000004680C6070470000704700000023002461
:1002100000250026103A28BF78C1FBD8520728BF16
:1002200030C148BF0B6070471FB501F0ECFA1FBD2D
:1002300010B510BD00F0D0F81146FFF7F5FF01F042
:1002400031FA00F0EEF803B4FFF7F2FF03BC00F060
:10025000F5F800000948804709480047FEE7FEE737
:10026000FEE7FEE7FEE7FEE7FEE7FEE7FEE7FEE766
:1002700004480549054A064B70470000351500083B
:1002800089010008C0000020C0060020C002002034
:10029000C002002053EA020C00F069802DE9F04B07
:1002A0004FF00006002B1FBFB3FA83F503FA05F4E5
:1002B00024FA05F65E4012BF1643B2FA82F502FA3E
:1002C00005F4C5F120051EBF22FA05FC44EA0C0422
:1002D000203556EA044C4FEA144418BF641C4FF012
:1002E00000084FF00009904271EB030C39D300294C
:1002F00019BFB1FA81F701FA07F6B0FA80F700FAF0
:1003000007F6C7F120071EBF20FA07FC46EA0C06D5
:100310002037B6FBF4FCA7EB0507103F07F01F0BD7
:10032000CBF120062CFA06F60CFA0BFB44BFB346C1
:100330000026202FA4BF5E464FF0000B5BEA060CA0
:1003400008BF4FF0010B19EB0B0948EB0608ABFB9C
:10035000027C06FB02CC0BFB03CCC01B71EB0C0137
:10036000C1E70B46024641464846BDE8F08B13B54F
:10037000084318BF4FF0FF300146AFF30080BDE8DF
:100380001C4070474FF0000200B513469446964655
:10039000203922BFA0E80C50A0E80C50B1F1200198
:1003A000BFF4F7AF090728BFA0E80C5048BF0CC046
:1003B0005DF804EB890028BF40F8042B08BF7047A4
:1003C00048BF20F8022B11F0804F18BF00F8012B16
:1003D0007047704770477047754600F02BF8AE467F
:1003E00005006946534620F00700854618B020B541
:1003F000FFF73EFFBDE820404FF000064FF000073A
:100400004FF000084FF0000BAC46ACE8C009ACE878
:10041000C009ACE8C009ACE8C00921F007018D466D
:10042000704710B50446AFF300802046BDE8104089
:10043000FFF709BF0048704710000020014918204D
:10044000ABBEFEE72600020070470000FEE700009A
:10045000704700002DE9F04F82B000F13E4707F1F0
:10046000FF77860546EA972741F60046C4F2020662
:10047000082243F6004EB04208BF0722C4F2010E24
:10048000072F38BF3A46002600274FF00008009299
:1004900009E000BF08F101080237B8F1100F06F1BA
:1004A000040600F0A3800D68012202FA08F415EAA0
:1004B0000409EFD0D1F804B003220BF0030CACF127
:1004C0000105BA40012D6FEA020A0FD88268CD6893
:1004D00002EA0A02BD402A4382604268A243CBF38B
:1004E000001404FA08F42243426005E0BCF1030F53
:1004F00002D14FF0030C1EE0C2688C6802EA0A02C7
:10050000BC402243BCF1020FC26014D16FF0030261
:1005100002EA58020244D2F820C006F01C040F235D
:100520000D69A3402CEA0303A5402B431362D1F8C5
:1005300004B00BF0030C02680CFA07F302EA0A029B
:100540001A431BF4403F0260A4D0002243F6440348
:100550000192C4F202031A684FF6084C42F480423A
:100560001A601A68CFF6FF7C02F480420192019A69
:1005700028F00302724452F80C3006F00C050F24E8
:10058000AC40A343009C04FA05F52B4342F80C3021
:10059000DEF808204B6842EA090543F60C4CDC0201
:1005A00058BF22EA0905CEF80850C4F2010CDCF865
:1005B00000209C0242EA090558BF22EA0905CCF84E
:1005C0000050DEF804209C0342EA090558BF22EAE5
:1005D0000905CEF80450DEF80020DB0342EA0905E5
:1005E00058BF22EA0905CEF8005053E702B0BDE833
:1005F000F08F000040F2B800C2F2000000687047BF
:1006000040F2000040F2B801C2F20000C2F2000164
:1006100000780A68104408607047000080B543F60F
:100620000040C4F20200016841F4007101600168F9
:1006300041F480610160016841F480710160032030
:1006400000F088F8002000F005F800F027F80020FE
:1006500080BD000070B540F20006C2F2000640F214
:1006600008013278C2F200014FF47A730968B3FBD3
:10067000F2F20446B1FBF2F1084600F03BFB0F2C0E
:100680004FF0010508D838B94FF0FF30214600225D
:10069000002500F033F87460284670BD82B0002059
:1006A00043F640010190C4F202014A6842F48042DC
:1006B0004A604A6802F480420192019A00900868F8
:1006C00040F080500860086800F08050009000986A
:1006D000072002B000F03EB8002848BF704700F085
:1006E0001F01012202FA01F11C2202EAD0004EF29F
:1006F0000012CEF2000281507047000010B54EF695
:100700000C5CCEF2000CDCF80030C3F3022E8EF04D
:100710000704042C28BF0424BEF103034FF0FF3E5E
:100720000EFA04F438BF0023A14399400EFA03F3F4
:100730009A43114300F00F0200F160430901043AAB
:1007400003F564436244002848BF02F10C031970AA
:1007500010BD00004EF60C51CEF200010A684FF6B3
:10076000FF031A4060F30A2242F0806040F0FD70FF
:1007700008607047002804BF012070472DE9F04150
:1007800043F60808C4F202080446D8F8F8030D46F8
:1007900000F00700884207D288F8F853D8F8F80329
:1007A00000F00700A84277D12068810717D54107DC
:1007B00005D5D8F8001041F4E051C8F80010010741
:1007C00005D5D8F8001041F46041C8F80010D8F8F9
:1007D0000010A26821F0F0011143C8F80010C00712
:1007E00040D1D8F8F80300F00700A84207D988F8EC
:1007F000F853D8F8F80300F00700A8424CD120685D
:10080000410707D5D8F80010E26821F4E051114300
:10081000C8F80010000708D5D8F80000216920F4B6
:10082000604040EAC100C8F8000000F055F8D8F870
:10083000001041F62002C1F30311C0F60002515C22
:1008400040F2080220FA01F140F20400C2F2000076
:100850000068C2F200021160FFF7FCFE0020BDE854
:10086000F08100BF6068811E022907D258F8081C79
:1008700089015CBF0120BDE8F08111E0012807D1AA
:1008800058F8081C89035CBF0120BDE8F08107E02F
:1008900058F8081C890703D40120BDE8F08100BF87
:1008A000D8F8001021F003010843C8F80000FFF752
:1008B000A1FE064641F28837D8F80000616800F0D2
:1008C0000C00B0EB810F8CD0FFF794FE801BB84278
:1008D000F2D90320BDE8F08110B543F60404C4F258
:1008E0000204606800F00C0142F200400829C0F2E6
:1008F000F40007D0042918BF10BD41F20020C0F257
:100900007A0010BD216801F03F0221682368490286
:10091000C3F3881106D4A1FB00010023FFF7BAFC42
:1009200007E000BF41F20020C0F27A004843B0FB6C
:10093000F2F021680222C1F3014102EB4101B0FB58
:10094000F1F010BD002804BF012070472DE9F041EF
:1009500082B00446007843F60006C007C4F20206DF
:100960000CD0B06800F00C00042840F081803068A2
:10097000800303D56068002800F06A812078800732
:100980001BD5B06810F00C0F09D0B06800F00C0057
:10099000082840F087807068400200F1838030684A
:1009A000800703D5E068012840F052813068216952
:1009B00020F0F80040EAC10030602078000713D42E
:1009C000207840072AD4A569002D00F03C81B0684A
:1009D00000F00C00082840F0A180012D40F01081AB
:1009E000012002B0BDE8F0816069002840F20000FB
:1009F000C4F2472000F07E800121C0F8801EFFF77E
:100A0000F9FD0546706F8007DAD4FFF7F3FD401B50
:100A10000228F7D9032002B0BDE8F081306C5FEA0C
:100A2000C0080AD400200190306C40F0805030643F
:100A3000306C00F080500190019847F20007C4F23A
:100A400000073868C00547D4386840F480703860C3
:100A5000FFF7D0FD054600BF3868C0053CD4FFF75E
:100A6000C9FD401B0228F7D9032002B0BDE8F08180
:100A7000B06800F00C00082803D1706840023FF510
:100A800076AF6068B0F5803F07D0B0F5A02F40F09A
:100A90009B80306840F480203060306840F48030C3
:100AA00030609BE0E06800285CD00020C4F2472062
:100AB00001210160FFF79EFD054600BF30688007F9
:100AC0003FF574AFFFF796FD401B0228F6D90320CF
:100AD00002B0BDE8F08100BFA068012805D005285C
:100AE00054D1306F40F004003067306F40F00100A7
:100AF000306755E00021C0F8801EFFF77BFD0546FA
:100B0000706F80077FF55CAFFFF774FD401B022814
:100B1000F6D9032002B0BDE8F08100BF0027C4F27F
:100B2000472700203866FFF765FD022D05460DD1E9
:100B30003068800140F19080FFF75CFD401B022887
:100B40004FF00300F4D902B0BDE8F08130688001B5
:100B500079D5FFF74FFD401B02284FF00300F5D970
:100B6000F1E700BF0020C4F2472000210160FFF739
:100B700041FD0546306880077FF51FAFFFF73AFD5E
:100B8000401B02284FF00300F4D9DCE7316F002846
:100B900021F001013167316F21F0040131677DD00F
:100BA000FFF728FD054641F2883700BF306F800708
:100BB00000F18680FFF71EFD401BB842F6D90320E6
:100BC00002B0BDE8F08100BF3168002821F4803117
:100BD0003160316821F4802131607BD0FFF70AFD5C
:100BE000054600BF306880033FF5C8AEFFF702FD41
:100BF000401B6428F6D9032002B0BDE8F08100BF95
:100C00007068E16900F480028A4221D1216A00F013
:100C10003F028A421CD147F6C071626A0140B1EBC3
:100C2000821F15D1A16A4FF6FF73C903994300F4DF
:100C30004032A1F580318A420AD1E16A00F0706049
:100C4000B0EB016F04D1002002B0BDE8F08100BF1D
:100C5000012002B0BDE8F08104F11C052FCD08434E
:100C600040EA8210D9034FF6FF729143A1F580311B
:100C700040EA05600843706001203866FFF7BAFC5F
:100C8000044600BF30688001DDD4FFF7B3FC001BD1
:100C900002284FF00300F5D955E700BFFFF7AAFC83
:100CA000054641F2883700BF306F800708D5FFF74F
:100CB000A1FC401BB8424FF00300F5D943E700BF49
:100CC000B8F1000F3FF57FAE306C20F080503064FB
:100CD00079E600BFFFF78EFC054600BF3068800351
:100CE0007FF54CAEFFF786FC401B64284FF00300F5
:100CF000F4D928E7411E0020B0EB116F1CBF012082
:100D000070474EF21002CEF2000251604EF62351AF
:100D1000CEF20001F0230B70072190601160704744
:100D2000704700007047000090F83C20012A4FF007
:100D3000020254D010B580F83D200268D2F804E0D9
:100D4000D2F808C00C682EF07003234341F2FF7400
:100D5000C4F20004A24253600EDC40F2FF73C4F2FE
:100D600000039A4216DCB2F1804F2BD040F20043D0
:100D7000C4F2000324E000BF40F2FF33C4F20103D9
:100D80009A4213DC41F60003C4F200039A4219D0E0
:100D9000002313E040F60003C4F200039A4211D08E
:100DA00040F60043C4F200030AE000BF44F200032F
:100DB000C4F201039A4205D040F20043C4F2010399
:100DC0009A4204D149682CF08003194391600121B3
:100DD000002280F83D1080F83C20BDE8104010460D
:100DE00070470000002804BF0120704710B504467A
:100DF00090F83D0028B9002084F83C00204600F01F
:100E00001FF8022084F83D002068211D00F0A2FB9D
:100E1000012084F8460084F83E0084F83F0084F8FE
:100E2000400084F8410084F8420084F8430084F8CC
:100E3000440084F8450084F83D00002010BD000007
:100E40000068B0F1804F18BF704780B586B00020B1
:100E500043F630010190C4F202010A6942F0010236
:100E60000A610A6902F001020192019A01900A687E
:100E700042F001020A600968022201F001010191B9
:100E800001990121CDE90220CDE904010020019161
:100E9000C4F2020001A9FFF7DDFA1C2000210022A4
:100EA000FFF72CFC1C20FFF717FC06B0BDE88040C4
:100EB0007047000090F83C20012A4FF0020200F039
:100EC000C58080B580F83D20D0F800C04FF677721D
:100ED000DCF8083023EA0202CCF808200B684F2B1C
:100EE00028DC1F2B44DD202B45D0302B43D0402B5A
:100EF00040F0AE80D1F804E0C968DCF82030DCF8BE
:100F0000202022F00102CCF82020DCF8182022F06A
:100F1000F00242EA011123F00A0242EA0E02CCF882
:100F20001810CCF82020DCF8081041F0470121F01F
:100F3000300180E06F2B27DDB3F5005F48D0B3F5BB
:100F4000805F7AD0702B40F08380D1E901E3C968DB
:100F5000DCF8082043EA0E0322F47F4243EA012131
:100F60001143CCF80810DCF8081041F0770162E07A
:100F70000BB1102B6CD1DCF8081021F07001194373
:100F800041F0070157E000BF502B35D0602B5FD1F7
:100F9000D1F804E0C968DCF82030DCF8202022F029
:100FA0001002CCF82020DCF8182022F4704242EA2B
:100FB000013123F0A00242EA0E12CCF81810CCF84E
:100FC0002020DCF8081041F0670121F0100132E028
:100FD000D1E901E3C968DCF8082043EA0E0322F4F2
:100FE0007F4243EA01211143CCF80810DCF80810D5
:100FF00041F480411FE000BFD1F804E0C968DCF88B
:101000002030DCF8202022F00102CCF82020DCF88F
:10101000182022F0F00242EA011123F00A0242EA0B
:101020000E02CCF81810CCF82020DCF8081041F0A3
:10103000570121F02001CCF808100022012180F88E
:101040003D10002180F83C10BDE8804010467047FC
:101050000122F3E70068B0F1804F18BF70472420E9
:10106000C4F20000016800210160704790F83C3034
:10107000012B04BF022070474FEAB202032A29D88D
:10108000F0B5DFE802F0032D4B6B00BF0368D1E938
:1010900000C5D1F80CE01C6A1A6A41F2FF7722F011
:1010A00001021A621A4652F8186FC4F20007BB42D6
:1010B0007ADC40F2FF77C4F20007BB4200F3828083
:1010C000B3F1804F00F0968040F20047C4F2000771
:1010D0008EE000BF0121002280F83C2008467047C6
:1010E0000368D1E900E6D1E902C11C6A1A6A360236
:1010F00022F010021A621A4652F8185F4FF2FF07E8
:10110000BE4325F4734561F30F3624F0A0040EF0BE
:101110000A0746EA050144EA07173CE00768D1E9F7
:1011200000C5D1E902313C6A3A6A61F3071522F43D
:1011300080723A623A4652F81C6F26F0F30645EA8E
:10114000060124F420660CF00A0546EA0526116023
:101150003E62116821F00C0111605CE00368D1E986
:1011600000E6D1E902C11C6A1A6A360222F48052F2
:101170001A621A4652F81C5F4FF2FF07BE4325F46D
:10118000734561F30F3624F420440EF00A0746EA53
:10119000050144EA073711601F6211684FEA0C230A
:1011A00021F44061116036E040F2FF37C4F20107DC
:1011B000BB4213DC41F60007C4F20007BB4219D062
:1011C000002713E040F60007C4F20007BB4211D02D
:1011D00040F60047C4F200070AE000BF44F20007EF
:1011E000C4F20107BB4205D040F20047C4F2010738
:1011F000BB421BD126F00306354324F00A070CF04E
:101200000A066EF3071537449D611F629F6927F038
:101210000C079F618B681168194311600021BDE8BC
:10122000F040002280F83C200846704746F0010557
:10123000E3E70000002804BF0120704710B5044612
:1012400090F83D0028B9002084F83C00204600F0CA
:101250001FF8022084F83D002068211D00F07AF973
:10126000012084F8460084F83E0084F83F0084F8AA
:10127000400084F8410084F8420084F8430084F878
:10128000440084F8450084F83D00002010BD0000B3
:101290007047000061B1082916D0042919BF00F178
:1012A000410200F1450300F13F0200F143030FE06A
:1012B00090F83E2090F84230012A4FF0010208BF1A
:1012C000012B17D01046704700F1400200F1440393
:1012D00012781B78012A4FF0010208BF012BF1D1CF
:1012E000022208290CD0042910D180F83F2080F870
:1012F00043200FE0022280F83E2080F8422009E0DF
:1013000080F8402080F8442004E000BF80F84120AD
:1013100080F84520006801F01F010122036A02FAEB
:1013200001F123EA01020262026A114341F2FF72F3
:10133000C4F20002904201620EDC40F2FF71C4F27E
:101340000001884216DCB0F1804F2BD040F2004102
:10135000C4F2000124E000BF40F2FF31C4F20101F9
:10136000884213DC41F60001C4F20001884219D022
:10137000002113E040F60001C4F20001884211D0C0
:1013800040F60041C4F200010AE000BF44F200014F
:10139000C4F20101884205D040F20041C4F20101CB
:1013A000884204D1816801F00701062903D0016851
:1013B00041F00101016000221046704770B50446FB
:1013C0000068C5680669B10716D515F0020113D08B
:1013D0006FF002010161012121778069800703D04C
:1013E0002046FFF737FE05E0204600F08FF8204644
:1013F00000F08EF800202077700719D515F0040052
:1014000016D020686FF00401016102212177806904
:1014100010F4407F04D02046FFF71CFE06E000BF1A
:10142000204600F073F8204600F072F80020207784
:10143000300717D515F0080014D020686FF00801A8
:10144000016104212177C069800703D02046FFF79E
:1014500001FE05E0204600F059F8204600F058F85B
:1014600000202077F00619D515F0100016D020685E
:101470006FF01001016108212177C06910F4407FED
:1014800004D02046FFF7E6FD06E000BF204600F04E
:101490003DF8204600F03CF800202077F00718BF08
:1014A00015F0010002D1300609D412E020686FF077
:1014B00001010161204600F02DF8300609D515F034
:1014C000800006D020686FF0800101612046FFF7A0
:1014D00027FC700609D515F0400006D020686FF093
:1014E00040010161204600F017F8B00658BF70BDFA
:1014F00015F0200008D021686FF0200220460A6114
:10150000BDE87040FFF70EBC70BD000070470000E2
:10151000704700007047000070470000FEE70000C1
:10152000FEE70000FEE70000704700007047000083
:10153000FFF766B84EF68850CEF20000016841F41D
:10154000700101607047000040F27000C2F20000BC
:10155000FFF734BF10B540F6FF3E0368C4F2000E3B
:1015600040F2004C7045C4F2010C27DCB0F1804F12
:1015700031D040F20042C4F2000290422BD040F63B
:101580000002C4F20002904225D041F6FF72C4F27C
:101590000002904229DC70453CDCB0F1804F5FD006
:1015A00040F20042C4F20002904259D040F60002DC
:1015B000C4F20002904253D056E000BF40F6004211
:1015C000C4F20002904206D0604504D00022C4F26A
:1015D00001029042D9D14A6823F07003134341F6C7
:1015E000FF72C4F200029042D5DD43F6FF72C4F2EE
:1015F0000102904222DC42F20002C4F20002904258
:101600002ED00022C4F20102904229D0604527D09A
:101610002AE000BF40F60042C4F2000290421FD010
:1016200041F60002C4F20002904219D041F6004295
:10163000C4F20002904213D016E000BF44F2000250
:10164000C4F2010290420BD044F60002C4F201023F
:10165000904205D044F20042C4F20102904203D10C
:10166000CA6823F44073134323F080024B69D1F816
:1016700000E08C681A430260C46240F48062C0F8E3
:1016800028E0624504BF09690163012141610169E4
:10169000C90708BF10BD016921F00101016110BD3A
:1016A000FEE7000094B043F63005C4F20205FEF7F1
:1016B000B5FF06AC201D2C21FEF764FE0026059622
:1016C000CDE90366CDE901661296286940F08050A5
:1016D0002861286900F080501290129847F20000AB
:1016E0001296C4F20000016841F480410160006874
:1016F00000F4804012901298022006900120099078
:1017000010200A9020460C96FFF71CF910B172B613
:10171000FEE700BF0F20CDE9010601A80021CDE9B9
:1017200003660596FFF726F810B172B6FEE700BF14
:1017300000210691286848F2A06640F00100286068
:1017400028684FF0804200F001000690069840F2B1
:101750007000C2F200004FF47A53C0F20106099102
:10176000CDE90711CDE91211C0E90023C0E9021645
:1017700001618161FFF736FB10B172B6FEE700BF71
:101780004FF48050069040F27000C2F2000006A9AB
:10179000FFF790FB10B172B6FEE700BF40F2700099
:1017A000C2F20000FFF746FD10B172B6FEE700BFBF
:1017B00040F27000C2F2000012A9FFF7B5FA18B1AA
:1017C00072B600BFFEE700BF0020012140F27004A6
:1017D0000190CDE902100F20C2F20004049001A98B
:1017E00020460022FFF742FC10B172B6FEE700BFB0
:1017F00020460021FFF74EFD206800BF416A416A84
:10180000416A416AFAE7F1EE100A4FF6FF71C0F241
:10181000C03120EA010040F04070E1EE100A70474C
:101820000000000000000000010203040607080990
:10183000501800080000002010000000EC01000813
:101840006018000810000020B00600000C0200081C
:1018500001000000100000000024F400000000005F
:040000050800018965
:00000001FF
