:020000040800F2
:100000008806002055020008850E00087D0E0008B5
:10001000810E00084D040008A90E00080000000031
:100020000000000000000000000000008D0E00082D
:100030005104000800000000890E0008910E00081D
:100040006F0200086F0200086F0200086F020008CC
:100050006F0200086F0200086F0200086F020008BC
:100060006F0200086F0200086F0200086F020008AC
:100070006F0200086F0200086F0200086F0200089C
:100080006F0200086F0200086F0200086F0200088C
:100090006F0200086F0200086F0200086F0200087C
:1000A0006F0200086F0200086F0200086F0200086C
:1000B0006F0200086F0200086F0200086F0200085C
:1000C0006F0200086F0200086F0200086F0200084C
:1000D0006F0200086F0200086F0200086F0200083C
:1000E0006F0200086F0200086F0200086F0200082C
:1000F0006F0200086F0200086F0200086F0200081C
:100100006F0200086F0200086F0200086F0200080B
:100110006F0200086F0200086F0200086F020008FB
:100120006F0200086F0200086F0200086F020008EB
:100130006F0200086F0200086F0200086F020008DB
:100140006F0200086F0200086F0200086F020008CB
:100150006F0200086F0200086F0200086F020008BB
:100160006F0200086F0200086F0200086F020008AB
:100170006F0200086F0200086F0200080000000014
:100180006F0200086F02000800F002F800F052F859
:1001900014A696E8000CB244B344DA4501D100F04D
:1001A00049F8BAE80F000FA696E83000A5EB040561
:1001B00004EB0607AAEB0704A7F101074FEA1515A0
:1001C0004FEA3414A4F10104AC4201D300F032F838
:1001D00013F0010F18BFFB1A43F0010300F001F800
:1001E000DBE71847E80D0000080E0000103A24BFB6
:1001F00078C878C1FAD8520724BF30C830C144BF8C
:1002000004680C6070470000704700000023002461
:1002100000250026103A28BF78C1FBD8520728BF16
:1002200030C148BF0B6070471FB500F0BAFE1FBD5C
:1002300010B510BD00F0D0F81146FFF7F5FF00F043
:1002400035FE00F0EEF803B4FFF7F2FF03BC00F058
:10025000F5F800000948804709480047FEE7FEE737
:10026000FEE7FEE7FEE7FEE7FEE7FEE7FEE7FEE766
:1002700004480549054A064B70470000950E0008E2
:1002800089010008880000208806002088020020DC
:100290008802002053EA020C00F069802DE9F04B3F
:1002A0004FF00006002B1FBFB3FA83F503FA05F4E5
:1002B00024FA05F65E4012BF1643B2FA82F502FA3E
:1002C00005F4C5F120051EBF22FA05FC44EA0C0422
:1002D000203556EA044C4FEA144418BF641C4FF012
:1002E00000084FF00009904271EB030C39D300294C
:1002F00019BFB1FA81F701FA07F6B0FA80F700FAF0
:1003000007F6C7F120071EBF20FA07FC46EA0C06D5
:100310002037B6FBF4FCA7EB0507103F07F01F0BD7
:10032000CBF120062CFA06F60CFA0BFB44BFB346C1
:100330000026202FA4BF5E464FF0000B5BEA060CA0
:1003400008BF4FF0010B19EB0B0948EB0608ABFB9C
:10035000027C06FB02CC0BFB03CCC01B71EB0C0137
:10036000C1E70B46024641464846BDE8F08B13B54F
:10037000084318BF4FF0FF300146AFF30080BDE8DF
:100380001C4070474FF0000200B513469446964655
:10039000203922BFA0E80C50A0E80C50B1F1200198
:1003A000BFF4F7AF090728BFA0E80C5048BF0CC046
:1003B0005DF804EB890028BF40F8042B08BF7047A4
:1003C00048BF20F8022B11F0804F18BF00F8012B16
:1003D0007047704770477047754600F02BF8AE467F
:1003E00005006946534620F00700854618B020B541
:1003F000FFF73EFFBDE820404FF000064FF000073A
:100400004FF000084FF0000BAC46ACE8C009ACE878
:10041000C009ACE8C009ACE8C00921F007018D466D
:10042000704710B50446AFF300802046BDE8104089
:10043000FFF709BF0048704710000020014918204D
:10044000ABBEFEE72600020070470000FEE700009A
:100450007047000000284FF0010318BF002901D1A8
:10046000184670474379012B4FF00203F8D010B5BE
:100470000371036802F0100ED3F800C0D1E9001434
:1004800040F6FE7202FA0EF221432CEA020201FA51
:100490000EF111431960C0211A6801FA0EF122EA27
:1004A000010119600121002301714371BDE8104071
:1004B00018467047002804BF0120704710B5044655
:1004C000007920B900206071204600F007F8022072
:1004D0002071002001212061217110BD80B586B0FE
:1004E00047F200410068C4F20001002288420592F0
:1004F000049201D006B080BD43F630000092C4F2F1
:100500000200036943F000530361036903F00053E1
:100510000093009B0092036843F0010303600068AE
:1005200000F0010000900098102001900320CDE918
:10053000020201F5C63001A900F04CF806B080BDFA
:1005400081B04FF0000CCDF800C068B10068002900
:1005500000900098104414BF1430083000900098A8
:100560000360002001B07047012001B07047000017
:10057000002804BF012070474279012A4FF002028F
:1005800026D010B50271026801F0100E4FF0010C78
:1005900014680CFA0EF323431360D2F800C049B17B
:1005A0003C230CF4701103FA0EF399420AD1022194
:1005B00005E000BF0CF03C013C2903D10121536848
:1005C000194351600121002201714271BDE81040C0
:1005D000104670472DE9F04F82B000F13E4707F119
:1005E000FF77860546EA972741F60046C4F20206E1
:1005F000082243F6004EB04208BF0722C4F2010EA3
:10060000072F38BF3A46002600274FF00008009217
:1006100009E000BF08F101080237B8F1100F06F138
:10062000040600F0A3800D68012202FA08F415EA1E
:100630000409EFD0D1F804B003220BF0030CACF1A5
:100640000105BA40012D6FEA020A0FD88268CD6811
:1006500002EA0A02BD402A4382604268A243CBF309
:10066000001404FA08F42243426005E0BCF1030FD1
:1006700002D14FF0030C1EE0C2688C6802EA0A0245
:10068000BC402243BCF1020FC26014D16FF00302E0
:1006900002EA58020244D2F820C006F01C040F23DC
:1006A0000D69A3402CEA0303A5402B431362D1F844
:1006B00004B00BF0030C02680CFA07F302EA0A021A
:1006C0001A431BF4403F0260A4D0002243F64403C7
:1006D0000192C4F202031A684FF6084C42F48042B9
:1006E0001A601A68CFF6FF7C02F480420192019AE8
:1006F00028F00302724452F80C3006F00C050F2467
:10070000AC40A343009C04FA05F52B4342F80C309F
:10071000DEF808204B6842EA090543F60C4CDC027F
:1007200058BF22EA0905CEF80850C4F2010CDCF8E3
:1007300000209C0242EA090558BF22EA0905CCF8CC
:100740000050DEF804209C0342EA090558BF22EA63
:100750000905CEF80450DEF80020DB0342EA090563
:1007600058BF22EA0905CEF8005053E702B0BDE8B1
:10077000F08F000040F28400C2F200000068704771
:1007800040F2000040F28401C2F20000C2F2000117
:1007900000780A68104408607047000080B543F68E
:1007A0000040C4F20200016841F400710160016878
:1007B00041F480610160016841F4807101600320AF
:1007C00000F076F8002000F005F800F027F800208F
:1007D00080BD000070B540F20006C2F2000640F293
:1007E00008013278C2F200014FF47A730968B3FB52
:1007F000F2F20446B1FBF2F1084600F029FB0F2C9F
:100800004FF0010508D838B94FF0FF3021460022DB
:10081000002500F021F87460284670BD82B00020E9
:1008200043F640010190C4F202014A6842F480425A
:100830004A604A6802F480420192019A0090086876
:1008400040F080500860086800F0805000900098E8
:10085000072002B000F02CB810B54EF60C5CCEF2BA
:10086000000CDCF80030C3F3022E8EF00704042CD9
:1008700028BF0424BEF103034FF0FF3E0EFA04F438
:1008800038BF0023A14399400EFA03F39A43114362
:1008900000F00F0200F160430901043A03F56443DC
:1008A0006244002848BF02F10C03197010BD00001B
:1008B0004EF60C51CEF200010A684FF6FF031A40C3
:1008C00060F30A2242F0806040F0FD7008607047DB
:1008D000002804BF012070472DE9F04143F60808C5
:1008E000C4F202080446D8F8F8030D4600F00700E9
:1008F000884207D288F8F853D8F8F80300F00700C8
:10090000A84277D12068810717D5410705D5D8F8C7
:10091000001041F4E051C8F80010010705D5D8F8DF
:10092000001041F46041C8F80010D8F80010A26827
:1009300021F0F0011143C8F80010C00740D1D8F8E9
:10094000F80300F00700A84207D988F8F853D8F850
:10095000F80300F00700A8424CD12068410707D5F2
:10096000D8F80010E26821F4E0511143C8F80010F3
:10097000000708D5D8F80000216920F4604040EA5B
:10098000C100C8F8000000F055F8D8F8001040F693
:10099000BC72C1F30311C0F60002515C40F20802C0
:1009A00020FA01F140F20400C2F200000068C2F235
:1009B00000021160FFF70EFF0020BDE8F08100BFCC
:1009C0006068811E022907D258F8081C89015CBFA3
:1009D0000120BDE8F08111E0012807D158F8081C7A
:1009E00089035CBF0120BDE8F08107E058F8081CCE
:1009F000890703D40120BDE8F08100BFD8F80010BA
:100A000021F003010843C8F80000FFF7B3FE0646D3
:100A100041F28837D8F80000616800F00C00B0EBB4
:100A2000810F8CD0FFF7A6FE801BB842F2D90320BD
:100A3000BDE8F08110B543F60404C4F20204606816
:100A400000F00C0142F200400829C0F2F40007D087
:100A5000042918BF10BD41F20020C0F27A0010BD79
:100A6000216801F03F02216823684902C3F388111D
:100A700006D4A1FB00010023FFF70CFC07E000BF38
:100A800041F20020C0F27A004843B0FBF2F0216846
:100A90000222C1F3014102EB4101B0FBF1F010BDB4
:100AA000002804BF012070472DE9F04182B00446C0
:100AB000007843F60006C007C4F202060CD0B06806
:100AC00000F00C00042840F081803068800303D5DA
:100AD0006068002800F06A81207880071BD5B06824
:100AE00010F00C0F09D0B06800F00C00082840F09E
:100AF00087807068400200F183803068800703D5EA
:100B0000E068012840F052813068216920F0F80047
:100B100040EAC10030602078000713D420784007F5
:100B20002AD4A569002D00F03C81B06800F00C00CB
:100B3000082840F0A180012D40F01081012002B072
:100B4000BDE8F0816069002840F20000C4F247204F
:100B500000F07E800121C0F8801EFFF70BFE0546E5
:100B6000706F8007DAD4FFF705FE401B0228F7D923
:100B7000032002B0BDE8F081306C5FEAC0080AD4FF
:100B800000200190306C40F080503064306C00F0F8
:100B900080500190019847F20007C4F200073868BE
:100BA000C00547D4386840F480703860FFF7E2FD34
:100BB000054600BF3868C0053CD4FFF7DBFD401B8D
:100BC0000228F7D9032002B0BDE8F081B06800F038
:100BD0000C00082803D1706840023FF576AF6068CA
:100BE000B0F5803F07D0B0F5A02F40F09B80306873
:100BF00040F480203060306840F4803030609BE00A
:100C0000E06800285CD00020C4F247200121016088
:100C1000FFF7B0FD054600BF306880073FF574AFB1
:100C2000FFF7A8FD401B0228F6D9032002B0BDE85B
:100C3000F08100BFA068012805D0052854D1306F8D
:100C400040F004003067306F40F00100306755E03D
:100C50000021C0F8801EFFF78DFD0546706F8007EC
:100C60007FF55CAFFFF786FD401B0228F6D9032015
:100C700002B0BDE8F08100BF0027C4F24727002082
:100C80003866FFF777FD022D05460DD130688001EB
:100C900040F19080FFF76EFD401B02284FF00300EB
:100CA000F4D902B0BDE8F0813068800179D5FFF752
:100CB00061FD401B02284FF00300F5D9F1E700BFAA
:100CC0000020C4F2472000210160FFF753FD0546D4
:100CD000306880077FF51FAFFFF74CFD401B0228EF
:100CE0004FF00300F4D9DCE7316F002821F0010157
:100CF0003167316F21F0040131677DD0FFF73AFD94
:100D0000054641F2883700BF306F800700F18680CA
:100D1000FFF730FD401BB842F6D9032002B0BDE812
:100D2000F08100BF3168002821F4803131603168E2
:100D300021F4802131607BD0FFF71CFD054600BF08
:100D4000306880033FF5C8AEFFF714FD401B6428F0
:100D5000F6D9032002B0BDE8F08100BF7068E169F8
:100D600000F480028A4221D1216A00F03F028A42C7
:100D70001CD147F6C071626A0140B1EB821F15D1E8
:100D8000A16A4FF6FF73C903994300F44032A1F5FD
:100D900080318A420AD1E16A00F07060B0EB016FE5
:100DA00004D1002002B0BDE8F08100BF012002B0F4
:100DB000BDE8F08104F11C052FCD084340EA821004
:100DC000D9034FF6FF729143A1F5803140EA0560E7
:100DD0000843706001203866FFF7CCFC044600BF72
:100DE00030688001DDD4FFF7C5FC001B02284FF0FE
:100DF0000300F5D955E700BFFFF7BCFC054641F2FB
:100E0000883700BF306F800708D5FFF7B3FC401B61
:100E1000B8424FF00300F5D943E700BFB8F1000F27
:100E20003FF57FAE306C20F08050306479E600BF33
:100E3000FFF7A0FC054600BF306880037FF54CAE8D
:100E4000FFF798FC401B64284FF00300F4D928E713
:100E5000411E0020B0EB116F1CBF012070474EF205
:100E60001002CEF2000251604EF62351CEF2000184
:100E7000F0230B700721906011607047FEE70000BF
:100E8000FEE70000FEE7000070470000704700002A
:100E9000FFF776BC4EF68850CEF20000016841F4B0
:100EA0007001016070470000FEE7000092B043F659
:100EB000300647F20005C4F20206C4F20005FFF74F
:100EC0006DFC06AC201D2C21FFF75CFA002705976E
:100ED000CDE90377CDE901770097306940F0805084
:100EE0003061306900F080500090009800972868C9
:100EF00040F480402860286800F48040009000980A
:100F0000022006900120099010200A9020460C979C
:100F1000FFF7C6FD10B172B6FEE700BF0F20CDE9A6
:100F2000010701A80021CDE903770597FFF7D0FC61
:100F300010B172B6FEE700BF00200690316841F0A4
:100F400001013160316801F0010106910699CDE996
:100F5000060040F2700005F58061C2F200000160F9
:100F6000FFF7A8FA10B172B6FEE700BF40F27000BA
:100F7000C2F2000006A90022FFF76CFA10B172B6A7
:100F8000FEE700BF40F27004C2F2000420460021D8
:100F9000FFF7EEFA2046002108220023FFF7D0FADF
:100FA000FEE7F1EE100A4FF6FF71C0F2C03120EA01
:100FB000010040F04070E1EE100A704700000000B0
:100FC000000000000102030406070809F00F0008F2
:100FD0000000002010000000EC01000800100008D4
:100FE00010000020780600000C020008000000003D
:100FF00001000000100000000024F40000000000C8
:040000050800018965
:00000001FF
