:020000040800F2
:10000000E006002055020008E5120008DD12000895
:10001000E112000801040008B1130008000000000C
:10002000000000000000000000000000ED120008C9
:100030000504000800000000E9120008F1120008A1
:100040006F0200086F0200086F0200086F020008CC
:100050006F0200086F0200086F0200086F020008BC
:100060006F0200086F0200086F0200086F020008AC
:100070006F0200086F0200086F0200086F0200089C
:100080006F0200086F0200086F0200086F0200088C
:100090006F0200086F0200086F0200086F0200087C
:1000A0006F0200086F0200086F0200086F0200086C
:1000B0006F0200086F0200086F0200086F0200085C
:1000C0006F0200086F0200086F0200086F0200084C
:1000D0006F0200086F0200086F0200086F0200083C
:1000E0006F0200086F0200086F0200086F0200082C
:1000F0006F0200086F0200086F0200086F0200081C
:100100006F0200086F0200086F0200086F0200080B
:100110006F0200086F0200086F0200086F020008FB
:100120006F0200086F0200086F0200086F020008EB
:100130006F0200086F0200086F0200086F020008DB
:100140006F0200086F0200086F0200086F020008CB
:100150006F0200086F0200086F0200086F020008BB
:100160006F0200086F0200086F0200086F020008AB
:100170006F0200086F0200086F0200080000000014
:100180006F0200086F02000800F002F800F052F859
:1001900014A696E8000CB244B344DA4501D100F04D
:1001A00049F8BAE80F000FA696E83000A5EB040561
:1001B00004EB0607AAEB0704A7F101074FEA1515A0
:1001C0004FEA3414A4F10104AC4201D300F032F838
:1001D00013F0010F18BFFB1A43F0010300F001F800
:1001E000DBE71847E812000008130000103A24BFAC
:1001F00078C878C1FAD8520724BF30C830C144BF8C
:1002000004680C6070470000704700000023002461
:1002100000250026103A28BF78C1FBD8520728BF16
:1002200030C148BF0B6070471FB501F039F91FBDE1
:1002300010B510BD00F0A9F81146FFF7F5FF01F069
:10024000B9F800F0C7F803B4FFF7F2FF03BC00F001
:10025000CFF800000948804709480047FEE7FEE75D
:10026000FEE7FEE7FEE7FEE7FEE7FEE7FEE7FEE766
:1002700004480549054A064B704700009D130008D5
:1002800089010008E0000020E0060020E0020020D4
:10029000E002002053EA020C00F069802DE9F04BE7
:1002A0004FF00006002B1FBFB3FA83F503FA05F4E5
:1002B00024FA05F65E4012BF1643B2FA82F502FA3E
:1002C00005F4C5F120051EBF22FA05FC44EA0C0422
:1002D000203556EA044C4FEA144418BF641C4FF012
:1002E00000084FF00009904271EB030C39D300294C
:1002F00019BFB1FA81F701FA07F6B0FA80F700FAF0
:1003000007F6C7F120071EBF20FA07FC46EA0C06D5
:100310002037B6FBF4FCA7EB0507103F07F01F0BD7
:10032000CBF120062CFA06F60CFA0BFB44BFB346C1
:100330000026202FA4BF5E464FF0000B5BEA060CA0
:1003400008BF4FF0010B19EB0B0948EB0608ABFB9C
:10035000027C06FB02CC0BFB03CCC01B71EB0C0137
:10036000C1E70B46024641464846BDE8F08B13B54F
:10037000084318BF4FF0FF300146AFF30080BDE8DF
:100380001C407047704770477047754600F02CF866
:10039000AE4605006946534620F00700854618B072
:1003A00020B5FFF765FFBDE820404FF000064FF095
:1003B00000074FF000084FF0000BAC46ACE8C00956
:1003C000ACE8C009ACE8C009ACE8C00921F00701FD
:1003D0008D46704710B50446AFF300802046BDE857
:1003E0001040FFF730BF00000048704710000020A9
:1003F00001491820ABBEFEE726000200704700004E
:10040000FEE70000704700007047000070B581B043
:100410000022009290F83C20012A03D102210846D4
:1004200001B070BD0E6801220A2E80F83C2009D36D
:10043000B2B25200D0F800E012FA86F21E3A0EF183
:100440000C0305E0D0F800E006EB46020EF11003C5
:100450004FF0070C1D680CFA02F4A5431D608D686F
:100460001C6805FA02F222431A60496806290FD86F
:1004700001EB81014A1F71461F2351F8345F9340FD
:1004800025EA03030B60B3B203FA02F214E000BFE3
:1004900001EB81030C29B2B204D8714651F8304FF8
:1004A000233B03E0714651F82C4F413B1F259D40F3
:1004B00024EA05059A400D600B6842F2043CC4F240
:1004C000010C1A43ACF541739E450A603BD1122ED4
:1004D00006D1DCF8001041F48001CCF8001032E0C5
:1004E00026F0010110292ED1DCF80010102E41F465
:1004F0000001CCF8001026D140F20801C2F2000140
:1005000009684DF68362C4F21B32A1FB0212910C02
:1005100001EB8101490000910099A1B100990139D5
:100520000091009979B1009901390091009951B178
:10053000009901390091009929B100990139009180
:1005400000990029EAD1002180F83C10084601B04A
:1005500070BD000070470000704700007047000049
:100560000068C06C70470000002804BF012070477D
:1005700010B50446006C00283ED0206CC00666D43E
:10058000206C41F202118843023042F204312064AF
:10059000C4F20101086820F4403008600A6894E859
:1005A00009101A43D4F810E00A604168012321F4CD
:1005B000807141604168C0F6007341EA0E214160DC
:1005C000416821F040714160416841EA0C0141609D
:1005D000816821F400618160E16882681143816073
:1005E000A16A8268994222F070628260826833D187
:1005F00022F0405139E000BF40F2555040F25951CD
:10060000C0F60000C0F6000140F2097204F1480E85
:10061000C0F600028EE80700E16D40F25D5340F243
:10062000094CC0F60003C0F6000C6365C4F858C05E
:1006300021B940F20D71C0F60001E16520468847FE
:100640000020606484F83C00206CC00698D501202E
:10065000002184F83C1010BD11438160816821F0B5
:1006600040518160E16A826811438160816821F0B4
:10067000020181608168227E94F8203041EA4201C3
:100680008160416883B141F40061416041684EF28C
:10069000000221F460414160616ACFF6FF72436855
:1006A00002EB4131194301E021F400614160C16A6C
:1006B00040F2000C21F47001C162E2696169CFF679
:1006C000F07CC36A0CEB02521A43C262826822F4C5
:1006D0000072826094F83020836843EA422282608C
:1006E000826822F480628260826842EA81218160AD
:1006F00000206064216C012262F301012164002169
:1007000084F83C1010BD00007047000080B586B032
:1007100042F200010068C4F2010100228842059201
:10072000049201D006B080BD43F630000092C4F2BE
:100730000200436943F480734361436903F48073A7
:100740000093009B0092036843F00103036000687C
:1007500000F0010000900098012001900320CDE9F5
:10076000020201F5604001A900F05EF906B080BD0B
:1007700070B5044600680D468268520544BF806823
:100780005FEAC05038D400F025FA21680A68920761
:1007900049D40646681C3CD0DDB90868800721D5DD
:1007A000086880073FD4086880071BD50868800761
:1007B00039D40868800715D50868800733D40868DD
:1007C00080070FD508688007E7D52CE00868800708
:1007D00029D400F0FFF9801B2168A842F6D90868E7
:1007E0008007F3D4206C40F004002064002084F8DB
:1007F0003C00032070BD00BF206C40F0200020644E
:10080000002084F83C00012070BD00BF086880070C
:1008100009D40868800706D4086880075CBF0868A8
:100820005FEA8070F2D56FF012000860206C40F42F
:1008300000702064886810F0405F01D0002070BD17
:10084000207E0028FAD1C86A10F4700F02D08868A0
:100850004005F3D4206C20F480702064206CC00428
:10086000ECD4206C40F001002064002070BD00003A
:1008700010B581B00021009190F83C10012903D1FE
:10088000022001B010BD00BF0468012180F83C10B7
:10089000214651F8083FDB0729D10B684DF68362EA
:1008A00043F001030B6040F20803C2F200031B682F
:1008B000C4F21B32A3FB02239A0C02EB4202009209
:1008C000009AA2B1009A013A0092009A7AB1009A75
:1008D000013A0092009A52B1009A013A0092009AAD
:1008E0002AB1009A013A0092009A002AEAD10A68D5
:1008F000036CD2070CD143F01001016400F14401F4
:1009000001200A6810430860002001B010BD00BF3C
:1009100040F2017223EA020202F580720264626808
:10092000520504D5026C012363F30D320264026C9C
:100930004FF0000E0023D20444BF426C22F00603A5
:1009400042F2043C436480F83CE06FF02200C4F2C1
:10095000010C2060DCF80000C0060DD0ACF5417041
:1009600084422BD14FF60450CFF6FF705CF80000A4
:1009700010F0405F22D125E042F20000C4F20100F5
:10098000844217D042F20020C4F2010084420DD00C
:1009900042F20010C4F2010084420FD1DCF80000E2
:1009A000C00607D0ACF58270844207D1DCF80000A5
:1009B000C00603D4086810F0405F03D0002001B0E7
:1009C00010BD00BF4FF080409BE7000090F83C1046
:1009D000012904BF0220704701688A6822F00102E1
:1009E0008A608968C90705D1016C41F201129143FF
:1009F00001310164002180F83C1008467047000076
:100A0000B0B5044600F0E6F8054640F20000C2F238
:100A100000000078611C18BF044400BF00F0DAF841
:100A2000401BA042FAD3B0BD2DE9F04F82B000F1D7
:100A30003E4707F1FF77860546EA972741F60046CD
:100A4000C4F20206082243F6004EB04208BF072255
:100A5000C4F2010E072F38BF3A46002600274FF098
:100A60000008009209E000BF08F101080237B8F160
:100A7000100F06F1040600F0A3800D68012202FAAF
:100A800008F415EA0409EFD0D1F804B003220BF002
:100A9000030CACF10105BA40012D6FEA020A0FD830
:100AA0008268CD6802EA0A02BD402A438260426839
:100AB000A243CBF3001404FA08F42243426005E099
:100AC000BCF1030F02D14FF0030C1EE0C2688C682A
:100AD00002EA0A02BC402243BCF1020FC26014D1F8
:100AE0006FF0030202EA58020244D2F820C006F076
:100AF0001C040F230D69A3402CEA0303A5402B43DC
:100B00001362D1F804B00BF0030C02680CFA07F37F
:100B100002EA0A021A431BF4403F0260A4D00022FA
:100B200043F644030192C4F202031A684FF6084CDC
:100B300042F480421A601A68CFF6FF7C02F48042C9
:100B40000192019A28F00302724452F80C3006F028
:100B50000C050F24AC40A343009C04FA05F52B437D
:100B600042F80C30DEF808204B6842EA090543F6EB
:100B70000C4CDC0258BF22EA0905CEF80850C4F23A
:100B8000010CDCF800209C0242EA090558BF22EA69
:100B90000905CCF80050DEF804209C0342EA090560
:100BA00058BF22EA0905CEF80450DEF80020DB0326
:100BB00042EA090558BF22EA0905CEF8005053E77A
:100BC00002B0BDE8F08F0000002A08BF090481616F
:100BD0007047000040F2D800C2F200000068704781
:100BE00040F2000040F2D801C2F20000C2F200015F
:100BF00000780A68104408607047000080B543F62A
:100C00000040C4F20200016841F400710160016813
:100C100041F480610160016841F48071016003204A
:100C200000F076F8002000F005F800F027F800202A
:100C300080BD000070B540F20006C2F2000640F22E
:100C400008013278C2F200014FF47A730968B3FBED
:100C5000F2F20446B1FBF2F1084600F029FB0F2C3A
:100C60004FF0010508D838B94FF0FF302146002277
:100C7000002500F021F87460284670BD82B0002085
:100C800043F640010190C4F202014A6842F48042F6
:100C90004A604A6802F480420192019A0090086812
:100CA00040F080500860086800F080500090009884
:100CB000072002B000F02CB810B54EF60C5CCEF256
:100CC000000CDCF80030C3F3022E8EF00704042C75
:100CD00028BF0424BEF103034FF0FF3E0EFA04F4D4
:100CE00038BF0023A14399400EFA03F39A431143FE
:100CF00000F00F0200F160430901043A03F5644378
:100D00006244002848BF02F10C03197010BD0000B6
:100D10004EF60C51CEF200010A684FF6FF031A405E
:100D200060F30A2242F0806040F0FD700860704776
:100D3000002804BF012070472DE9F04143F6080860
:100D4000C4F202080446D8F8F8030D4600F0070084
:100D5000884207D288F8F853D8F8F80300F0070063
:100D6000A84277D12068810717D5410705D5D8F863
:100D7000001041F4E051C8F80010010705D5D8F87B
:100D8000001041F46041C8F80010D8F80010A268C3
:100D900021F0F0011143C8F80010C00740D1D8F885
:100DA000F80300F00700A84207D988F8F853D8F8EC
:100DB000F80300F00700A8424CD12068410707D58E
:100DC000D8F80010E26821F4E0511143C8F800108F
:100DD000000708D5D8F80000216920F4604040EAF7
:100DE000C100C8F8000000F055F8D8F8001041F232
:100DF000BA42C1F30311C0F60002515C40F208028E
:100E000020FA01F140F20400C2F200000068C2F2D0
:100E100000021160FFF70EFF0020BDE8F08100BF67
:100E20006068811E022907D258F8081C89015CBF3E
:100E30000120BDE8F08111E0012807D158F8081C15
:100E400089035CBF0120BDE8F08107E058F8081C69
:100E5000890703D40120BDE8F08100BFD8F8001055
:100E600021F003010843C8F80000FFF7B3FE06466F
:100E700041F28837D8F80000616800F00C00B0EB50
:100E8000810F8CD0FFF7A6FE801BB842F2D9032059
:100E9000BDE8F08110B543F60404C4F202046068B2
:100EA00000F00C0142F200400829C0F2F40007D023
:100EB000042918BF10BD41F20020C0F27A0010BD15
:100EC000216801F03F02216823684902C3F38811B9
:100ED00006D4A1FB00010023FFF7DCF907E000BF07
:100EE00041F20020C0F27A004843B0FBF2F02168E2
:100EF0000222C1F3014102EB4101B0FBF1F010BD50
:100F0000002804BF012070472DE9F04182B004465B
:100F1000007843F60006C007C4F202060CD0B068A1
:100F200000F00C00042840F081803068800303D575
:100F30006068002800F06A81207880071BD5B068BF
:100F400010F00C0F09D0B06800F00C00082840F039
:100F500087807068400200F183803068800703D585
:100F6000E068012840F052813068216920F0F800E3
:100F700040EAC10030602078000713D42078400791
:100F80002AD4A569002D00F03C81B06800F00C0067
:100F9000082840F0A180012D40F01081012002B00E
:100FA000BDE8F0816069002840F20000C4F24720EB
:100FB00000F07E800121C0F8801EFFF70BFE054681
:100FC000706F8007DAD4FFF705FE401B0228F7D9BF
:100FD000032002B0BDE8F081306C5FEAC0080AD49B
:100FE00000200190306C40F080503064306C00F094
:100FF00080500190019847F20007C4F2000738685A
:10100000C00547D4386840F480703860FFF7E2FDCF
:10101000054600BF3868C0053CD4FFF7DBFD401B28
:101020000228F7D9032002B0BDE8F081B06800F0D3
:101030000C00082803D1706840023FF576AF606865
:10104000B0F5803F07D0B0F5A02F40F09B8030680E
:1010500040F480203060306840F4803030609BE0A5
:10106000E06800285CD00020C4F247200121016024
:10107000FFF7B0FD054600BF306880073FF574AF4D
:10108000FFF7A8FD401B0228F6D9032002B0BDE8F7
:10109000F08100BFA068012805D0052854D1306F29
:1010A00040F004003067306F40F00100306755E0D9
:1010B0000021C0F8801EFFF78DFD0546706F800788
:1010C0007FF55CAFFFF786FD401B0228F6D90320B1
:1010D00002B0BDE8F08100BF0027C4F2472700201E
:1010E0003866FFF777FD022D05460DD13068800187
:1010F00040F19080FFF76EFD401B02284FF0030087
:10110000F4D902B0BDE8F0813068800179D5FFF7ED
:1011100061FD401B02284FF00300F5D9F1E700BF45
:101120000020C4F2472000210160FFF753FD05466F
:10113000306880077FF51FAFFFF74CFD401B02288A
:101140004FF00300F4D9DCE7316F002821F00101F2
:101150003167316F21F0040131677DD0FFF73AFD2F
:10116000054641F2883700BF306F800700F1868066
:10117000FFF730FD401BB842F6D9032002B0BDE8AE
:10118000F08100BF3168002821F48031316031687E
:1011900021F4802131607BD0FFF71CFD054600BFA4
:1011A000306880033FF5C8AEFFF714FD401B64288C
:1011B000F6D9032002B0BDE8F08100BF7068E16994
:1011C00000F480028A4221D1216A00F03F028A4263
:1011D0001CD147F6C071626A0140B1EB821F15D184
:1011E000A16A4FF6FF73C903994300F44032A1F599
:1011F00080318A420AD1E16A00F07060B0EB016F81
:1012000004D1002002B0BDE8F08100BF012002B08F
:10121000BDE8F08104F11C052FCD084340EA82109F
:10122000D9034FF6FF729143A1F5803140EA056082
:101230000843706001203866FFF7CCFC044600BF0D
:1012400030688001DDD4FFF7C5FC001B02284FF099
:101250000300F5D955E700BFFFF7BCFC054641F296
:10126000883700BF306F800708D5FFF7B3FC401BFD
:10127000B8424FF00300F5D943E700BFB8F1000FC3
:101280003FF57FAE306C20F08050306479E600BFCF
:10129000FFF7A0FC054600BF306880037FF54CAE29
:1012A000FFF798FC401B64284FF00300F4D928E7AF
:1012B000411E0020B0EB116F1CBF012070474EF2A1
:1012C0001002CEF2000251604EF62351CEF2000120
:1012D000F0230B700721906011607047FEE700005B
:1012E000FEE70000FEE700007047000070470000C6
:1012F000FFF776BCB0B592B0002443F640000B94E3
:10130000CDE90944CDE907440594CDE90344CDE98D
:1013100001440094C4F202000168022541F08051AA
:101320000160006800F080500090009847F20000D3
:101330000094C4F20000016841F48041016000683B
:1013400000F48040009000980120099010200A903D
:1013500008200E9032200F9004201090072011904A
:1013600006A80695CDE90C54FFF7CAFD10B172B678
:10137000FEE700BF0F20CDE901054FF4A050049017
:101380004FF48050059001A800210394FFF7D0FC92
:1013900010B172B6FEE700BF12B0B0BD4EF6885075
:1013A000CEF20000016841F4700101607047000056
:1013B000FEE7000086B0FFF721FCFFF79BFF002649
:1013C00043F6300005960096C4F20200016840F62C
:1013D000004441F0010101600168C4F2020401F01F
:1013E00001010091009900960168002241F0080176
:1013F000016000684FF4704100F008000090009810
:1014000020464FF47045FFF7DFFB012701A9204676
:101410000195CDE902760496FFF706FB40F27005D0
:10142000C2F20005A4F56C412846012240F8041FD1
:101430004FF00071C0F600720496067680F82060C6
:10144000C0E90A26C76180F83060C0E90161C0E9DF
:1014500003664761FFF788F810B172B6FEE700BF78
:101460002C1D01A92046CDE901670396FEF7CEFFAA
:1014700040B172B6FEE700BF2046FFF7A7FA64202E
:10148000FFF7BEFA2046FFF7F3F920460521FFF7E4
:101490006FF90028F0D12046FFF762F82860EBE7EB
:1014A000F1EE100A4FF6FF71C0F2C03120EA0100E0
:1014B00040F04070E1EE100A7047000000000000AC
:1014C000000001020304060708090000F0140008E8
:1014D0000000002010000000EC01000800150008CA
:1014E00010000020D00600000C02000800000000E0
:1014F00001000000100000000024F40000000000C3
:040000050800018965
:00000001FF
